:020000040800F2
:1000000000500020DD180008F9170008011800084A
:10001000091800081118000819180008000000004D
:10002000000000000000000000000000211800088F
:100030002D180008000000003918000845180008B5
:100040002519000825190008251900082519000898
:100050002519000825190008251900082519000888
:100060002519000825190008251900082519000878
:10007000511800082519000825190008251900083D
:100080002519000825190008251900082519000858
:100090002519000825190008251900082519000848
:1000A0002519000825190008251900082519000838
:1000B0002519000825190008251900082519000828
:1000C0002519000825190008251900082519000818
:1000D0002519000825190008251900082519000808
:1000E000251900082519000825190008000000003E
:1000F0000000000000000000000000000000000000
:0C01000000000000000000005FF808F1A3
:10010C0010B5054C237833B9044B13B10448AFF345
:10011C0000800123237010BDE000002000000000CF
:10012C008047000808B5034B1BB103490348AFF3E4
:10013C00008008BD00000000E4000020804700089B
:10014C00034613F8012B002AFBD1181A013870470B
:10015C0080B500AF00F040F8642001F041FC0022B3
:10016C0001211C4802F06FF900220221194802F00B
:10017C006AF9032000F016F90A2001F031FC032083
:10018C0000F010F9052001F02BFC032000F00AF917
:10019C00052001F025FC022000F004F9052001F0F7
:1001AC001FFC282000F0BCF8052001F019FC0C20E5
:1001BC0000F0B6F8052001F013FC00F05BF8052008
:1001CC0001F00EFC062000F0ABF8052001F008FC55
:1001DC0000BF80BD000C014080B586B000AF07F1B8
:1001EC00080300221A605A609A60DA601F4B9B6900
:1001FC001E4A43F0080393611C4B9B6903F00803F0
:10020C007B607B680123BB600123FB6000233B61A7
:10021C0002237B6107F108031946154801F078FFAA
:10022C000223BB6007F108031946114801F070FF67
:10023C004FF47043BB6007F1080319460C4801F0FA
:10024C0067FF002201210A4802F0FDF8002202217A
:10025C00074802F0F8F800224FF47041044802F00D
:10026C00F2F800BF1837BD4680BD00BF0010024039
:10027C00000C014080B500AF012000F051F80220C5
:10028C0001F0AEFB00BF80BD80B584B000AF03466B
:10029C000A46FB711346BB710F4BFB60FB79012BBC
:1002AC0001D90123FB71BB790F2B01D90F23BB7132
:1002BC00FB7910333B4413F8042CBB791344DBB2A9
:1002CC005BB263F07F035BB2DBB2184600F028F838
:1002DC0000BF1037BD4680BD0040145480B582B0BD
:1002EC0000AF786006E07B685A1C7A601B78184671
:1002FC0000F024F87B681B78002BF4D100BF00BF02
:10030C000837BD4680BD80B582B000AF0346FB7197
:10031C00FB79184600F012F800BF0837BD4680BDC7
:10032C0080B582B000AF0346FB71FB790021184603
:10033C0000F012F800BF0837BD4680BD80B582B012
:10034C0000AF0346FB71FB790121184600F004F85D
:10035C0000BF0837BD4680BD80B582B000AF0346F4
:10036C000A46FB711346BB71BB79002B14BF0123EA
:10037C000023DBB21A460121094802F064F8FB792C
:10038C001B09DBB2184600F00DF8FB7903F00F03E4
:10039C00DBB2184600F006F800BF0837BD4680BD3A
:1003AC00000C014080B582B000AF0346FB71FB79B5
:1003BC0003F00103DBB21A464FF48051164802F0E9
:1003CC0042F8FB795B10DBB203F00103DBB21A4697
:1003DC004FF40051104802F036F8FB799B10DBB259
:1003EC0003F00103DBB21A464FF480410A4802F0D5
:1003FC002AF8FB79DB10DBB203F00103DBB21A46FF
:10040C004FF40041044802F01EF800F007F800BF5A
:10041C000837BD4680BD00BF000C014080B582B0DE
:10042C0000AF01220221104802F00DF800237B607E
:10043C0002E07B6801337B607B68312BF9DD0022A5
:10044C000221094801F0FFFF00233B6002E03B68FA
:10045C0001333B603B68B3F57A7FF8DB00BF00BF2C
:10046C000837BD4680BD00BF000C014080B584B08C
:10047C0000AF786000210020FFF706FF0D48FFF762
:10048C002DFF7868FFF72AFF7868FFF759FE0346BF
:10049C000633FB6005E02020FFF735FFFB680133D6
:1004AC00FB60FB680F2BF6DD00BF00BF1037BD46AD
:1004BC0080BD00BF9847000880B58CB002AFF860D3
:1004CC00B9607A6000210120FFF7DEFE07F1100011
:1004DC007B680193BB680093FB680F4A112103F002
:1004EC0085FC07F110031846FFF7F8FE07F110031F
:1004FC001846FFF725FE03467B6205E02020FFF738
:10050C0002FF7B6A01337B627B6A0F2BF6DD00BF37
:10051C0000BF2837BD4680BDA047000880B582B01B
:10052C0000AF78600021054802F0CEFD044B01229B
:10053C001A6000BF0837BD4680BD00BF0C0100200B
:10054C007C03002080B588B000AF07F108030022BF
:10055C001A605A609A60DA602B4B9B692A4A43F006
:10056C0004039361284B9B6903F004037B607B6855
:10057C000023FB6123E0254AFB6932F81330BB6092
:10058C000123FB6000233B6102237B61204AFB6952
:10059C0052F8233007F108021146184601F0B8FD55
:1005AC001B4AFB6952F82300184AFB6932F81330D6
:1005BC000122194601F047FFFB690133FB61FB691E
:1005CC00032BD8DD0023BB6115E0124ABB6932F85E
:1005DC001330BB600023FB6001233B610E4ABB69F7
:1005EC0052F8233007F108021146184601F090FD2D
:1005FC00BB690133BB61BB69032BE6DD00BF00BFE8
:10060C002037BD4680BD00BF0010024044000020D2
:10061C00340000205C0000204C000020B0B58AB0F3
:10062C0000AF254B07F110041D460FCD0FC495E804
:10063C00030084E80300214B3C460FCB84E80F00F9
:10064C001F4B1B68052B09DC1D4B1B689B002833BB
:10065C003B4453F8183C1846FFF708FF184B1B682F
:10066C00012B08D1174B1B68174A126819461748FB
:10067C00FFF722FF1BE0124B1B68042B05D1002255
:10068C0000211348FFF718FF11E0124B1B68032BD6
:10069C000DDC104B1B689B0028333B4453F8283C63
:1006AC00084A1168084A12681846FFF705FF00BF90
:1006BC002837BD46B0BD00BF284800085C4800087C
:1006CC00740000207C00002080000020FC47000803
:1006DC00044800088003002080B584B000AF0023DC
:1006EC00FB6061E00023BB601FE0BA68FB689A42C4
:1006FC000CD1314ABB6852F82300304ABB6832F83F
:10070C0013300022194601F09EFE0BE02A4ABB680A
:10071C0052F82300294ABB6832F8133001221946DB
:10072C0001F091FEBB680133BB60BB68032BDCDDC1
:10073C00022001F055F900237B602FE0204A7B68F2
:10074C0052F823201F497B6831F8133019461046A4
:10075C0001F062FE0346002B1DD102E00A2001F0DD
:10076C003FF9174A7B6852F8232016497B6831F809
:10077C0013301946104601F04FFE0346002BEDD006
:10078C00322001F02DF9104AFB689B001A447B685B
:10079C0013441B780CE07B6801337B607B68032B74
:1007AC00CCDDFB680133FB60FB68032B9ADD002377
:1007BC0018461037BD4680BD340000204400002090
:1007CC004C0000205C0000206400002080B483B04A
:1007DC0000AF0346FB71FB79313B152B00F2BD805A
:1007EC0001A252F823F000BF4D0800089D08000834
:1007FC00B70800086709000861080008D10800085C
:10080C00F108000867090008750800086709000866
:10081C0067090008670900086709000867090008EC
:10082C006709000867090008110900086709000832
:10083C0067090008890800083909000853090008ED
:10084C004A4B00221A604A4B01221A60494B012282
:10085C001A6085E0454B01221A60454B01221A6053
:10086C00444B01221A607BE0404B02221A60404B41
:10087C0001221A603F4B01221A6071E03B4B0322AC
:10088C001A603B4B01221A603A4B01221A6067E056
:10089C00394B1B68012B04DD374B1B68013B364A77
:1008AC001360344B01221A605AE0334B1B68092B3E
:1008BC0004DC314B1B6801332F4A13602D4B012292
:1008CC001A604DE02D4B1B680A3B2C4A13602B4BD6
:1008DC001B68002B02DC294B01221A60254B0122DC
:1008EC001A603DE0254B1B680A33244A1360234BE6
:1008FC001B68642B02DD214B64221A601D4B012204
:10090C001A602DE0194B1B68012B28D01C4B1B685F
:10091C0001335A4203F0030302F0030258BF53425F
:10092C00174A1360134B01221A6018E00F4B052273
:10093C001A600F4B01221A60124B01221A600D4BE8
:10094C0001221A600CE0094B04221A60084B0122A8
:10095C001A60084B01221A6002E000BF00E000BFE1
:10096C0000BF0C37BD4680BC704700BF7400002030
:10097C0078000020300000207C0000208000002047
:10098C0080030020FC00002080B485B000AFF8602C
:10099C00B9607A603B60FB68D9B2104AFB6802F818
:1009AC0023107B68D9B20D4AFB689B0013440A469E
:1009BC005A70BB68D9B2094AFB689B0013440A46BB
:1009CC009A703B68D9B2054AFB689B0013440A46EF
:1009DC00DA7000BF1437BD4680BC70479C01002004
:1009EC0080B586B000AFF860B9607A6000237B6197
:1009FC0008E07B68BA68F9687869FFF7C5FF7B691E
:100A0C0001337B617B693B2BF3DD00BF00BF1837E3
:100A1C00BD4680BD80B485B000AF78607B68642B28
:100A2C0001DD64237B607B68002B01DA00237B6093
:100A3C000023FB602DE01B4AFB6812F823101A4AB6
:100A4C00FB6802F823100123BB601CE0154AFB680D
:100A5C009B001A44BB6813441B781A467B6802FB44
:100A6C0003F3124A82FB03125211DB17D31AD9B2C9
:100A7C000D4AFB689B001A44BB6813440A461A7063
:100A8C00BB680133BB60BB68032BDFDDFB68013344
:100A9C00FB60FB683B2BCEDD00BF00BF1437BD46AF
:100AAC0080BC70479C0100208C0200201F85EB51FC
:100ABC0080B586B000AF00237B6100233B6136E03C
:100ACC00394A3B699B0013445B781A0436493B69ED
:100ADC009B000B449B781B021A4333493B699B00D8
:100AEC000B44DB7813433B601723FB6019E00122B6
:100AFC00FB6802FA03F31A463B681340002B05D03F
:100B0C002A4A7B693C2122F8131004E0274A7B69AE
:100B1C001E2122F813107B6901337B61FB68013BBA
:100B2C00FB60FB68002BE2DA3B6901333B613B69FC
:100B3C003B2BC5DD0023BB600AE01C4A7B6900210E
:100B4C0022F813107B6901337B61BB680133BB60F6
:100B5C00BB68312BF1DD164B00221A607B699BB20E
:100B6C00124A0021134802F00DF9134B7B6002E08E
:100B7C007B68013B7B600E4B1B68002B02D17B68B2
:100B8C00002BF5D17B68002B06D10021094802F01F
:100B9C009BFA074B01221A60054B00221A6000BF1A
:100BAC001837BD4680BD00BF8C0200208403002096
:100BBC007C0300200C01002040420F0080B58AB05D
:100BCC0000AF78607B680A2B01DD0A237B607B68B1
:100BDC00002B01DC01237B6000237B62D4E000232B
:100BEC007B61AFE07B6AB3F5B47F01DB00237B62F2
:100BFC007A6A7B6913447B627B6A684A82FB0312C4
:100C0C001A445211DB17D31AFB607A6A634B83FBCD
:100C1C00021313445911D317C91A0B461B015B1A43
:100C2C009B00D31ABB60FB68052B78D801A252F845
:100C3C0023F000BF590C00087B0C00089F0C000827
:100C4C00C10C0008E50C0008070D0008FF233B62EF
:100C5C00BA6813461B029B1A504A82FB03121A44B1
:100C6C005211DB17D31AFB610023BB615EE0BA683B
:100C7C0013461B029B1A494A82FB03121A44521157
:100C8C00DB179B1AFF333B62FF23FB610023BB6125
:100C9C004CE000233B62FF23FB61BA6813461B0246
:100CAC009B1A3E4A82FB03121A445211DB17D31AC9
:100CBC00BB613BE000233B62BA6813461B029B1AE4
:100CCC00364A82FB03121A445211DB179B1AFF336C
:100CDC00FB61FF23BB6129E0BA6813461B029B1A18
:100CEC002E4A82FB03121A445211DB17D31A3B62B1
:100CFC000023FB61FF23BB6118E0FF233B62002351
:100D0C00FB61BA6813461B029B1A244A82FB03122E
:100D1C001A445211DB179B1AFF33BB6106E0FF2309
:100D2C003B620023FB610023BB6100BFBB69FA6916
:100D3C00396A7869FFF728FE012000F051FE7B69C3
:100D4C0001337B617B693B2B7FF74CAF144B1B68EA
:100D5C001846FFF75FFEFFF7ABFE0A227B6892FB9B
:100D6C00F3F3184600F03CFEFFF7B6FC0346FB74A9
:100D7C00FB7C002B05D0FB7C1846FFF727FDFFF70B
:100D8C004DFC7B6A24337B627B6AB3F5B47FFFF640
:100D9C0026AF00BF00BF2837BD4680BD8988888834
:100DAC008000002080B586B000AFF860B9607A6032
:100DBC003B60FB680A2B01DD0A23FB60FB68002B00
:100DCC0001DC0123FB600023002200213B20FFF704
:100DDC00DBFD01237B612AE03B687A68B96878699E
:100DEC00FFF7D2FD7B69581E002300220021FFF77C
:100DFC00CBFD134B1B681846FFF70CFEFFF758FE94
:100E0C001E22FB6892FBF3F3184600F0E9FDFFF796
:100E1C0063FC0346FB74FB7C002B05D0FB7C184663
:100E2C00FFF7D4FCFFF7FAFB7B6901337B617B692D
:100E3C003B2BD1DD00BF00BF1837BD4680BD00BFC6
:100E4C008000002080B582B000AF00237B6008E0FA
:100E5C000023002200217868FFF796FD7B680133A0
:100E6C007B607B683B2BF3DDFFF722FE00BF08376E
:100E7C00BD4680BD80B500AF4FF40041024801F083
:100E8C00CBFA0346184680BD0010014080B588B0EF
:100E9C0000AFFFF7EFFF0346FB7500F097FD3861DD
:100EAC00FB7D002B2DD0284B1B683A69D31A052BE0
:100EBC003FD9254A3B691360244B01221A70244AFE
:100ECC003B6913603B69DBB2FB603A6913465B001C
:100EDC001344DBB2BB603A691346DB009B1ADBB2EE
:100EEC007B600023FB6108E07B68BA68F968F869ED
:100EFC00FFF74AFDFB690133FB61FB693B2BF3DD1B
:100F0C0017E0134B1B683A69D31AC82B11D90F4B36
:100F1C0000221A700023BB6108E00023002200218C
:100F2C00B869FFF731FDBB690133BB61BB693B2B72
:100F3C00F3DD084B1B681846FFF76CFDFFF7B8FD97
:100F4C0000BF2037BD4680BD280F002008010020BF
:100F5C00040100208000002080B582B000AF4FF467
:100F6C0000410C4801F058FA0346FB71FB79002B49
:100F7C0006D001224FF40051064801F064FA05E056
:100F8C0000224FF40051034801F05DFA00BF08370E
:100F9C00BD4680BD0010014090B58BB002AF1E4B1A
:100FAC001B68052B33D1FFF765FF0346FB76002149
:100FBC000020FFF769F91948FFF790F9002101208B
:100FCC00FFF762F9FC7E00F001FD0346144AA2FB18
:100FDC0003239B09384600932346124A142102F03E
:100FEC0005FF3B461846FFF779F93B461846FFF7D5
:100FFC00A7F803467B617B69FB6105E02020FFF7C6
:10100C0082F9FB690133FB61FB690F2BF6DD00BF35
:10101C002437BD4690BD00BF740000208C480008EA
:10102C00D34D6210A0480008B0B584B000AF00F0FA
:10103C0075FC00F0C9F900F0CBFA00F0ABFA00F047
:10104C0009FAFFF77FFAFFF783F8FFF713F900218E
:10105C000020FFF719F9B848FFF740F900210120EB
:10106C00FFF712F9B548FFF739F940F6B83000F040
:10107C00B7FCFFF7FFF8B248FFF7F8F94FF4FA6046
:10108C0000F0AEFC002200210020FFF7A9FC00209C
:10109C00FFF7C0FCFFF70CFDFFF7C0FAFFF71CFBD6
:1010AC000346FB71FB79002B0AD0FB791846FFF73E
:1010BC008DFBFFF7B3FA00F089FC0346A14A1360DD
:1010CC0000F084FC02469F4B1B68D31AB3F5FA7FE1
:1010DC0006D9FFF7A3FA00F079FC0346994A13608E
:1010EC00994B1B68052B00F25F8101A252F823F08B
:1010FC0015110008FD110008091200084F12000814
:10110C001513000869130008904B1A689049134690
:10111C005B0013449B000B4418688C4B1A688C4979
:10112C0013465B0013449B000B4404331968874B34
:10113C001A68874C13465B0013449B002344083306
:10114C001B681A46FFF74CFC0023FB6021E0F86893
:10115C00FFF760FCFFF7ACFC7E4B1B68322292FB66
:10116C00F3F3184600F03CFCFFF7B6FA03467B702D
:10117C007B78002B0AD07B781846FFF727FBFFF70C
:10118C004DFA00F023FC03466E4A1360FB680233F1
:10119C00FB60714B1B68FA689A42D8DD6E4B1B687A
:1011AC00BB6021E0B868FFF735FCFFF781FC694BA9
:1011BC001B68322292FBF3F3184600F011FCFFF788
:1011CC008BFA0346BB70BB78002B0AD0BB78184651
:1011DC00FFF7FCFAFFF722FA00F0F8FB0346594A36
:1011EC001360BB68023BBB60BB68002BDADAE6E03D
:1011FC00584B1B681846FFF7E1FCE0E0554B1868AC
:10120C00524B1A68524913465B0013449B000B4423
:10121C0019684E4B1A684E4C13465B0013449B00E6
:10122C00234404331C68494B1A68494D13465B0030
:10123C0013449B002B4408331B682246FFF7B2FD76
:10124C00BDE0424B1A68424913465B0013449B00B5
:10125C000B4418683D4B1A683D4913465B00134418
:10126C009B000B4404331968384B1A68384C1346EE
:10127C005B0013449B00234408331B681A46FFF79A
:10128C00AFFB354B1B681846FFF7C4FBFFF710FC90
:10129C00304B1B684FF4967292FBF3F3184600F038
:1012AC009FFBFFF719FA03463B713B79002B0AD0E1
:1012BC003B791846FFF78AFAFFF7B0F900F086FB86
:1012CC000346204A13600020FFF7A4FBFFF7F0FB56
:1012DC00204B1B684FF4967292FBF3F3184600F008
:1012EC007FFBFFF7F9F90346FB70FB78002B61D00D
:1012FC00FB781846FFF76AFAFFF790F900F066FBE7
:10130C000346104A136055E0FFF79CFD642000F083
:10131C0067FBFFF7E1F903467B717B79002B4BD020
:10132C007B791846FFF752FAFFF778F900F04EFB7D
:10133C000346044A13603FE0B0480008C048000868
:10134C00D048000898010020740000208003002081
:10135C00000000207C0000208000002000F036FB04
:10136C000246174B1B68D31A322B0AD9FFF714FE0F
:10137C00FFF7F2FDFFF78AFD00F028FB0346104A49
:10138C001360FFF7A9F90346BB71BB79002B15D08D
:10139C00BB791846FFF71AFAFFF740F900F016FB75
:1013AC000346084A136009E0FFF74CFD642000F087
:1013BC0017FB04E000BF71E600BF6FE600BF6DE6EF
:1013CC00000100209801002080B590B000AF07F11B
:1013DC00180328220021184602F03EFD3B1D002276
:1013EC001A605A609A60DA601A610123BB614FF48B
:1013FC008033FB6100233B620123BB6202237B63CE
:10140C004FF48033BB634FF4E013FB6307F1180315
:10141C00184601F031F80346002B01D000F030F9EA
:10142C000F237B600223BB600023FB604FF48063BF
:10143C003B6100237B613B1D0221184601F09EFAA3
:10144C000346002B01D000F01BF900BF4037BD460E
:10145C0080BD000080B596B000AF07F148030022B4
:10146C001A605A609A60DA6007F1400300221A6031
:10147C005A6007F1240300221A605A609A60DA60FD
:10148C001A615A619A613B1D20220021184602F014
:10149C00E3FC3E4B3E4A1A603C4B00225A603B4BED
:1014AC0000229A60394B5922DA60384B00221A61BB
:1014BC00364B00225A61354B00229A61334801F0B9
:1014CC00B9FB0346002B01D000F0DAF84FF480533F
:1014DC00BB6407F1480319462C4801F07DFF034615
:1014EC00002B01D000F0CCF8284801F0F2FB0346A9
:1014FC00002B01D000F0C4F800233B6400237B6474
:10150C0007F140031946214802F0C0FB0346002BAB
:10151C0001D000F0B5F860237B620023BB6200238E
:10152C00FB6200233B6300237B630023BB6300232C
:10153C00FB6307F1240300221946144801F08AFECC
:10154C000346002B01D000F09BF800237B600023A6
:10155C00BB600023FB6000233B6100237B614FF4E5
:10156C000053BB6100233B623B1D1946074802F048
:10157C00EBFB0346002B01D000F082F8034800F08F
:10158C0001F900BF5837BD4680BD00BF0C010020DB
:10159C00002C014080B582B000AF0C4B5B690B4A4C
:1015AC0043F001035361094B5B6903F001037B605A
:1015BC007B68002200210C2000F00DFB0C2000F0B9
:1015CC0026FB00BF0837BD4680BD00BF001002409F
:1015DC0080B588B000AF07F1100300221A605A6082
:1015EC009A60DA60244B9B69234A43F010039361A1
:1015FC00214B9B6903F01003FB60FB681E4B9B693E
:10160C001D4A43F0200393611B4B9B6903F020039D
:10161C00BB60BB68184B9B69174A43F0040393618A
:10162C00154B9B6903F004037B607B6800224FF42D
:10163C000051124800F007FF4FF400533B610123A7
:10164C007B610023BB610223FB6107F11003194688
:10165C000A4800F05DFD4FF400433B6100237B61C1
:10166C000223BB6107F110031946044800F050FD3A
:10167C0000BF2037BD4680BD001002400010014065
:10168C0080B400AF72B600BF00BFFDE780B485B078
:10169C0000AF154B9B69144A43F001039361124B45
:1016AC009B6903F00103BB60BB680F4BDB690E4AFF
:1016BC0043F08053D3610C4BDB6903F080537B60A8
:1016CC007B680A4B5B68FB60FB6823F0E063FB60A4
:1016DC00FB6843F00073FB60044AFB68536000BF77
:1016EC001437BD4680BC704700100240000001401A
:1016FC0080B584B000AF78607B681B681D4A93424C
:10170C0033D11D4B9B691C4A43F4006393611A4B04
:10171C009B6903F40063FB60FB68184B184A1A6062
:10172C00164B10225A60154B00229A60134B8022E4
:10173C00DA60124B4FF480721A61104B4FF48062D6
:10174C005A610E4B00229A610C4B0022DA610B4855
:10175C0000F078FA0346002B01D0FFF791FF7B686D
:10176C00064A5A62054A7B68536200BF1037BD4671
:10177C0080BD00BF002C014000100240540100202D
:10178C001C00024080B588B000AF786007F11003F0
:10179C0000221A605A609A60DA607B681B68104AF3
:1017AC00934218D10F4B9B690E4A43F0040393618B
:1017BC000C4B9B6903F00403FB60FB684FF48073D4
:1017CC003B6102237B610223FB6107F11003194685
:1017DC00054800F09DFC00BF2037BD4680BD00BF12
:1017EC00002C0140001002400008014080B400AF02
:1017FC0000BFFDE780B400AF00BFFDE780B400AFD1
:10180C0000BFFDE780B400AF00BFFDE780B400AFC0
:10181C0000BFFDE780B400AF00BFBD4680BC704781
:10182C0080B400AF00BFBD4680BC704780B400AF31
:10183C0000BFBD4680BC704780B500AF00F0B4F867
:10184C0000BF80BD80B500AF024800F02DFB00BF8B
:10185C0080BD00BF5401002080B586B000AF786019
:10186C00144A154BD31A7B617B693B61134B1B6884
:10187C00002B02D1114B124A1A60104B1A687B686C
:10188C0013443A699A4207D202F0EEFA03460C224C
:10189C001A604FF0FF3309E0084B1B68FB60074BE5
:1018AC001A687B681344054A1360FB68184618379E
:1018BC00BD4680BD00500020000400002C0F00200D
:1018CC008010002080B400AF00BFBD4680BC7047C4
:1018DC00FFF7F8FF0B480C490C4A002302E0D458E0
:1018EC00C4500433C4188C42F9D3094A094C002360
:1018FC0001E013600432A242FBD302F0BBFAFFF703
:10190C0093FB704700000020E000002044490008D1
:10191C00E00000207C100020FEE7000080B500AF46
:10192C00084B1B68074A43F010031360032000F0B8
:10193C0047F90F2000F008F8FFF7A8FE002318461F
:10194C0080BD00BF0020024080B582B000AF78603F
:10195C00124B1A68124B1B7819464FF47A73B3FB6F
:10196C00F1F3B2FBF3F3184600F05FF90346002BDA
:10197C0001D001230EE07B680F2B0AD80022796876
:10198C004FF0FF3000F027F9064A7B681360002304
:10199C0000E0012318460837BD4680BD84000020B6
:1019AC008C0000208800002080B400AF054B1B7811
:1019BC001A46054B1B681344034A136000BFBD460F
:1019CC0080BC70478C000020300F002080B400AF2A
:1019DC00024B1B681846BD4680BC7047300F002078
:1019EC0080B584B000AF7860FFF7F0FFB8607B681B
:1019FC00FB60FB68B3F1FF3F05D00A4B1B781A461E
:101A0C00FB681344FB6000BFFFF7E0FF0246BB68B6
:101A1C00D31AFA689A42F7D800BF00BF1037BD46F8
:101A2C0080BD00BF8C00002080B485B000AF786012
:101A3C007B6803F00703FB600C4BDB68BB60BA6888
:101A4C004FF6FF031340BB60FB681A02BB681343DD
:101A5C0043F0BF6343F40033BB60044ABB68D360FC
:101A6C0000BF1437BD4680BC704700BF00ED00E0DE
:101A7C0080B400AF044BDB681B0A03F00703184665
:101A8C00BD4680BC704700BF00ED00E080B483B061
:101A9C0000AF0346FB7197F90730002B0BDBFB798A
:101AAC0003F01F02064997F907305B09012000FA81
:101ABC0002F241F8232000BF0C37BD4680BC7047B2
:101ACC0000E100E080B483B000AF03463960FB71E5
:101ADC0097F90730002B0ADB3B68DAB20C4997F90F
:101AEC0007301201D2B20B4483F800230AE03B68A2
:101AFC00DAB20849FB7903F00F03043B1201D2B2AE
:101B0C000B441A7600BF0C37BD4680BC704700BF33
:101B1C0000E100E000ED00E080B489B000AFF860B7
:101B2C00B9607A60FB6803F00703FB61FB69C3F1E2
:101B3C000703042B28BF0423BB61FB690433062B6A
:101B4C0002D9FB69033B00E000237B614FF0FF32BD
:101B5C00BB6902FA03F3DA43BB681A407B699A400B
:101B6C004FF0FF317B6901FA03F3D9437B680B40DB
:101B7C00134318462437BD4680BC704780B582B0ED
:101B8C0000AF78607B68013BB3F1807F01D3012308
:101B9C000FE00A4A7B68013B53600F214FF0FF3086
:101BAC00FFF790FF054B00229A60044B07221A6046
:101BBC00002318460837BD4680BD00BF10E000E08A
:101BCC0080B582B000AF78607868FFF72DFF00BF5A
:101BDC000837BD4680BD80B586B000AF0346B960FE
:101BEC007A60FB7300237B61FFF742FF78617A68B0
:101BFC00B9687869FFF790FF024697F90F301146E4
:101C0C001846FFF75FFF00BF1837BD4680BD80B593
:101C1C0082B000AF0346FB7197F907301846FFF707
:101C2C0035FF00BF0837BD4680BD80B582B000AF20
:101C3C0078607868FFF7A2FF034618460837BD4660
:101C4C0080BD000080B485B000AF78600023FB60DD
:101C5C007B68002B01D1012343E07B681B681A468B
:101C6C00224B1344224AA2FB03231B099A007B68D4
:101C7C001A647B681F4ADA637B68022283F821208E
:101C8C007B681B681B68FB60FB6823F47F5323F0A5
:101C9C003003FB607B685A687B689B681A437B68DF
:101CAC00DB681A437B681B691A437B685B691A43C0
:101CBC007B689B691A437B68DB691343FA6813439F
:101CCC00FB607B681B68FA681A607B6800229A6369
:101CDC007B68012283F821207B68002283F8202076
:101CEC00002318461437BD4680BC7047F8FFFDBF73
:101CFC00CDCCCCCC0000024080B586B000AFF860F3
:101D0C00B9607A603B600023FB75FB6893F8203068
:101D1C00012B01D102234BE0FB68012283F8202028
:101D2C00FB6893F82130DBB2012B3AD1FB6802221D
:101D3C0083F82120FB6800229A63FB681B681A68F1
:101D4C00FB681B6822F001021A603B687A68B9686C
:101D5C00F86800F0AFF9FB68DB6A002B08D0FB6871
:101D6C001B681A68FB681B6842F00E021A600FE0D1
:101D7C00FB681B681A68FB681B6822F004021A6077
:101D8C00FB681B681A68FB681B6842F00A021A6041
:101D9C00FB681B681A68FB681B6842F001021A603A
:101DAC0005E0FB68002283F820200223FB75FB7DF5
:101DBC0018461837BD4680BD80B584B000AF78603A
:101DCC000023FB737B6893F82130DBB2022B05D028
:101DDC007B6804229A630123FB7351E07B681B68C8
:101DEC001A687B681B6822F00E021A607B681B68FD
:101DFC001A687B681B6822F001021A607B681B68FA
:101E0C00224A934229D07B681B68214A934222D0F4
:101E1C007B681B681F4A93421AD07B681B681E4A5A
:101E2C00934212D07B681B681C4A93420AD07B6891
:101E3C001B681B4A934202D14FF480130EE04FF003
:101E4C0080730BE04FF4803308E04FF4805305E0CF
:101E5C004FF4807302E0102300E00123114A536019
:101E6C007B68012283F821207B68002283F82020E4
:101E7C007B685B6B002B03D07B685B6B7868984747
:101E8C00FB7B18461037BD4680BD00BF08000240E2
:101E9C001C00024030000240440002405800024046
:101EAC006C0002400000024080B584B000AF786046
:101EBC007B68DB6B1B68FB607B681B681B68BB600B
:101ECC007B681B6C04229A40FB681340002B4FD09C
:101EDC00BB6803F00403002B4AD07B681B681B68AB
:101EEC0003F02003002B07D17B681B681A687B6802
:101EFC001B6822F004021A607B681B68664A9342D6
:101F0C0029D07B681B68654A934222D07B681B688A
:101F1C00634A93421AD07B681B68624A934212D080
:101F2C007B681B68604A93420AD07B681B685F4AD7
:101F3C00934202D14FF480030EE04FF080630BE02C
:101F4C004FF4802308E04FF4804305E04FF48063A6
:101F5C0002E0402300E00423554A53607B68DB6AAF
:101F6C00002B00F094807B68DB6A786898478EE0E1
:101F7C007B681B6C02229A40FB681340002B56D0E6
:101F8C00BB6803F00203002B51D07B681B681B68F5
:101F9C0003F02003002B0BD17B681B681A687B684D
:101FAC001B6822F00A021A607B68012283F8212048
:101FBC007B681B68384A934229D07B681B68374A78
:101FCC00934222D07B681B68354A93421AD07B68B7
:101FDC001B68344A934212D07B681B68324A934286
:101FEC000AD07B681B68314A934202D14FF400132C
:101FFC000EE04FF000730BE04FF4003308E04FF4A9
:10200C00005305E04FF4007302E0202300E00223AC
:10201C00274A53607B68002283F820207B689B6AE8
:10202C00002B34D07B689B6A786898472FE07B68DC
:10203C001B6C08229A40FB681340002B28D0BB680D
:10204C0003F00803002B23D07B681B681A687B689D
:10205C001B6822F00E021A607B681A6C7B68DB6BC3
:10206C00012101FA02F25A607B6801229A637B68B3
:10207C00012283F821207B68002283F820207B68D2
:10208C001B6B002B04D07B681B6B7868984700BFD8
:10209C0000BF1037BD4680BD080002401C00024046
:1020AC003000024044000240580002406C000240E4
:1020BC000000024080B485B000AFF860B9607A606F
:1020CC003B60FB681A6CFB68DB6B012101FA02F2C6
:1020DC005A60FB681B683A685A60FB685B68102B97
:1020EC0008D1FB681B687A689A60FB681B68BA6841
:1020FC00DA6007E0FB681B68BA689A60FB681B68CB
:10210C007A68DA6000BF1437BD4680BC70470000A7
:10211C0080B48BB000AF7860396000237B62002301
:10212C003B6269E101227B6A02FA03F3FB613B68C3
:10213C001B68FA691340BB61BA69FB699A4240F0AB
:10214C0058813B685B689A4A93425ED0984A9342A6
:10215C0075D8984A934258D0964A93426FD8964A6B
:10216C00934252D0944A934269D8944A93424CD0A9
:10217C00924A934263D8924A934246D0904A9342F1
:10218C005DD8122B2AD8122B59D801A252F823F061
:10219C0017220008F121000803220008452200083C
:1021AC004B2200084B2200084B2200084B2200084F
:1021BC004B2200084B2200084B2200084B2200083F
:1021CC004B2200084B2200084B2200084B2200082F
:1021DC004B220008F92100080D220008794A93428D
:1021EC0013D02CE03B68DB683B6229E03B68DB6882
:1021FC0004333B6224E03B68DB6808333B621FE03E
:10220C003B68DB680C333B621AE03B689B68002B35
:10221C0002D104233B6213E03B689B68012B05D180
:10222C0008233B627B68FA691A6109E008233B6268
:10223C007B68FA695A6103E000233B6200E000BF4F
:10224C00BB69FF2B01D87B6801E07B6804337B61A1
:10225C00BB69FF2B02D87B6A9B0002E07B6A083BC0
:10226C009B003B617B691A680F213B6901FA03F300
:10227C00DB431A40396A3B6901FA03F31A437B6961
:10228C001A603B685B6803F08053002B00F0B18050
:10229C004D4B9B694C4A43F0010393614A4B9B693C
:1022AC0003F00103BB60BB68484A7B6A9B0802339E
:1022BC0052F82330FB607B6A03F003039B000F2270
:1022CC0002FA03F3DB43FA681340FB607B68404A75
:1022DC00934213D07B683F4A93420DD07B683E4AB1
:1022EC00934207D07B683D4A934201D1032306E019
:1022FC00042304E0022302E0012300E000237A6AB5
:10230C0002F0030292009340FA681343FB602F49DA
:10231C007B6A9B080233FA6841F823203B685B68B0
:10232C0003F48013002B06D02D4B9A682C49BB6903
:10233C0013438B6006E02A4B9A68BB69DB43284940
:10234C0013408B603B685B6803F40013002B06D0D2
:10235C00234BDA682249BB691343CB6006E0204B60
:10236C00DA68BB69DB431E491340CB603B685B6892
:10237C0003F40033002B06D0194B5A681849BB697B
:10238C0013434B6006E0164B5A68BB69DB43144998
:10239C0013404B603B685B6803F48033002B21D007
:1023AC000F4B1A680E49BB6913430B6021E000BF49
:1023BC00000032100000311000002210000021102B
:1023CC00000012100000111000100240000001402B
:1023DC0000080140000C01400010014000140140B5
:1023EC00000401400B4B1A68BB69DB4309491340DD
:1023FC000B607B6A01337B623B681A687B6A22FA4A
:10240C0003F3002B7FF48EAE00BF00BF2C37BD460C
:10241C0080BC70470004014080B485B000AF786088
:10242C000B467B807B689A687B881340002B02D01C
:10243C000123FB7301E00023FB73FB7B184614376D
:10244C00BD4680BC704780B483B000AF78600B464B
:10245C007B8013467B707B78002B03D07A887B685B
:10246C001A6103E07B881A047B681A6100BF0C3781
:10247C00BD4680BC7047000080B586B000AF786068
:10248C007B68002B01D1012372E27B681B6803F08F
:10249C000103002B00F08780924B5B6803F00C0368
:1024AC00042B0CD08F4B5B6803F00C03082B12D160
:1024BC008C4B5B6803F48033B3F5803F0BD1894BB5
:1024CC001B6803F40033002B6CD07B685B68002B1B
:1024DC0068D101234CE27B685B68B3F5803F06D181
:1024EC00804B1B687F4A43F4803313602EE07B687B
:1024FC005B68002B0CD17B4B1B687A4A23F480332E
:10250C001360784B1B68774A23F4802313601DE01B
:10251C007B685B68B3F5A02F0CD1724B1B68714ABA
:10252C0043F4802313606F4B1B686E4A43F4803373
:10253C0013600BE06B4B1B686A4A23F48033136007
:10254C00684B1B68674A23F4802313607B685B68C5
:10255C00002B13D0FFF73AFA386108E0FFF736FA90
:10256C0002463B69D31A642B01D9032300E25D4B6D
:10257C001B6803F40033002BF0D014E0FFF726FAAD
:10258C00386108E0FFF722FA02463B69D31A642B44
:10259C0001D90323ECE1534B1B6803F40033002BEC
:1025AC00F0D100E000BF7B681B6803F00203002B36
:1025BC0063D04C4B5B6803F00C03002B0BD0494BE6
:1025CC005B6803F00C03082B1CD1464B5B6803F4CF
:1025DC008033002B16D1434B1B6803F00203002BF6
:1025EC0005D07B681B69012B01D00123C0E13D4B59
:1025FC001B6823F0F8027B685B69DB0039491343E5
:10260C000B603AE07B681B69002B20D0364B012213
:10261C001A60FFF7DBF9386108E0FFF7D7F90246DB
:10262C003B69D31A022B01D90323A1E12D4B1B6863
:10263C0003F00203002BF0D02A4B1B6823F0F802A6
:10264C007B685B69DB00274913430B6015E0264B65
:10265C0000221A60FFF7BAF9386108E0FFF7B6F903
:10266C0002463B69D31A022B01D9032380E11D4B8F
:10267C001B6803F00203002BF0D17B681B6803F08E
:10268C000803002B3AD07B689B69002B19D0174BA1
:10269C0001221A60FFF79AF9386108E0FFF796F902
:1026AC0002463B69D31A022B01D9032360E10D4B7F
:1026BC005B6A03F00203002BF0D0012000F09CFABF
:1026CC001CE00A4B00221A60FFF780F938610FE01A
:1026DC00FFF77CF902463B69D31A022B08D9032376
:1026EC0046E100BF0010024000004242800442421A
:1026FC00924B5B6A03F00203002BE9D17B681B68E9
:10270C0003F00403002B00F0A6800023FB758B4B19
:10271C00DB6903F08053002B0DD1884BDB69874AB2
:10272C0043F08053D361854BDB6903F08053BB606E
:10273C00BB680123FB75824B1B6803F48073002B71
:10274C0018D17F4B1B687E4A43F480731360FFF7EC
:10275C003DF9386108E0FFF739F902463B69D31AB5
:10276C00642B01D9032303E1754B1B6803F48073BD
:10277C00002BF0D07B68DB68012B06D16F4B1B6AFA
:10278C006E4A43F0010313622DE07B68DB68002B7B
:10279C000CD16A4B1B6A694A23F001031362674B25
:1027AC001B6A664A23F0040313621CE07B68DB6837
:1027BC00052B0CD1614B1B6A604A43F00403136276
:1027CC005E4B1B6A5D4A43F0010313620BE05B4BEB
:1027DC001B6A5A4A23F001031362584B1B6A574A6F
:1027EC0023F0040313627B68DB68002B15D0FFF722
:1027FC00EDF838610AE0FFF7E9F802463B69D31AB5
:10280C0041F28832934201D90323B1E04B4B1B6A4E
:10281C0003F00203002BEED014E0FFF7D7F8386179
:10282C000AE0FFF7D3F802463B69D31A41F288322B
:10283C00934201D903239BE0404B1B6A03F0020334
:10284C00002BEED1FB7D012B05D13C4BDB693B4AC8
:10285C0023F08053D3617B68DB69002B00F0878009
:10286C00364B5B6803F00C03082B61D07B68DB698B
:10287C00022B46D1334B00221A60FFF7A7F83861C0
:10288C0008E0FFF7A3F802463B69D31A022B01D9E3
:10289C0003236DE0294B1B6803F00073002BF0D170
:1028AC007B681B6AB3F5803F08D1244B5B6823F42B
:1028BC0000327B689B68214913434B601F4B5B685C
:1028CC0023F474127B68196A7B685B6A0B431B499F
:1028DC0013434B601B4B01221A60FFF777F83861EA
:1028EC0008E0FFF773F802463B69D31A022B01D9B3
:1028FC0003233DE0114B1B6803F00073002BF0D059
:10290C0035E0104B00221A60FFF760F8386108E0E0
:10291C00FFF75CF802463B69D31A022B01D903235B
:10292C0026E0064B1B6803F00073002BF0D11EE071
:10293C007B68DB69012B07D1012319E000100240F1
:10294C0000700040600042420B4B5B68FB60FB6810
:10295C0003F480327B681B6A9A4206D1FB6803F44D
:10296C0070127B685B6A9A4201D0012300E000235D
:10297C0018461837BD4680BD0010024080B584B0A3
:10298C0000AF786039607B68002B01D10123D0E067
:10299C006A4B1B6803F007033A689A4210D9674BDD
:1029AC001B6823F0070265493B6813430B60634BBC
:1029BC001B6803F007033A689A4201D00123B8E080
:1029CC007B681B6803F00203002B20D07B681B681C
:1029DC0003F00403002B05D0594B5B68584A43F4B1
:1029EC00E06353607B681B6803F00803002B05D081
:1029FC00534B5B68524A43F460535360504B5B68D3
:102A0C0023F0F0027B689B684D4913434B607B6855
:102A1C001B6803F00103002B40D07B685B68012B23
:102A2C0007D1474B1B6803F40033002B15D101234E
:102A3C007FE07B685B68022B07D1414B1B6803F07E
:102A4C000073002B09D1012373E03D4B1B6803F08D
:102A5C000203002B01D101236BE0394B5B6823F09F
:102A6C0003027B685B68364913434B60FEF7AEFF8D
:102A7C00F8600AE0FEF7AAFF0246FB68D31A41F29F
:102A8C008832934201D9032353E02D4B5B6803F04A
:102A9C000C027B685B689B009A42EBD1274B1B684E
:102AAC0003F007033A689A4210D2244B1B6823F0B8
:102ABC00070222493B6813430B60204B1B6803F051
:102ACC0007033A689A4201D0012332E07B681B6805
:102ADC0003F00403002B08D0194B5B6823F4E0626D
:102AEC007B68DB68164913434B607B681B6803F0FB
:102AFC000803002B09D0124B5B6823F460527B68EF
:102B0C001B69DB000E4913434B6000F021F80246B1
:102B1C000B4B5B681B0903F00F030A49CB5C22FAD1
:102B2C0003F3094A1360094B1B681846FEF70CFFA8
:102B3C00002318461037BD4680BD00BF0020024060
:102B4C0000100240DC4800088400002088000020AF
:102B5C0080B487B000AF0023FB600023BB60002370
:102B6C007B6100237B6000233B611E4B5B68FB6039
:102B7C00FB6803F00C03042B02D0082B03D027E0D6
:102B8C00194B3B6127E0FB689B0C03F00F03174AC2
:102B9C00D35C7B60FB6803F48033002B10D0114BAB
:102BAC005B685B0C03F00103114AD35CBB607B6870
:102BBC000D4A03FB02F2BB68B2FBF3F37B6104E04A
:102BCC007B680C4A02FB03F37B617B693B6102E08F
:102BDC00054B3B6100BF3B6918461C37BD4680BCAA
:102BEC00704700BF0010024000127A00EC48000849
:102BFC00FC48000800093D0080B485B000AF786047
:102C0C000A4B1B680A4AA2FB03235B0A7A6802FB85
:102C1C0003F3FB6000BFFB685A1EFA60002BF9D16E
:102C2C0000BF00BF1437BD4680BC70478400002035
:102C3C00D34D621080B582B000AF78607B68002BFA
:102C4C0001D1012341E07B6893F83D30DBB2002BCE
:102C5C0006D17B68002283F83C207868FEF748FD9B
:102C6C007B68022283F83D207B681A687B680433FA
:102C7C001946104600F05AFD7B68012283F8462065
:102C8C007B68012283F83E207B68012283F83F2079
:102C9C007B68012283F840207B68012283F8412065
:102CAC007B68012283F842207B68012283F8432051
:102CBC007B68012283F844207B68012283F845203D
:102CCC007B68012283F83D20002318460837BD4657
:102CDC0080BD80B582B000AF78607B68002B01D1DD
:102CEC00012341E07B6893F83D30DBB2002B06D129
:102CFC007B68002283F83C20786800F039F87B6808
:102D0C00022283F83D207B681A687B6804331946DD
:102D1C00104600F00BFD7B68012283F846207B688F
:102D2C00012283F83E207B68012283F83F207B68D8
:102D3C00012283F840207B68012283F841207B68C4
:102D4C00012283F842207B68012283F843207B68B0
:102D5C00012283F844207B68012283F845207B689C
:102D6C00012283F83D20002318460837BD4680BD5C
:102D7C0080B483B000AF786000BF0C37BD4680BC18
:102D8C007047000080B586B000AFF860B9607A601B
:102D9C007B800023FB75BB68002B09D1FB6893F883
:102DAC003E30DBB2022B0CBF01230023DBB222E04E
:102DBC00BB68042B09D1FB6893F83F30DBB2022BC4
:102DCC000CBF01230023DBB215E0BB68082B09D133
:102DDC00FB6893F84030DBB2022B0CBF01230023BD
:102DEC00DBB208E0FB6893F84130DBB2022B0CBF7E
:102DFC0001230023DBB2002B01D0022353E1BB687B
:102E0C00002B09D1FB6893F83E30DBB2012B0CBFD1
:102E1C0001230023DBB222E0BB68042B09D1FB6841
:102E2C0093F83F30DBB2012B0CBF01230023DBB244
:102E3C0015E0BB68082B09D1FB6893F84030DBB276
:102E4C00012B0CBF01230023DBB208E0FB6893F8D5
:102E5C004130DBB2012B0CBF01230023DBB2002B72
:102E6C0024D07B68002B02D07B88002B01D101235E
:102E7C0019E1BB68002B04D1FB68022283F83E20C9
:102E8C0016E0BB68042B04D1FB68022283F83F20B8
:102E9C000EE0BB68082B04D1FB68022283F84020AB
:102EAC0006E0FB68022283F8412001E00123FAE0EE
:102EBC00BB680C2B00F2AE8001A252F823F000BFCD
:102ECC00012F0008213000082130000821300008B3
:102EDC00492F00082130000821300008213000085B
:102EEC00912F000821300008213000082130000803
:102EFC00D92F0008FB685B6A6D4A9A62FB685B6AB3
:102F0C006C4ADA62FB685B6A6B4A1A63FB68586A44
:102F1C007968FB681B6834331A467B88FEF7ECFE35
:102F2C000346002B01D00123BDE0FB681B68DA6867
:102F3C00FB681B6842F40072DA606EE0FB689B6A07
:102F4C005B4A9A62FB689B6A5A4ADA62FB689B6A24
:102F5C00594A1A63FB68986A7968FB681B683833AE
:102F6C001A467B88FEF7C8FE0346002B01D00123CE
:102F7C0099E0FB681B68DA68FB681B6842F48062A6
:102F8C00DA604AE0FB68DB6A494A9A62FB68DB6AF2
:102F9C00484ADA62FB68DB6A474A1A63FB68D86AFC
:102FAC007968FB681B683C331A467B88FEF7A4FEE5
:102FBC000346002B01D0012375E0FB681B68DA681F
:102FCC00FB681B6842F40062DA6026E0FB681B6B4E
:102FDC00374A9A62FB681B6B364ADA62FB681B6BDA
:102FEC00354A1A63FB68186B7968FB681B684033B9
:102FFC001A467B88FEF780FE0346002B01D0012386
:10300C0051E0FB681B68DA68FB681B6842F480526D
:10301C00DA6002E00123FB7500BFFB7D002B41D180
:10302C00FB681B680122B968184600F00BFEFB68B0
:10303C001B68224A934207D1FB681B685A6CFB68D9
:10304C001B6842F400425A64FB681B681B4A93429B
:10305C000ED0FB681B68B3F1804F09D0FB681B686E
:10306C00174A934204D0FB681B68164A934211D14D
:10307C00FB681B689B6803F007033B613B69062BED
:10308C0010D0FB681B681A68FB681B6842F00102D1
:10309C001A6007E0FB681B681A68FB681B6842F043
:1030AC0001021A60FB7D18461837BD4680BD00BF73
:1030BC0029360008D136000897350008002C01404D
:1030CC00000400400008004080B584B000AF786078
:1030DC0039600023FB733B680C2B55D801A252F8C6
:1030EC0023F000BF25310008953100089531000808
:1030FC0095310008413100089531000895310008E0
:10310C00953100085D3100089531000895310008B3
:10311C0095310008793100087B681B68DA687B6898
:10312C001B6822F40072DA607B685B6A1846FEF753
:10313C0043FE2CE07B681B68DA687B681B6822F412
:10314C008062DA607B689B6A1846FEF735FE1EE0EB
:10315C007B681B68DA687B681B6822F40062DA60A3
:10316C007B68DB6A1846FEF727FE10E07B681B685D
:10317C00DA687B681B6822F48052DA607B681B6B10
:10318C001846FEF719FE02E00123FB7300BFFB7B20
:10319C00002B57D17B681B6800223968184600F059
:1031AC0051FD7B681B682A4A934217D17B681B68C8
:1031BC001A6A41F211131340002B0FD17B681B6864
:1031CC001A6A40F244431340002B07D17B681B68FA
:1031DC005A6C7B681B6822F400425A647B681B683B
:1031EC001A6A41F211131340002B0FD17B681B6834
:1031FC001A6A40F244431340002B07D17B681B68CA
:10320C001A687B681B6822F001021A603B68002B6D
:10321C0004D17B68012283F83E2013E03B68042B29
:10322C0004D17B68012283F83F200BE03B68082B1C
:10323C0004D17B68012283F8402003E07B680122E3
:10324C0083F84120FB7B18461037BD4680BD00BF7C
:10325C00002C014080B586B000AFF860B9607A6090
:10326C000023FB75FB6893F83C30012B01D1022342
:10327C00AEE0FB68012283F83C207B680C2B00F24B
:10328C009F8001A252F823F0C9320008CD33000808
:10329C00CD330008CD33000809330008CD330008C6
:1032AC00CD330008CD3300084B330008CD33000874
:1032BC00CD330008CD3300088B330008FB681B6846
:1032CC00B968184600F0A0FAFB681B689A69FB689D
:1032DC001B6842F008029A61FB681B689A69FB68DC
:1032EC001B6822F004029A61FB681B689969BB6831
:1032FC001A69FB681B680A439A6164E0FB681B68E7
:10330C00B968184600F0E6FAFB681B689A69FB6816
:10331C001B6842F400629A61FB681B689A69FB683F
:10332C001B6822F480629A61FB681B689969BB6810
:10333C001B691A02FB681B680A439A6143E0FB682D
:10334C001B68B968184600F02FFBFB681B68DA692C
:10335C00FB681B6842F00802DA61FB681B68DA69DB
:10336C00FB681B6822F00402DA61FB681B68D969F0
:10337C00BB681A69FB681B680A43DA6123E0FB68C7
:10338C001B68B968184600F079FBFB681B68DA69A2
:10339C00FB681B6842F40062DA61FB681B68DA693F
:1033AC00FB681B6822F48062DA61FB681B68D969D0
:1033BC00BB681B691A02FB681B680A43DA6102E0EE
:1033CC000123FB7500BFFB68002283F83C20FB7DCA
:1033DC0018461837BD4680BD80B584B000AF786004
:1033EC0039600023FB737B6893F83C30012B01D1CF
:1033FC000223B4E07B68012283F83C207B68022224
:10340C0083F83D207B681B689B68BB60BB6823F01E
:10341C007703BB60BB6823F47F43BB607B681B688E
:10342C00BA689A603B681B68B3F5005F3ED0B3F591
:10343C00005F00F28780B3F5805F00F08680B3F503
:10344C00805F7FD8702B1AD0702B7BD8602B50D01C
:10345C00602B77D8502B3CD0502B73D8402B58D0A6
:10346C00402B6FD8302B64D0302B6BD8202B60D0F6
:10347C00202B67D8002B5CD0102B5AD062E07B68D5
:10348C0018683B6899683B685A683B68DB6800F0D1
:10349C00BAFB7B681B689B68BB60BB6843F0770317
:1034AC00BB607B681B68BA689A604FE07B681868E1
:1034BC003B6899683B685A683B68DB6800F0A3FB83
:1034CC007B681B689A687B681B6842F480429A6030
:1034DC003CE07B6818683B6859683B68DB681A46B7
:1034EC0000F01AFB7B681B685021184600F071FB3A
:1034FC002CE07B6818683B6859683B68DB681A46A7
:10350C0000F038FB7B681B686021184600F061FBFB
:10351C001CE07B6818683B6859683B68DB681A4696
:10352C0000F0FAFA7B681B684021184600F051FB4A
:10353C000CE07B681A683B681B681946104600F063
:10354C0048FB03E00123FB7300E000BF7B68012212
:10355C0083F83D207B68002283F83C20FB7B1846D7
:10356C001037BD4680BD80B483B000AF786000BF1B
:10357C000C37BD4680BC704780B483B000AF786018
:10358C0000BF0C37BD4680BC704780B584B000AF1F
:10359C0078607B685B6AFB60FB685B6A7A689A425E
:1035AC0007D1FB6801221A77FB68012283F83E20C1
:1035BC002AE0FB689B6A7A689A4207D1FB68022270
:1035CC001A77FB68012283F83F201DE0FB68DB6A59
:1035DC007A689A4207D1FB6804221A77FB680122A9
:1035EC0083F8402010E0FB681B6B7A689A4207D185
:1035FC00FB6808221A77FB68012283F8412003E05C
:10360C00FB68012283F83D20F868FFF7B5FFFB68E3
:10361C0000221A7700BF1037BD4680BD80B584B03C
:10362C0000AF78607B685B6AFB60FB685B6A7A68FA
:10363C009A420BD1FB6801221A777B689B69002B9D
:10364C0036D1FB68012283F83E2031E0FB689B6A8F
:10365C007A689A420BD1FB6802221A777B689B69C5
:10366C00002B25D1FB68012283F83F2020E0FB686A
:10367C00DB6A7A689A420BD1FB6804221A777B6862
:10368C009B69002B14D1FB68012283F840200FE0CA
:10369C00FB681B6B7A689A420AD1FB6808221A777E
:1036AC007B689B69002B03D1FB68012283F84120C6
:1036BC00F868FCF733FFFB6800221A7700BF10375D
:1036CC00BD4680BD80B584B000AF78607B685B6A16
:1036DC00FB60FB685B6A7A689A4203D1FB68012243
:1036EC001A7719E0FB689B6A7A689A4203D1FB68E7
:1036FC0002221A7710E0FB68DB6A7A689A4203D1DF
:10370C00FB6804221A7707E0FB681B6B7A689A4205
:10371C0002D1FB6808221A77F868FFF724FFFB68D0
:10372C0000221A7700BF1037BD4680BD80B485B02B
:10373C0000AF786039607B681B68FB607B682F4A40
:10374C0093420BD07B68B3F1804F07D07B682C4A37
:10375C00934203D07B682B4A934208D1FB6823F039
:10376C007003FB603B685B68FA681343FB607B6823
:10377C00224A93420BD07B68B3F1804F07D07B6811
:10378C001F4A934203D07B681E4A934208D1FB68C0
:10379C0023F44073FB603B68DB68FA681343FB60FF
:1037AC00FB6823F080023B685B691343FB607B681A
:1037BC00FA681A603B689A687B68DA623B681A6838
:1037CC007B689A627B680D4A934203D13B681A6905
:1037DC007B681A637B6801225A617B681B6903F062
:1037EC000103002B05D07B681B6923F001027B6869
:1037FC001A6100BF1437BD4680BC7047002C0140D5
:10380C00000400400008004080B487B000AF78602E
:10381C0039607B681B6A7B617B681B6A23F0010241
:10382C007B681A627B685B683B617B689B69FB60A9
:10383C00FB6823F07003FB60FB6823F00303FB6061
:10384C003B681B68FA681343FB607B6923F0020337
:10385C007B613B689B687A6913437B617B681C4A7C
:10386C0093420CD17B6923F008037B613B68DB68D6
:10387C007A6913437B617B6923F004037B617B686A
:10388C00134A934211D13B6923F480733B613B692A
:10389C0023F400733B613B685B693A6913433B61FA
:1038AC003B689B693A6913433B617B683A695A6090
:1038BC007B68FA689A613B685A687B685A637B68D4
:1038CC007A691A6200BF1C37BD4680BC704700BFC6
:1038DC00002C014080B487B000AF786039607B6801
:1038EC001B6A7B617B681B6A23F010027B681A627F
:1038FC007B685B683B617B689B69FB60FB6823F4BE
:10390C00E043FB60FB6823F44073FB603B681B687F
:10391C001B02FA681343FB607B6923F020037B6175
:10392C003B689B681B017A6913437B617B681D4A6A
:10393C0093420DD17B6923F080037B613B68DB688C
:10394C001B017A6913437B617B6923F040037B6124
:10395C007B68144A934213D13B6923F480633B6127
:10396C003B6923F400633B613B685B699B003A69EC
:10397C0013433B613B689B699B003A6913433B6172
:10398C007B683A695A607B68FA689A613B685A6846
:10399C007B689A637B687A691A6200BF1C37BD46E4
:1039AC0080BC7047002C014080B487B000AF7860B9
:1039BC0039607B681B6A7B617B681B6A23F48072AD
:1039CC007B681A627B685B683B617B68DB69FB60C8
:1039DC00FB6823F07003FB60FB6823F00303FB60C0
:1039EC003B681B68FA681343FB607B6923F4007324
:1039FC007B613B689B681B027A6913437B617B6824
:103A0C001D4A93420DD17B6923F400637B613B68B3
:103A1C00DB681B027A6913437B617B6923F4806347
:103A2C007B617B68144A934213D13B6923F4805326
:103A3C003B613B6923F400533B613B685B691B01B1
:103A4C003A6913433B613B689B691B013A69134319
:103A5C003B617B683A695A607B68FA68DA613B685B
:103A6C005A687B68DA637B687A691A6200BF1C3714
:103A7C00BD4680BC704700BF002C014080B487B0AD
:103A8C0000AF786039607B681B6A3B617B681B6A9E
:103A9C0023F480527B681A627B685B687B617B686D
:103AAC00DB69FB60FB6823F4E043FB60FB6823F4F9
:103ABC004073FB603B681B681B02FA681343FB6096
:103ACC003B6923F400533B613B689B681B033A69D9
:103ADC0013433B617B680F4A934209D17B6923F402
:103AEC0080437B613B685B699B017A6913437B6113
:103AFC007B687A695A607B68FA68DA613B685A6855
:103B0C007B681A647B683A691A6200BF1C37BD4631
:103B1C0080BC7047002C014080B487B000AFF860C7
:103B2C00B9607A60FB681B6A7B61FB681B6A23F0D7
:103B3C000102FB681A62FB689B693B613B6923F0DD
:103B4C00F0033B617B681B013A6913433B617B6962
:103B5C0023F00A037B617A69BB6813437B61FB68C2
:103B6C003A699A61FB687A691A6200BF1C37BD46D4
:103B7C0080BC704780B487B000AFF860B9607A60E1
:103B8C00FB681B6A7B61FB681B6A23F01002FB68F5
:103B9C001A62FB689B693B613B6923F470433B6190
:103BAC007B681B033A6913433B617B6923F0A003D9
:103BBC007B61BB681B017A6913437B61FB683A69C3
:103BCC009A61FB687A691A6200BF1C37BD4680BCDB
:103BDC00704780B485B000AF786039607B689B68B3
:103BEC00FB60FB6823F07003FB603A68FB681343CF
:103BFC0043F00703FB607B68FA689A6000BF1437D8
:103C0C00BD4680BC704780B487B000AFF860B96027
:103C1C007A603B60FB689B687B617B6923F47F4324
:103C2C007B613B681A027B681A43BB6813437A6951
:103C3C0013437B61FB687A699A6000BF1C37BD46F1
:103C4C0080BC704780B487B000AFF860B9607A6010
:103C5C00BB6803F01F03012202FA03F37B61FB68CC
:103C6C001A6A7B69DB431A40FB681A62FB681A6AA2
:103C7C00BB6803F01F03796801FA03F31A43FB686E
:103C8C001A6200BF1C37BD4680BC704780B485B03B
:103C9C0000AF786039607B6893F83C30012B01D120
:103CAC00022346E07B68012283F83C207B680222D9
:103CBC0083F83D207B681B685B68FB607B681B6836
:103CCC009B68BB60FB6823F07003FB603B681B6860
:103CDC00FA681343FB607B681B68FA685A607B6860
:103CEC001B68164A93420ED07B681B68B3F1804F59
:103CFC0009D07B681B68124A934204D07B681B680E
:103D0C00104A93420CD1BB6823F08003BB603B6824
:103D1C005B68BA681343BB607B681B68BA689A60BF
:103D2C007B68012283F83D207B68002283F83C20CD
:103D3C00002318461437BD4680BC7047002C014048
:103D4C00000400400008004080B485B000AF7860EB
:103D5C0039600023FB607B6893F83C30012B01D168
:103D6C0002233DE07B68012283F83C20FB6823F0B2
:103D7C00FF023B68DB681343FB60FB6823F4407273
:103D8C003B689B681343FB60FB6823F480623B68D1
:103D9C005B681343FB60FB6823F400623B681B68A1
:103DAC001343FB60FB6823F480523B681B6913438D
:103DBC00FB60FB6823F400523B685B691343FB60B8
:103DCC00FB6823F480423B68DB691343FB607B6830
:103DDC001B68FA685A647B68002283F83C20002335
:103DEC0018461437BD4680BC704700000CB430B583
:103DFC00184B0C1E1D689DB008DA8B234FF0FF305A
:103E0C002B601DB0BDE8304002B070474FF4027318
:103E1C00ADF814304FF000031B930CBF234604F194
:103E2C00FF33049307934FF6FF7302900690ADF89F
:103E3C001630284621AB209A02A9019300F092F982
:103E4C00431CBCBF8B232B60002CDAD00022029BBE
:103E5C001A70D6E79000002003460244934200D12A
:103E6C00704703F8011BF9E7014B1868704700BF56
:103E7C009000002070B500260C4D0D4C641BA41056
:103E8C00A64209D100F076FC00260A4D0A4C641BB0
:103E9C00A410A64205D170BD55F8043B98470136D5
:103EAC00EEE755F8043B98470136F2E73C49000829
:103EBC003C4900083C4900084049000870477047DD
:103ECC0038B50546002940D051F8043C0C1F002B96
:103EDC00B8BFE41800F0DEF81C4A136833B963600D
:103EEC0014602846BDE8384000F0DAB8A34208D97F
:103EFC00206821188B4201BF19685B680918216082
:103F0C00EDE71A465B680BB1A342FAD91168501859
:103F1C00A0420BD120680144501883421160E0D1BB
:103F2C0018685B68084410605360DAE702D90C2308
:103F3C002B60D6E7206821188B4201BF19685B689B
:103F4C000918216063605460CBE738BD78100020FD
:103F5C0070B50F4E0C463168054611B900F0A8FB40
:103F6C0030602146284600F0A3FB431C03D14FF0E0
:103F7C00FF34204670BDC41C24F00304A042F8D0CA
:103F8C00211A284600F094FB0130F2D1EFE700BF74
:103F9C00741000202DE9F843CD1C25F003050835DD
:103FAC000C2D38BF0C25002D064601DBA94204D987
:103FBC000C2333600020BDE8F883DFF8D48000F0D8
:103FCC0069F8D8F800301C4644BB29463046FFF748
:103FDC00BFFF431C044658D1D8F800402746002F99
:103FEC0043D1002C4BD023683946304604EB0309EF
:103FFC0000F05EFB814542D1216830466D1A29469E
:10400C00FFF7A6FF01303AD023682B442360D8F881
:10401C0000305A6862BBC8F800700FE02268521B6F
:10402C0020D40B2A17D96119A342256018BF5960F7
:10403C00636808BFC8F8001062514B60304600F04E
:10404C002FF804F10B00231D20F00700C21A1CBF2F
:10405C001B1AA350AFE76268A3420CBFC8F800203C
:10406C005A60EBE723466468AEE73C467F68B6E7E8
:10407C001A465B68A342FBD100235360DEE70C2396
:10408C003046336000F00CF894E70560D6E700BFCB
:10409C00781000200148FFF711BF00BF70100020FE
:1040AC000148FFF70CBF00BF701000202DE9F0474E
:1040BC001F468E688246BE420C4690460B682DD831
:1040CC00B1F90C2012F4906F26D06569096905EBE3
:1040DC004505A3EB010905EBD5757B1C4B446D1015
:1040EC009D4238BF1D46530527D52946FFF752FF81
:1040FC00064660B34A46216900F0F8FAA38923F416
:10410C00906343F08003A38126614E4426603E46B3
:10411C006561A5EB0905A560BE4200D93E46324655
:10412C004146206800F0AAFA0020A3689B1BA360FC
:10413C00236833442360BDE8F0872A4600F0E4FA94
:10414C0006460028E0D150462169FFF7B9FE0C2342
:10415C00CAF80030A3894FF0FF3043F04003A3812D
:10416C00E9E700002DE9F04F98468B8907461B06BE
:10417C000D4614469DB010D50B6973B94021FFF75D
:10418C0009FF2860286130B90C233B604FF0FF30E9
:10419C001DB0BDE8F08F40236B61002309932023F1
:1041AC008DF8293030234FF00109CDF80C80DFF861
:1041BC0098818DF82A3023469A4613F8012B0AB1C0
:1041CC00252AF9D1BAEB040B0BD05B4622462946C3
:1041DC003846FFF76BFF013000F0A780099A5A446C
:1041EC0009929AF80030002B00F09F8000234FF0CA
:1041FC00FF32CDE905230AF1010A049307938DF8E8
:10420C0053301A935446052214F8011B4E4800F003
:10421C005FFA049AD8B9D00644BF20238DF85330E6
:10422C00110744BF2B238DF853309AF800302A2BFA
:10423C0015D0544600204FF00A0C079A214611F86D
:10424C00013B303B092B4BD9B0B1079214E0A0EBEA
:10425C00080309FA03F31343A2460493D2E7039B22
:10426C00191D1B680391002BBBBF5B4242F002027D
:10427C0007930793B8BF049223782E2B0AD1637847
:10428C002A2B32D1039B02341A1D1B68039243EA7A
:10429C00E3730593DFF8B4A003225046217800F0B5
:1042AC0017FA38B14022049BA0EB0A00824013435A
:1042BC000134049314F8011B062225488DF82810AC
:1042CC0000F006FA002836D0224B1BBB039B0733A9
:1042DC0023F0070308330393099B334409936AE7DC
:1042EC000C4601200CFB0232A8E700234FF00A0C0D
:1042FC00194601340593204610F8012B303A092A4F
:10430C0003D9002BC6D00591C4E7044601230CFB4E
:10431C000121F0E703AB00932A4638460E4B04A963
:10432C00AFF30080421C0646D6D1AB895B063FF545
:10433C002DAF09982CE703AB00932A463846064B61
:10434C0004A900F07DF8EDE7FE48000804490008D8
:10435C000849000800000000B94000082DE9F047AA
:10436C00164698468A680B6907469342B8BF1346AF
:10437C00336091F843200C46DDF820900AB10133EC
:10438C0033602368990642BF336802333360256873
:10439C0015F0060506D104F1190AE36832689B1A78
:1043AC00AB422BDC94F843302268003B18BF01234E
:1043BC00920630D44146384604F14302C8470130D6
:1043CC0023D02368226903F00603042B14BF0025B5
:1043DC0033684FF0000608BFE56804F11A0408BF03
:1043EC00ED1A54F8123C08BF25EAE5759342C4BF98
:1043FC009B1AED18B5421AD1002008E00123524651
:10440C0041463846C847013003D14FF0FF30BDE874
:10441C00F0870135C1E73020E11881F843005A1CC0
:10442C0094F845102244023382F84310C2E701236A
:10443C00224641463846C8470130E6D00136D9E716
:10444C002DE9FF470F7E9146782F80460C469A4601
:10445C000C9E01F1430207D8622F0AD8002F00F0FE
:10446C00D180582F00F0B88004F1420684F84270D5
:10447C003AE0A7F16303152BF6D801A151F823F00C
:10448C00E5440008F9440008754400087544000828
:10449C007544000875440008F94400087544000888
:1044AC00754400087544000875440008F745000879
:1044BC0023450008B1450008754400087544000800
:1044CC001946000875440008234500087544000887
:1044DC0075440008B945000833681A1D1B68326022
:1044EC0004F1420684F8423001239CE033682068D2
:1044FC00191D3160060601D51D6803E04506FBD584
:10450C00B3F90050002D03DA2D236D4284F84330AB
:10451C000A23584811E021683368080653F8045BF5
:10452C0002D4490648BFADB26F2F336014BF0A23C3
:10453C0008235048002184F843106668002EA660BA
:10454C0005DB21682E4321F0040121604BD0164677
:10455C00B5FBF3F103FB1157C75D06F8017D2F4640
:10456C00BB420D46F4D9082B0BD12368DF0708D5C5
:10457C00236961689942DEBF302306F8013C06F1DD
:10458C00FF36921B22614B4621464046CDF800A0D7
:10459C0003AAFFF7E3FE01304AD14FF0FF3004B01D
:1045AC00BDE8F087236843F0200323607827324866
:1045BC0084F84570236831681F0651F8045B02D4F7
:1045CC005F0648BFADB23160D90744BF43F020034A
:1045DC0023601DB11023ADE72648E9E7236823F0DB
:1045EC0020032360F6E71646BDE733682568181DDF
:1045FC00616930602E061B6801D5196002E06806FF
:10460C00FBD51980002316462361BCE733680021D3
:10461C001A1D32601E686268304600F059F808B105
:10462C00801B606063682361002384F84330AAE731
:10463C003246494640462369D0470130ADD0236805
:10464C009B0713D4E068039B9842B8BF1846A6E7B3
:10465C000123324649464046D04701309DD00135B2
:10466C00E36803995B1AAB42F2DCEBE7002504F13B
:10467C001906F5E70F49000820490008884210B5D3
:10468C0001EB020402D98442234607D8431EA142FF
:10469C0008D011F8012B03F8012FF8E7014602446A
:1046AC008A4200D110BD13F8014D02F8014DF7E715
:1046BC0038B50023054D044608462B60FDF7CCF8B1
:1046CC00431C02D12B6803B1236038BD6C10002051
:1046DC00034610B5C9B202449342184601D10020DA
:1046EC0003E0047801338C42F6D110BD0A449142A8
:1046FC0000F1FF3300D1704710B511F8014B914216
:10470C0003F8014FF9D110BD2DE9F04107461446CD
:10471C000D4621B91146BDE8F041FFF73BBC2AB963
:10472C00FFF7CEFB25462846BDE8F08100F01AF8CD
:10473C008442064602D8B4EB500FF4D821463846D2
:10474C00FFF728FC804608B94546ECE7B442224600
:10475C00294628BF3246FFF7C9FF29463846FFF7DE
:10476C00AFFBF1E751F8043C181F002BBCBF0B58F2
:10477C00C0187047F8B500BFF8BC08BC9E4670471F
:0C478C00F8B500BFF8BC08BC9E467047A2
:104798004D6F64653A200000257320533A25642044
:1047A800423A25642525000054657374204C696ECF
:1047B8006520310054657374204C696E65203200A1
:1047C800303132333435363738394142434445463F
:1047D8000000000021402324255E262A28295F2B7B
:1047E8002D3D000053544D3332202B204C434420A0
:1047F8004F4B21005261696E626F77004F46460049
:10480800466164650000000052756E00466C617375
:10481800680000004F6666004D757369630000000C
:1048280008480008FC470008104800081448000819
:104838001C48000820480008426C7565000000000C
:104848005265640050696E6B000000004772656530
:104858006E00000040480008484800084C4800081E
:104868005448000848656C6C6F2053544D3332210E
:10487800000000004C434420576F726B696E67213B
:10488800000000004D75736963204D6F6465204119
:1048980043544956450000004750494F3A25642083
:1048A800543A256C7500000053544D3332204C4364
:1048B8004420546573740000496E697469616C69B9
:1048C8007A696E672E2E2E004C454420436F6E7415
:1048D800726F6C0000000000000000000102030479
:1048E8000607080902030405060708090A0B0C0D48
:1048F8000E0F10100102232D302B2000686C4C0085
:1049080065666745464700303132333435363738C7
:104918003941424344454600303132333435363725
:0C492800383961626364656600000000BD
:0849340018B8FF7F010000002C
:04493C00310100083D
:044940000D0100085D
:104944000000000064000000FF000000FF00000001
:104954000000000000000000FF0000001400000040
:104964009300000000000000FF00000000000000B1
:104974000100000000080140000801400008014057
:1049840000080140100020004000800000080140A1
:104994000008014000080140000801400100020035
:1049A4000400080033323130373635344241393867
:1049B40046454443030000000100000005000000D8
:1049C4003200000000127A00100000000100000014
:1049D4009400002000000000340F00209C0F0020F1
:1049E400041000200000000000000000000000008F
:1049F40000000000000000000000000000000000B3
:104A040000000000000000000000000000000000A2
:104A14000000000000000000000000000000000092
:04000005080018DDFA
:00000001FF
