:020000040800F2
:1000000000500020C50F00084D0F0008550F0008D4
:100010005D0F0008650F00086D0F0008000000006C
:10002000000000000000000000000000750F000844
:10003000810F0008000000008D0F0008990F0008D4
:100040000D1000080D1000080D1000080D1000081C
:100050000D1000080D1000080D1000080D1000080C
:100060000D1000080D1000080D1000080D100008FC
:10007000A50F00080D1000080D1000080D10000855
:100080000D1000080D1000080D1000080D100008DC
:100090000D1000080D1000080D1000080D100008CC
:1000A0000D1000080D1000080D1000080D100008BC
:1000B0000D1000080D1000080D1000080D100008AC
:1000C0000D1000080D1000080D1000080D1000089C
:1000D0000D1000080D1000080D1000080D1000088C
:1000E0000D1000080D1000080D10000800000000A1
:1000F0000000000000000000000000000000000000
:0C01000000000000000000005FF808F1A3
:10010C0010B5054C237833B9044B13B10448AFF345
:10011C0000800123237010BD8C0000200000000023
:10012C003835000808B5034B1BB103490348AFF33E
:10013C00008008BD00000000900000203835000849
:10014C0080B582B000AF78600021054802F030FB2A
:10015C00044B01221A6000BF0837BD4680BD00BFAA
:10016C00A80000201403002080B588B000AF07F170
:10017C00080300221A605A609A60DA602B4B9B6964
:10018C002A4A43F004039361284B9B6903F0040350
:10019C007B607B680023FB6123E0254AFB6932F816
:1001AC001330BB600123FB6000233B6102237B61A6
:1001BC00204AFB6952F8233007F108021146184611
:1001CC0001F01AFB1B4AFB6952F82300184AFB6921
:1001DC0032F813300122194601F0A9FCFB690133F6
:1001EC00FB61FB69032BD8DD0023BB6115E0124AD0
:1001FC00BB6932F81330BB600023FB6001233B6109
:10020C000E4ABB6952F8233007F108021146184612
:10021C0001F0F2FABB690133BB61BB69032BE6DD6C
:10022C0000BF00BF2037BD4680BD00BF001002409C
:10023C004000002030000020580000204800002022
:10024C0080B584B000AF0023FB6061E00023BB608D
:10025C001FE0BA68FB689A420CD1314ABB6852F86D
:10026C002300304ABB6832F813300022194601F0E3
:10027C005EFC0BE02A4ABB6852F82300294ABB6893
:10028C0032F813300122194601F051FCBB680133DE
:10029C00BB60BB68032BDCDD022000F015FF0023E4
:1002AC007B602FE0204A7B6852F823201F497B6833
:1002BC0031F813301946104601F022FC0346002B8E
:1002CC001DD102E00A2000F0FFFE174A7B6852F8AD
:1002DC00232016497B6831F813301946104601F07B
:1002EC000FFC0346002BEDD0322000F0EDFE104A3F
:1002FC00FB689B001A447B6813441B780CE07B68FA
:10030C0001337B607B68032BCCDDFB680133FB6026
:10031C00FB68032B9ADD002318461037BD4680BDC1
:10032C003000002040000020480000205800002031
:10033C006000002080B483B000AF0346FB71FB79F2
:10034C00313B152B00F2928001A252F823F000BF32
:10035C00B5030008ED030008010400087904000847
:10036C00C3030008150400082F04000879040008D2
:10037C00D103000879040008790400087904000806
:10038C00790400087904000879040008790400084D
:10039C00490400087904000879040008DF03000808
:1003AC00790400086B040008384B00221A60384BA3
:1003BC0001221A6065E0354B01221A60344B012290
:1003CC001A605EE0314B02221A60314B01221A6036
:1003DC0057E02E4B03221A602D4B01221A6050E07D
:1003EC002C4B1B68012B43DD2A4B1B68013B294A14
:1003FC0013603DE0274B1B68092B3BDC254B1B682E
:10040C000133244A136035E0234B1B680A3B224A14
:10041C001360214B1B68002B2EDC1F4B01221A6032
:10042C002AE01D4B1B680A331B4A13601A4B1B68CE
:10043C00642B23DD184B64221A601FE0134B1B68DE
:10044C00012B1DD0154B1B6801335A4203F00303DB
:10045C0002F0030258BF5342104A136010E00B4BDA
:10046C0004221A600A4B01221A600AE000BF08E05D
:10047C0000BF06E000BF04E000BF02E000BF00E0E8
:10048C0000BF00BF0C37BD4680BC70477000002019
:10049C0074000020780000207C000020180300204D
:1004AC0080B485B000AFF860B9607A603B60FB68DF
:1004BC00D9B2104AFB6802F823107B68D9B20D4AF6
:1004CC00FB689B0013440A465A70BB68D9B2094AB0
:1004DC00FB689B0013440A469A703B68D9B2054AE4
:1004EC00FB689B0013440A46DA7000BF1437BD4604
:1004FC0080BC70473401002080B586B000AFF86036
:10050C00B9607A6000237B6108E07B68BA68F9689F
:10051C007869FFF7C5FF7B6901337B617B693B2BF6
:10052C00F3DD00BF00BF1837BD4680BD80B485B079
:10053C0000AF78607B68642B01DD64237B607B6893
:10054C00002B01DA00237B600023FB602DE01B4AAB
:10055C00FB6812F823101A4AFB6802F823100123D7
:10056C00BB601CE0154AFB689B001A44BB68134433
:10057C001B781A467B6802FB03F3124A82FB0312B8
:10058C005211DB17D31AD9B20D4AFB689B001A44DF
:10059C00BB6813440A461A70BB680133BB60BB6866
:1005AC00032BDFDDFB680133FB60FB683B2BCEDDEF
:1005BC0000BF00BF1437BD4680BC7047340100201B
:1005CC00240200201F85EB5180B586B000AF0023BC
:1005DC007B6100233B6136E0394A3B699B00134445
:1005EC005B781A0436493B699B000B449B781B02D1
:1005FC001A4333493B699B000B44DB7813433B6044
:10060C001723FB6019E00122FB6802FA03F31A4678
:10061C003B681340002B05D02A4A7B693C2122F809
:10062C00131004E0274A7B691E2122F813107B6902
:10063C0001337B61FB68013BFB60FB68002BE2DA5A
:10064C003B6901333B613B693B2BC5DD0023BB6040
:10065C000AE01C4A7B69002122F813107B690133E4
:10066C007B61BB680133BB60BB68312BF1DD164B82
:10067C0000221A607B699BB2124A0021134801F0D8
:10068C00F5FE134B7B6002E07B68013B7B600E4BFD
:10069C001B68002B02D17B68002BF5D17B68002BEB
:1006AC0006D10021094802F083F8074B01221A6099
:1006BC00054B00221A6000BF1837BD4680BD00BF35
:1006CC00240200201C03002014030020A80000209A
:1006DC0040420F0080B58AB000AF78607B680A2B6F
:1006EC0001DD0A237B607B68002B01DC01237B602E
:1006FC0000237B62C7E000237B61AFE07B6AB3F52C
:10070C00B47F01DB00237B627A6A7B6913447B62D2
:10071C007B6A624A82FB03121A445211DB17D31A0A
:10072C003B617A6A5D4B83FB021313445911D31757
:10073C00C91A0B461B015B1A9B00D31AFB603B6961
:10074C00052B78D801A252F823F000BF71070008DE
:10075C0093070008B7070008D9070008FD07000831
:10076C001F080008FF233B62FA6813461B029B1A02
:10077C004A4A82FB03121A445211DB17D31AFB614B
:10078C000023BB615EE0FA6813461B029B1A434AC6
:10079C0082FB03121A445211DB179B1AFF333B6284
:1007AC00FF23FB610023BB614CE000233B62FF2372
:1007BC00FB61FA6813461B029B1A384A82FB031230
:1007CC001A445211DB17D31ABB613BE000233B6286
:1007DC00FA6813461B029B1A304A82FB03121A4416
:1007EC005211DB179B1AFF33FB61FF23BB6129E01E
:1007FC00FA6813461B029B1A284A82FB03121A44FE
:10080C005211DB17D31A3B620023FB61FF23BB6140
:10081C0018E0FF233B620023FB61FA6813461B02BE
:10082C009B1A1E4A82FB03121A445211DB179B1AA5
:10083C00FF33BB6106E0FF233B620023FB61002317
:10084C00BB6100BFBB69FA69396A7869FFF728FE9A
:10085C00012000F039FC7B6901337B617B693B2B08
:10086C007FF74CAF0E4B1B681846FFF75FFEFFF788
:10087C00ABFE0A227B6892FBF3F3184600F024FCD3
:10088C007B6A24337B627B6AB3F5B47FFFF633AFAC
:10089C0000BF00BF2837BD4680BD00BF898888884F
:1008AC007C00002080B586B000AFF860B9607A603B
:1008BC003B60FB680A2B01DD0A23FB60FB68002B05
:1008CC0001DC0123FB600023002200213B20FFF709
:1008DC00E7FD01237B611DE03B687A68B9687869A4
:1008EC00FFF7DEFD7B69581E002300220021FFF775
:1008FC00D7FD0C4B1B681846FFF718FEFFF764FE7C
:10090C001E22FB6892FBF3F3184600F0DDFB7B69BB
:10091C0001337B617B693B2BDEDD00BF00BF1837E9
:10092C00BD4680BD7C000020B0B584B000AF00F0A7
:10093C0069FB00F0FFF800F001FA00F0E1F900F0BB
:10094C003FF9FFF711FC002200210020FFF7D4FD36
:10095C000020FFF7EBFDFFF737FEFFF771FC0346B6
:10096C00FB71FB79002B03D0FB791846FFF7E2FCF7
:10097C006B4B1B68032B00F2C38001A252F823F0CF
:10098C009D0900083D0A0008490A00088F0A000862
:10099C00644B1A68644913465B0013449B000B4478
:1009AC001868604B1A68604913465B0013449B003F
:1009BC000B44043319685B4B1A685B4C13465B00A1
:1009CC0013449B00234408331B681A46FFF794FD1D
:1009DC000023FB600FE0F868FFF7A8FDFFF7F4FDBC
:1009EC00524B1B68322292FBF3F3184600F06CFB5F
:1009FC00FB680233FB604E4B1B68FA689A42EADDD7
:100A0C004B4B1B68BB600FE0B868FFF78FFDFFF71F
:100A1C00DBFD464B1B68322292FBF3F3184600F0C9
:100A2C0053FBBB68023BBB60BB68002BECDA75E088
:100A3C003E4B1B681846FFF74DFE6FE03B4B1868AA
:100A4C00384B1A68384913465B0013449B000B441F
:100A5C001968344B1A68344C13465B0013449B00E2
:100A6C00234404331C682F4B1A682F4D13465B002C
:100A7C0013449B002B4408331B682246FFF712FFDC
:100A8C004CE0284B1A68284913465B0013449B0022
:100A9C000B441868234B1A68234913465B00134414
:100AAC009B000B44043319681E4B1A681E4C1346EA
:100ABC005B0013449B00234408331B681A46FFF762
:100ACC001BFD1B4B1B681846FFF730FDFFF77CFD29
:100ADC00164B1B684FF4967292FBF3F3184600F01A
:100AEC00F3FA0020FFF722FDFFF76EFD0F4B1B689A
:100AFC004FF4967292FBF3F3184600F0E5FA0DE012
:100B0C00002200210020FFF7F7FC0020FFF70EFD6C
:100B1C00FFF75AFD642000F0D7FA00BF1DE700BFB5
:100B2C007000002018030020000000207800002036
:100B3C007C00002080B590B000AF07F1180328228C
:100B4C000021184602F0C5FC3B1D00221A605A60B9
:100B5C009A60DA601A610123BB614FF48033FB6148
:100B6C0000233B620123BB6202237B634FF480337F
:100B7C00BB634FF4E013FB6307F11803184600F056
:100B8C00EFFF0346002B01D000F024F90F237B600C
:100B9C000223BB600023FB604FF480633B610023A6
:100BAC007B613B1D0221184601F05CFA0346002BC9
:100BBC0001D000F00FF900BF4037BD4680BD0000EA
:100BCC0080B596B000AF07F1480300221A605A6056
:100BDC009A60DA6007F1400300221A605A6007F14C
:100BEC00240300221A605A609A60DA601A615A6112
:100BFC009A613B1D20220021184602F06AFC3E4BF4
:100C0C003E4A1A603C4B00225A603B4B00229A60D1
:100C1C00394B5922DA60384B00221A61364B0022CC
:100C2C005A61354B00229A61334801F077FB034639
:100C3C00002B01D000F0CEF84FF48053BB6407F1C9
:100C4C00480319462C4801F03BFF0346002B01D00A
:100C5C0000F0C0F8284801F0B0FB0346002B01D08F
:100C6C0000F0B8F800233B6400237B6407F14003D9
:100C7C001946214802F07EFB0346002B01D000F000
:100C8C00A9F860237B620023BB620023FB62002374
:100C9C003B6300237B630023BB630023FB6307F1EF
:100CAC00240300221946144801F048FE0346002B89
:100CBC0001D000F08FF800237B600023BB60002381
:100CCC00FB6000233B6100237B614FF40053BB614D
:100CDC0000233B623B1D1946074802F0A9FB034663
:100CEC00002B01D000F076F8034800F0F5F800BFB7
:100CFC005837BD4680BD00BFA8000020002C014025
:100D0C0080B582B000AF0C4B5B690B4A43F001031A
:100D1C005361094B5B6903F001037B607B68002224
:100D2C0000210C2000F0CBFA0C2000F0E4FA00BFFC
:100D3C000837BD4680BD00BF0010024080B588B0AA
:100D4C0000AF07F1100300221A605A609A60DA6053
:100D5C001E4B9B691D4A43F0100393611B4B9B690F
:100D6C0003F01003FB60FB68184B9B69174A43F0B8
:100D7C0020039361154B9B6903F02003BB60BB6898
:100D8C00124B9B69114A43F0040393610F4B9B690F
:100D9C0003F004037B607B6800224FF400510C4885
:100DAC0000F0C5FE4FF400533B6101237B6100232F
:100DBC00BB610223FB6107F110031946044800F0E4
:100DCC001BFD00BF2037BD4680BD00BF0010024098
:100DDC000010014080B400AF72B600BF00BFFDE749
:100DEC0080B485B000AF154B9B69144A43F00103E6
:100DFC009361124B9B6903F00103BB60BB680F4B03
:100E0C00DB690E4A43F08053D3610C4BDB6903F072
:100E1C0080537B607B680A4B5B68FB60FB6823F04C
:100E2C00E063FB60FB6843F00073FB60044AFB6803
:100E3C00536000BF1437BD4680BC704700100240A1
:100E4C000000014080B584B000AF78607B681B68FF
:100E5C001D4A934233D11D4B9B691C4A43F40063DA
:100E6C0093611A4B9B6903F40063FB60FB68184B9E
:100E7C00184A1A60164B10225A60154B00229A60C1
:100E8C00134B8022DA60124B4FF480721A61104BB4
:100E9C004FF480625A610E4B00229A610C4B002277
:100EAC00DA610B4800F042FA0346002B01D0FFF741
:100EBC0091FF7B68064A5A62054A7B68536200BF01
:100ECC001037BD4680BD00BF002C01400010024011
:100EDC00F00000201C00024080B588B000AF7860A4
:100EEC0007F1100300221A605A609A60DA607B687E
:100EFC001B68104A934218D10F4B9B690E4A43F062
:100F0C00040393610C4B9B6903F00403FB60FB68C7
:100F1C004FF480733B6102237B610223FB6107F179
:100F2C0010031946054800F067FC00BF2037BD468A
:100F3C0080BD00BF002C01400010024000080140A1
:100F4C0080B400AF00BFFDE780B400AF00BFFDE789
:100F5C0080B400AF00BFFDE780B400AF00BFFDE779
:100F6C0080B400AF00BFFDE780B400AF00BFBD464A
:100F7C0080BC704780B400AF00BFBD4680BC7047DA
:100F8C0080B400AF00BFBD4680BC704780B500AFD9
:100F9C0000F07EF800BF80BD80B500AF024800F0C5
:100FAC00F7FA00BF80BD00BFF000002080B400AF96
:100FBC0000BFBD4680BC7047FFF7F8FF0B480C49DB
:100FCC000C4A002302E0D458C4500433C4188C4299
:100FDC00F9D3094A094C002301E013600432A24200
:100FEC00FBD302F07FFAFFF79FFC70470000002054
:100FFC008C0000207C3500088C000020C40E0020E2
:10100C00FEE7000080B500AF084B1B68074A43F0B1
:10101C0010031360032000F047F90F2000F008F8CC
:10102C00FFF7DEFE0023184680BD00BF0020024003
:10103C0080B582B000AF7860124B1A68124B1B78E7
:10104C0019464FF47A73B3FBF1F3B2FBF3F3184682
:10105C0000F05FF90346002B01D001230EE07B6802
:10106C000F2B0AD8002279684FF0FF3000F027F9D7
:10107C00064A7B681360002300E0012318460837FA
:10108C00BD4680BD80000020880000208400002028
:10109C0080B400AF054B1B781A46054B1B681344F4
:1010AC00034A136000BFBD4680BC70478800002017
:1010BC00C00E002080B400AF024B1B681846BD4622
:1010CC0080BC7047C00E002080B584B000AF786043
:1010DC00FFF7F0FFB8607B68FB60FB68B3F1FF3F84
:1010EC0005D00A4B1B781A46FB681344FB6000BF03
:1010FC00FFF7E0FF0246BB68D31AFA689A42F7D8AA
:10110C0000BF00BF1037BD4680BD00BF8800002067
:10111C0080B485B000AF78607B6803F00703FB6098
:10112C000C4BDB68BB60BA684FF6FF031340BB6027
:10113C00FB681A02BB68134343F0BF6343F40033EC
:10114C00BB60044ABB68D36000BF1437BD4680BC8B
:10115C00704700BF00ED00E080B400AF044BDB68CB
:10116C001B0A03F007031846BD4680BC704700BF3E
:10117C0000ED00E080B483B000AF0346FB7197F93B
:10118C000730002B0BDBFB7903F01F02064997F9A4
:10119C0007305B09012000FA02F241F8232000BF5E
:1011AC000C37BD4680BC704700E100E080B483B0D2
:1011BC0000AF03463960FB7197F90730002B0ADB4F
:1011CC003B68DAB20C4997F907301201D2B20B44E2
:1011DC0083F800230AE03B68DAB20849FB7903F094
:1011EC000F03043B1201D2B20B441A7600BF0C372A
:1011FC00BD4680BC704700BF00E100E000ED00E0A0
:10120C0080B489B000AFF860B9607A60FB6803F015
:10121C000703FB61FB69C3F10703042B28BF0423FD
:10122C00BB61FB690433062B02D9FB69033B00E06D
:10123C0000237B614FF0FF32BB6902FA03F3DA4300
:10124C00BB681A407B699A404FF0FF317B6901FA09
:10125C0003F3D9437B680B40134318462437BD4630
:10126C0080BC704780B582B000AF78607B68013B72
:10127C00B3F1807F01D301230FE00A4A7B68013B65
:10128C0053600F214FF0FF30FFF790FF054B00220A
:10129C009A60044B07221A60002318460837BD4693
:1012AC0080BD00BF10E000E080B582B000AF786078
:1012BC007868FFF72DFF00BF0837BD4680BD80B5AD
:1012CC0086B000AF0346B9607A60FB7300237B6184
:1012DC00FFF742FF78617A68B9687869FFF790FF89
:1012EC00024697F90F3011461846FFF75FFF00BF13
:1012FC001837BD4680BD80B582B000AF0346FB7188
:10130C0097F907301846FFF735FF00BF0837BD4681
:10131C0080BD80B582B000AF78607868FFF7A2FF1F
:10132C00034618460837BD4680BD000080B485B022
:10133C0000AF78600023FB607B68002B01D1012398
:10134C0043E07B681B681A46224B1344224AA2FBDB
:10135C0003231B099A007B681A647B681F4ADA63B3
:10136C007B68022283F821207B681B681B68FB606A
:10137C00FB6823F47F5323F03003FB607B685A68CF
:10138C007B689B681A437B68DB681A437B681B6924
:10139C001A437B685B691A437B689B691A437B68B9
:1013AC00DB691343FA681343FB607B681B68FA68BC
:1013BC001A607B6800229A637B68012283F82120E3
:1013CC007B68002283F82020002318461437BD4682
:1013DC0080BC7047F8FFFDBFCDCCCCCC00000240E8
:1013EC0080B586B000AFF860B9607A603B600023CE
:1013FC00FB75FB6893F82030012B01D102234BE0E5
:10140C00FB68012283F82020FB6893F82130DBB2C3
:10141C00012B3AD1FB68022283F82120FB680022C1
:10142C009A63FB681B681A68FB681B6822F0010250
:10143C001A603B687A68B968F86800F0AFF9FB6825
:10144C00DB6A002B08D0FB681B681A68FB681B68FA
:10145C0042F00E021A600FE0FB681B681A68FB680A
:10146C001B6822F004021A60FB681B681A68FB6890
:10147C001B6842F00A021A60FB681B681A68FB685A
:10148C001B6842F001021A6005E0FB68002283F839
:10149C0020200223FB75FB7D18461837BD4680BD06
:1014AC0080B584B000AF78600023FB737B6893F841
:1014BC002130DBB2022B05D07B6804229A63012316
:1014CC00FB7351E07B681B681A687B681B6822F011
:1014DC000E021A607B681B681A687B681B6822F016
:1014EC0001021A607B681B68224A934229D07B68F0
:1014FC001B68214A934222D07B681B681F4A934287
:10150C001AD07B681B681E4A934212D07B681B68FA
:10151C001C4A93420AD07B681B681B4A934202D137
:10152C004FF480130EE04FF080730BE04FF48033D8
:10153C0008E04FF4805305E04FF4807302E0102371
:10154C0000E00123114A53607B68012283F82120BB
:10155C007B68002283F820207B685B6B002B03D018
:10156C007B685B6B78689847FB7B18461037BD46E9
:10157C0080BD00BF080002401C0002403000024049
:10158C0044000240580002406C000240000002403F
:10159C0080B584B000AF78607B68DB6B1B68FB6048
:1015AC007B681B681B68BB607B681B6C04229A40C1
:1015BC00FB681340002B4FD0BB6803F00403002BD7
:1015CC004AD07B681B681B6803F02003002B07D1F3
:1015DC007B681B681A687B681B6822F004021A601F
:1015EC007B681B68664A934229D07B681B68654AF6
:1015FC00934222D07B681B68634A93421AD07B6863
:10160C001B68624A934212D07B681B68604A934203
:10161C000AD07B681B685F4A934202D14FF4800367
:10162C000EE04FF080630BE04FF4802308E04FF4A2
:10163C00804305E04FF4806302E0402300E0042384
:10164C00554A53607B68DB6A002B00F094807B6802
:10165C00DB6A786898478EE07B681B6C02229A40A4
:10166C00FB681340002B56D0BB6803F00203002B21
:10167C0051D07B681B681B6803F02003002B0BD137
:10168C007B681B681A687B681B6822F00A021A6068
:10169C007B68012283F821207B681B68384A9342BF
:1016AC0029D07B681B68374A934222D07B681B6821
:1016BC00354A93421AD07B681B68344A934212D045
:1016CC007B681B68324A93420AD07B681B68314A9C
:1016DC00934202D14FF400130EE04FF000730BE075
:1016EC004FF4003308E04FF4005305E04FF400735F
:1016FC0002E0202300E00223274A53607B6800228B
:10170C0083F820207B689B6A002B34D07B689B6A13
:10171C00786898472FE07B681B6C08229A40FB681E
:10172C001340002B28D0BB6803F00803002B23D0F8
:10173C007B681B681A687B681B6822F00E021A60B3
:10174C007B681A6C7B68DB6B012101FA02F25A6030
:10175C007B6801229A637B68012283F821207B68D5
:10176C00002283F820207B681B6B002B04D07B6845
:10177C001B6B7868984700BF00BF1037BD4680BD13
:10178C00080002401C0002403000024044000240AD
:10179C00580002406C0002400000024080B485B04A
:1017AC0000AFF860B9607A603B60FB681A6CFB684C
:1017BC00DB6B012101FA02F25A60FB681B683A6884
:1017CC005A60FB685B68102B08D1FB681B687A6851
:1017DC009A60FB681B68BA68DA6007E0FB681B68F4
:1017EC00BA689A60FB681B687A68DA6000BF1437C5
:1017FC00BD4680BC7047000080B48BB000AF7860F1
:10180C00396000237B6200233B6269E101227B6A21
:10181C0002FA03F3FB613B681B68FA691340BB6176
:10182C00BA69FB699A4240F058813B685B689A4AF6
:10183C0093425ED0984A934275D8984A934258D0B6
:10184C00964A93426FD8964A934252D0944A934206
:10185C0069D8944A93424CD0924A934263D8924AA4
:10186C00934246D0904A93425DD8122B2AD8122B21
:10187C0059D801A252F823F0FF180008D918000813
:10188C00EB1800082D19000833190008331900084B
:10189C0033190008331900083319000833190008EC
:1018AC0033190008331900083319000833190008DC
:1018BC00331900083319000833190008E11800081F
:1018CC00F5180008794A934213D02CE03B68DB688A
:1018DC003B6229E03B68DB6804333B6224E03B68F5
:1018EC00DB6808333B621FE03B68DB680C333B6210
:1018FC001AE03B689B68002B02D104233B6213E087
:10190C003B689B68012B05D108233B627B68FA6915
:10191C001A6109E008233B627B68FA695A6103E0AB
:10192C0000233B6200E000BFBB69FF2B01D87B6842
:10193C0001E07B6804337B61BB69FF2B02D87B6AB7
:10194C009B0002E07B6A083B9B003B617B691A6849
:10195C000F213B6901FA03F3DB431A40396A3B69F7
:10196C0001FA03F31A437B691A603B685B6803F066
:10197C008053002B00F0B1804D4B9B694C4A43F0D7
:10198C00010393614A4B9B6903F00103BB60BB6885
:10199C00484A7B6A9B08023352F82330FB607B6A0F
:1019AC0003F003039B000F2202FA03F3DB43FA68F4
:1019BC001340FB607B68404A934213D07B683F4ADC
:1019CC0093420DD07B683E4A934207D07B683D4AD8
:1019DC00934201D1032306E0042304E0022302E036
:1019EC00012300E000237A6A02F003029200934084
:1019FC00FA681343FB602F497B6A9B080233FA6831
:101A0C0041F823203B685B6803F48013002B06D05D
:101A1C002D4B9A682C49BB6913438B6006E02A4B0B
:101A2C009A68BB69DB43284913408B603B685B6851
:101A3C0003F40013002B06D0234BDA682249BB6950
:101A4C001343CB6006E0204BDA68BB69DB431E49CD
:101A5C001340CB603B685B6803F40033002B06D06B
:101A6C00194B5A681849BB6913434B6006E0164B77
:101A7C005A68BB69DB43144913404B603B685B6895
:101A8C0003F48033002B21D00F4B1A680E49BB692D
:101A9C0013430B6021E000BF000032100000311036
:101AAC000000221000002110000012100000111084
:101ABC00001002400000014000080140000C0140F1
:101ACC000010014000140140000401400B4B1A6847
:101ADC00BB69DB43094913400B607B6A01337B62B2
:101AEC003B681A687B6A22FA03F3002B7FF48EAEF4
:101AFC0000BF00BF2C37BD4680BC704700040140BE
:101B0C0080B485B000AF78600B467B807B689A68A8
:101B1C007B881340002B02D00123FB7301E00023D0
:101B2C00FB73FB7B18461437BD4680BC704780B4F2
:101B3C0083B000AF78600B467B8013467B707B785C
:101B4C00002B03D07A887B681A6103E07B881A0427
:101B5C007B681A6100BF0C37BD4680BC7047000023
:101B6C0080B586B000AF78607B68002B01D1012373
:101B7C0072E27B681B6803F00103002B00F0878086
:101B8C00924B5B6803F00C03042B0CD08F4B5B68FF
:101B9C0003F00C03082B12D18C4B5B6803F48033DD
:101BAC00B3F5803F0BD1894B1B6803F40033002B3A
:101BBC006CD07B685B68002B68D101234CE27B689E
:101BCC005B68B3F5803F06D1804B1B687F4A43F4BA
:101BDC00803313602EE07B685B68002B0CD17B4B51
:101BEC001B687A4A23F480331360784B1B68774A5E
:101BFC0023F4802313601DE07B685B68B3F5A02F92
:101C0C000CD1724B1B68714A43F4802313606F4BE9
:101C1C001B686E4A43F4803313600BE06B4B1B68FC
:101C2C006A4A23F480331360684B1B68674A23F4B9
:101C3C00802313607B685B68002B13D0FFF73AFAA4
:101C4C00386108E0FFF736FA02463B69D31A642B79
:101C5C0001D9032300E25D4B1B6803F40033002B16
:101C6C00F0D014E0FFF726FA386108E0FFF722FA0B
:101C7C0002463B69D31A642B01D90323ECE1534B85
:101C8C001B6803F40033002BF0D100E000BF7B682D
:101C9C001B6803F00203002B63D04C4B5B6803F012
:101CAC000C03002B0BD0494B5B6803F00C03082B87
:101CBC001CD1464B5B6803F48033002B16D1434B8D
:101CCC001B6803F00203002B05D07B681B69012BFA
:101CDC0001D00123C0E13D4B1B6823F0F8027B6867
:101CEC005B69DB00394913430B603AE07B681B6985
:101CFC00002B20D0364B01221A60FFF7DBF938613C
:101D0C0008E0FFF7D7F902463B69D31A022B01D939
:101D1C000323A1E12D4B1B6803F00203002BF0D031
:101D2C002A4B1B6823F0F8027B685B69DB002749B0
:101D3C0013430B6015E0264B00221A60FFF7BAF92B
:101D4C00386108E0FFF7B6F902463B69D31A022B5B
:101D5C0001D9032380E11D4B1B6803F00203002B08
:101D6C00F0D17B681B6803F00803002B3AD07B682A
:101D7C009B69002B19D0174B01221A60FFF79AF9B7
:101D8C00386108E0FFF796F902463B69D31A022B3B
:101D9C0001D9032360E10D4B5B6A03F00203002BB6
:101DAC00F0D0012000F09CFA1CE00A4B00221A60D3
:101DBC00FFF780F938610FE0FFF77CF902463B69C9
:101DCC00D31A022B08D9032346E100BF00100240AE
:101DDC000000424280044242924B5B6A03F00203D1
:101DEC00002BE9D17B681B6803F00403002B00F087
:101DFC00A6800023FB758B4BDB6903F08053002B13
:101E0C000DD1884BDB69874A43F08053D361854BF6
:101E1C00DB6903F08053BB60BB680123FB75824B0D
:101E2C001B6803F48073002B18D17F4B1B687E4A10
:101E3C0043F480731360FFF73DF9386108E0FFF756
:101E4C0039F902463B69D31A642B01D9032303E108
:101E5C00754B1B6803F48073002BF0D07B68DB6838
:101E6C00012B06D16F4B1B6A6E4A43F001031362C0
:101E7C002DE07B68DB68002B0CD16A4B1B6A694A2E
:101E8C0023F001031362674B1B6A664A23F00403B9
:101E9C0013621CE07B68DB68052B0CD1614B1B6A61
:101EAC00604A43F0040313625E4B1B6A5D4A43F0C5
:101EBC00010313620BE05B4B1B6A5A4A23F00103CC
:101ECC001362584B1B6A574A23F0040313627B6856
:101EDC00DB68002B15D0FFF7EDF838610AE0FFF74F
:101EEC00E9F802463B69D31A41F28832934201D990
:101EFC000323B1E04B4B1B6A03F00203002BEED023
:101F0C0014E0FFF7D7F838610AE0FFF7D3F8024680
:101F1C003B69D31A41F28832934201D903239BE0E7
:101F2C00404B1B6A03F00203002BEED1FB7D012B0F
:101F3C0005D13C4BDB693B4A23F08053D3617B6872
:101F4C00DB69002B00F08780364B5B6803F00C03D9
:101F5C00082B61D07B68DB69022B46D1334B002206
:101F6C001A60FFF7A7F8386108E0FFF7A3F80246FC
:101F7C003B69D31A022B01D903236DE0294B1B6853
:101F8C0003F00073002BF0D17B681B6AB3F5803F24
:101F9C0008D1244B5B6823F400327B689B68214991
:101FAC0013434B601F4B5B6823F474127B68196AF4
:101FBC007B685B6A0B431B4913434B601B4B012231
:101FCC001A60FFF777F8386108E0FFF773F80246FC
:101FDC003B69D31A022B01D903233DE0114B1B683B
:101FEC0003F00073002BF0D035E0104B00221A6088
:101FFC00FFF760F8386108E0FFF75CF802463B69D0
:10200C00D31A022B01D9032326E0064B1B6803F0DD
:10201C000073002BF0D11EE07B68DB69012B07D12C
:10202C00012319E0001002400070004060004242A1
:10203C000B4B5B68FB60FB6803F480327B681B6AAC
:10204C009A4206D1FB6803F470127B685B6A9A4271
:10205C0001D0012300E0002318461837BD4680BD8F
:10206C000010024080B584B000AF786039607B68A6
:10207C00002B01D10123D0E06A4B1B6803F007034E
:10208C003A689A4210D9674B1B6823F007026549DE
:10209C003B6813430B60634B1B6803F007033A6800
:1020AC009A4201D00123B8E07B681B6803F002035D
:1020BC00002B20D07B681B6803F00403002B05D099
:1020CC00594B5B68584A43F4E06353607B681B6868
:1020DC0003F00803002B05D0534B5B68524A43F4C2
:1020EC0060535360504B5B6823F0F0027B689B6835
:1020FC004D4913434B607B681B6803F00103002BB5
:10210C0040D07B685B68012B07D1474B1B6803F4FD
:10211C000033002B15D101237FE07B685B68022B19
:10212C0007D1414B1B6803F00073002B09D101232D
:10213C0073E03D4B1B6803F00203002B01D101231C
:10214C006BE0394B5B6823F003027B685B683649B4
:10215C0013434B60FEF7AEFFF8600AE0FEF7AAFFF0
:10216C000246FB68D31A41F28832934201D9032309
:10217C0053E02D4B5B6803F00C027B685B689B00A3
:10218C009A42EBD1274B1B6803F007033A689A423B
:10219C0010D2244B1B6823F0070222493B681343DF
:1021AC000B60204B1B6803F007033A689A4201D07E
:1021BC00012332E07B681B6803F00403002B08D07A
:1021CC00194B5B6823F4E0627B68DB6816491343A8
:1021DC004B607B681B6803F00803002B09D0124B83
:1021EC005B6823F460527B681B69DB000E49134368
:1021FC004B6000F021F802460B4B5B681B0903F0A7
:10220C000F030A49CB5C22FA03F3094A1360094B0A
:10221C001B681846FEF70CFF002318461037BD4606
:10222C0080BD00BF00200240001002405035000865
:10223C00800000208400002080B487B000AF002311
:10224C00FB600023BB6000237B6100237B600023C9
:10225C003B611E4B5B68FB60FB6803F00C03042BBB
:10226C0002D0082B03D027E0194B3B6127E0FB6819
:10227C009B0C03F00F03174AD35C7B60FB6803F4E1
:10228C008033002B10D0114B5B685B0C03F0010307
:10229C00114AD35CBB607B680D4A03FB02F2BB683E
:1022AC00B2FBF3F37B6104E07B680C4A02FB03F3A3
:1022BC007B617B693B6102E0054B3B6100BF3B6985
:1022CC0018461C37BD4680BC704700BF001002404A
:1022DC0000127A00603500087035000800093D00D6
:1022EC0080B485B000AF78600A4B1B680A4AA2FB29
:1022FC0003235B0A7A6802FB03F3FB6000BFFB68F5
:10230C005A1EFA60002BF9D100BF00BF1437BD462E
:10231C0080BC704780000020D34D621080B582B025
:10232C0000AF78607B68002B01D1012341E07B6812
:10233C0093F83D30DBB2002B06D17B68002283F88A
:10234C003C207868FEF77EFD7B68022283F83D20F6
:10235C007B681A687B6804331946104600F05AFDF6
:10236C007B68012283F846207B68012283F83E209B
:10237C007B68012283F83F207B68012283F8402090
:10238C007B68012283F841207B68012283F842207C
:10239C007B68012283F843207B68012283F8442068
:1023AC007B68012283F845207B68012283F83D205D
:1023BC00002318460837BD4680BD80B582B000AFFB
:1023CC0078607B68002B01D1012341E07B6893F896
:1023DC003D30DBB2002B06D17B68002283F83C2019
:1023EC00786800F039F87B68022283F83D207B681E
:1023FC001A687B6804331946104600F00BFD7B68A5
:10240C00012283F846207B68012283F83E207B68FA
:10241C00012283F83F207B68012283F840207B68EF
:10242C00012283F841207B68012283F842207B68DB
:10243C00012283F843207B68012283F844207B68C7
:10244C00012283F845207B68012283F83D2000237C
:10245C0018460837BD4680BD80B483B000AF7860A5
:10246C0000BF0C37BD4680BC7047000080B586B0FD
:10247C0000AFF860B9607A607B800023FB75BB68A5
:10248C00002B09D1FB6893F83E30DBB2022B0CBF5A
:10249C0001230023DBB222E0BB68042B09D1FB68CB
:1024AC0093F83F30DBB2022B0CBF01230023DBB2CD
:1024BC0015E0BB68082B09D1FB6893F84030DBB200
:1024CC00022B0CBF01230023DBB208E0FB6893F85E
:1024DC004130DBB2022B0CBF01230023DBB2002BFB
:1024EC0001D0022353E1BB68002B09D1FB6893F8A0
:1024FC003E30DBB2012B0CBF01230023DBB222E008
:10250C00BB68042B09D1FB6893F83F30DBB2012B7D
:10251C000CBF01230023DBB215E0BB68082B09D1EB
:10252C00FB6893F84030DBB2012B0CBF0123002376
:10253C00DBB208E0FB6893F84130DBB2012B0CBF37
:10254C0001230023DBB2002B24D07B68002B02D0AC
:10255C007B88002B01D1012319E1BB68002B04D12E
:10256C00FB68022283F83E2016E0BB68042B04D1E2
:10257C00FB68022283F83F200EE0BB68082B04D1D5
:10258C00FB68022283F8402006E0FB68022283F8F5
:10259C00412001E00123FAE0BB680C2B00F2AE8075
:1025AC0001A252F823F000BFE92500080927000812
:1025BC000927000809270008312600080927000808
:1025CC0009270008092700087926000809270008B0
:1025DC000927000809270008C1260008FB685B6A68
:1025EC006D4A9A62FB685B6A6C4ADA62FB685B6AEA
:1025FC006B4A1A63FB68586A7968FB681B6834334A
:10260C001A467B88FEF7ECFE0346002B01D0012313
:10261C00BDE0FB681B68DA68FB681B6842F400725B
:10262C00DA606EE0FB689B6A5B4A9A62FB689B6AA5
:10263C005A4ADA62FB689B6A594A1A63FB68986AC1
:10264C007968FB681B6838331A467B88FEF7C8FE2E
:10265C000346002B01D0012399E0FB681B68DA6864
:10266C00FB681B6842F48062DA604AE0FB68DB6A54
:10267C00494A9A62FB68DB6A484ADA62FB68DB6AA1
:10268C00474A1A63FB68D86A7968FB681B683C3355
:10269C001A467B88FEF7A4FE0346002B01D00123CB
:1026AC0075E0FB681B68DA68FB681B6842F4006223
:1026BC00DA6026E0FB681B6B374A9A62FB681B6B7F
:1026CC00364ADA62FB681B6B354A1A63FB68186B77
:1026DC007968FB681B6840331A467B88FEF780FEDE
:1026EC000346002B01D0012351E0FB681B68DA681C
:1026FC00FB681B6842F48052DA6002E00123FB7530
:10270C0000BFFB7D002B41D1FB681B680122B9681F
:10271C00184600F00BFEFB681B68224A934207D157
:10272C00FB681B685A6CFB681B6842F400425A64D5
:10273C00FB681B681B4A93420ED0FB681B68B3F105
:10274C00804F09D0FB681B68174A934204D0FB6882
:10275C001B68164A934211D1FB681B689B6803F0F7
:10276C0007033B613B69062B10D0FB681B681A689A
:10277C00FB681B6842F001021A6007E0FB681B68EB
:10278C001A68FB681B6842F001021A60FB7D184650
:10279C001837BD4680BD00BF112D0008B92D0008AB
:1027AC007F2C0008002C0140000400400008004071
:1027BC0080B584B000AF786039600023FB733B6850
:1027CC000C2B55D801A252F823F000BF0D2800089D
:1027DC007D2800087D2800087D280008292800088D
:1027EC007D2800087D2800087D2800084528000861
:1027FC007D2800087D2800087D2800086128000835
:10280C007B681B68DA687B681B6822F40072DA60EC
:10281C007B685B6A1846FEF743FE2CE07B681B68FE
:10282C00DA687B681B6822F48062DA607B689B6ADA
:10283C001846FEF735FE1EE07B681B68DA687B687D
:10284C001B6822F40062DA607B68DB6A1846FEF7CC
:10285C0027FE10E07B681B68DA687B681B6822F433
:10286C008052DA607B681B6B1846FEF719FE02E09B
:10287C000123FB7300BFFB7B002B57D17B681B68CC
:10288C0000223968184600F051FD7B681B682A4A03
:10289C00934217D17B681B681A6A41F211131340DB
:1028AC00002B0FD17B681B681A6A40F2444313401B
:1028BC00002B07D17B681B685A6C7B681B6822F461
:1028CC0000425A647B681B681A6A41F21113134068
:1028DC00002B0FD17B681B681A6A40F244431340EB
:1028EC00002B07D17B681B681A687B681B6822F079
:1028FC0001021A603B68002B04D17B68012283F82B
:10290C003E2013E03B68042B04D17B68012283F842
:10291C003F200BE03B68082B04D17B68012283F835
:10292C00402003E07B68012283F84120FB7B1846A2
:10293C001037BD4680BD00BF002C014080B586B06D
:10294C0000AFF860B9607A600023FB75FB6893F800
:10295C003C30012B01D10223AEE0FB68012283F84D
:10296C003C207B680C2B00F29F8001A252F823F0D4
:10297C00B1290008B52A0008B52A0008B52A0008B4
:10298C00F1290008B52A0008B52A0008B52A000864
:10299C00332A0008B52A0008B52A0008B52A000811
:1029AC00732A0008FB681B68B968184600F0A0FA87
:1029BC00FB681B689A69FB681B6842F008029A6105
:1029CC00FB681B689A69FB681B6822F004029A6119
:1029DC00FB681B689969BB681A69FB681B680A432A
:1029EC009A6164E0FB681B68B968184600F0E6FA67
:1029FC00FB681B689A69FB681B6842F400629A6169
:102A0C00FB681B689A69FB681B6822F480629A61F8
:102A1C00FB681B689969BB681B691A02FB681B6819
:102A2C000A439A6143E0FB681B68B968184600F0DA
:102A3C002FFBFB681B68DA69FB681B6842F0080215
:102A4C00DA61FB681B68DA69FB681B6822F0040218
:102A5C00DA61FB681B68D969BB681A69FB681B687B
:102A6C000A43DA6123E0FB681B68B968184600F07A
:102A7C0079FBFB681B68DA69FB681B6842F400622F
:102A8C00DA61FB681B68DA69FB681B6822F48062F8
:102A9C00DA61FB681B68D969BB681B691A02FB68A1
:102AAC001B680A43DA6102E00123FB7500BFFB6877
:102ABC00002283F83C20FB7D18461837BD4680BDAC
:102ACC0080B584B000AF786039600023FB737B68FD
:102ADC0093F83C30012B01D10223B4E07B68012236
:102AEC0083F83C207B68022283F83D207B681B68BE
:102AFC009B68BB60BB6823F07703BB60BB6823F4A7
:102B0C007F43BB607B681B68BA689A603B681B6834
:102B1C00B3F5005F3ED0B3F5005F00F28780B3F5EC
:102B2C00805F00F08680B3F5805F7FD8702B1AD061
:102B3C00702B7BD8602B50D0602B77D8502B3CD08F
:102B4C00502B73D8402B58D0402B6FD8302B64D0DF
:102B5C00302B6BD8202B60D0202B67D8002B5CD06F
:102B6C00102B5AD062E07B6818683B6899683B6808
:102B7C005A683B68DB6800F0BAFB7B681B689B6893
:102B8C00BB60BB6843F07703BB607B681B68BA68AB
:102B9C009A604FE07B6818683B6899683B685A6894
:102BAC003B68DB6800F0A3FB7B681B689A687B685A
:102BBC001B6842F480429A603CE07B6818683B6872
:102BCC0059683B68DB681A4600F01AFB7B681B6887
:102BDC005021184600F071FB2CE07B6818683B68AC
:102BEC0059683B68DB681A4600F038FB7B681B6849
:102BFC006021184600F061FB1CE07B6818683B689C
:102C0C0059683B68DB681A4600F0FAFA7B681B6867
:102C1C004021184600F051FB0CE07B681A683B68B9
:102C2C001B681946104600F048FB03E00123FB73B8
:102C3C0000E000BF7B68012283F83D207B68002206
:102C4C0083F83C20FB7B18461037BD4680BD80B412
:102C5C0083B000AF786000BF0C37BD4680BC7047B6
:102C6C0080B483B000AF786000BF0C37BD4680BC29
:102C7C00704780B584B000AF78607B685B6AFB609E
:102C8C00FB685B6A7A689A4207D1FB6801221A7763
:102C9C00FB68012283F83E202AE0FB689B6A7A6875
:102CAC009A4207D1FB6802221A77FB68012283F84B
:102CBC003F201DE0FB68DB6A7A689A4207D1FB680B
:102CCC0004221A77FB68012283F8402010E0FB688D
:102CDC001B6B7A689A4207D1FB6808221A77FB684B
:102CEC00012283F8412003E0FB68012283F83D2098
:102CFC00F868FFF7B5FFFB6800221A7700BF1037A2
:102D0C00BD4680BD80B584B000AF78607B685B6ADF
:102D1C00FB60FB685B6A7A689A420BD1FB68012204
:102D2C001A777B689B69002B36D1FB68012283F8EC
:102D3C003E2031E0FB689B6A7A689A420BD1FB68B3
:102D4C0002221A777B689B69002B25D1FB68012234
:102D5C0083F83F2020E0FB68DB6A7A689A420BD14B
:102D6C00FB6804221A777B689B69002B14D1FB68E3
:102D7C00012283F840200FE0FB681B6B7A689A42B3
:102D8C000AD1FB6808221A777B689B69002B03D158
:102D9C00FB68012283F84120F868FDF7D1F9FB6844
:102DAC0000221A7700BF1037BD4680BD80B584B0B5
:102DBC0000AF78607B685B6AFB60FB685B6A7A6873
:102DCC009A4203D1FB6801221A7719E0FB689B6ACF
:102DDC007A689A4203D1FB6802221A7710E0FB68EA
:102DEC00DB6A7A689A4203D1FB6804221A7707E0FF
:102DFC00FB681B6B7A689A4202D1FB6808221A772F
:102E0C00F868FFF724FFFB6800221A7700BF103721
:102E1C00BD4680BD80B485B000AF786039607B68FA
:102E2C001B68FB607B682F4A93420BD07B68B3F125
:102E3C00804F07D07B682C4A934203D07B682B4A87
:102E4C00934208D1FB6823F07003FB603B685B681E
:102E5C00FA681343FB607B68224A93420BD07B6871
:102E6C00B3F1804F07D07B681F4A934203D07B6835
:102E7C001E4A934208D1FB6823F44073FB603B6805
:102E8C00DB68FA681343FB60FB6823F080023B6845
:102E9C005B691343FB607B68FA681A603B689A684D
:102EAC007B68DA623B681A687B689A627B680D4AB9
:102EBC00934203D13B681A697B681A637B680122D1
:102ECC005A617B681B6903F00103002B05D07B68FA
:102EDC001B6923F001027B681A6100BF1437BD46E1
:102EEC0080BC7047002C01400004004000080040EA
:102EFC0080B487B000AF786039607B681B6A7B61F7
:102F0C007B681B6A23F001027B681A627B685B6832
:102F1C003B617B689B69FB60FB6823F07003FB6083
:102F2C00FB6823F00303FB603B681B68FA681343E0
:102F3C00FB607B6923F002037B613B689B687A69C9
:102F4C0013437B617B681C4A93420CD17B6923F051
:102F5C0008037B613B68DB687A6913437B617B699F
:102F6C0023F004037B617B68134A934211D13B69C4
:102F7C0023F480733B613B6923F400733B613B6832
:102F8C005B693A6913433B613B689B693A6913433C
:102F9C003B617B683A695A607B68FA689A613B6866
:102FAC005A687B685A637B687A691A6200BF1C375F
:102FBC00BD4680BC704700BF002C014080B487B078
:102FCC0000AF786039607B681B6A7B617B681B6A29
:102FDC0023F010027B681A627B685B683B617B683C
:102FEC009B69FB60FB6823F4E043FB60FB6823F404
:102FFC004073FB603B681B681B02FA681343FB6061
:10300C007B6923F020037B613B689B681B017A6919
:10301C0013437B617B681D4A93420DD17B6923F07E
:10302C0080037B613B68DB681B017A6913437B611E
:10303C007B6923F040037B617B68144A934213D174
:10304C003B6923F480633B613B6923F400633B6180
:10305C003B685B699B003A6913433B613B689B6926
:10306C009B003A6913433B617B683A695A607B6801
:10307C00FA689A613B685A687B689A637B687A69DC
:10308C001A6200BF1C37BD4680BC7047002C014043
:10309C0080B487B000AF786039607B681B6A7B6155
:1030AC007B681B6A23F480727B681A627B685B689E
:1030BC003B617B68DB69FB60FB6823F07003FB60A2
:1030CC00FB6823F00303FB603B681B68FA6813433F
:1030DC00FB607B6923F400737B613B689B681B027C
:1030EC007A6913437B617B681D4A93420DD17B69DE
:1030FC0023F400637B613B68DB681B027A69134332
:10310C007B617B6923F480637B617B68144A934207
:10311C0013D13B6923F480533B613B6923F4005387
:10312C003B613B685B691B013A6913433B613B683C
:10313C009B691B013A6913433B617B683A695A608E
:10314C007B68FA68DA613B685A687B68DA637B688B
:10315C007A691A6200BF1C37BD4680BC704700BF3D
:10316C00002C014080B487B000AF786039607B6878
:10317C001B6A3B617B681B6A23F480527B681A6272
:10318C007B685B687B617B68DB69FB60FB6823F4B5
:10319C00E043FB60FB6823F44073FB603B681B68F7
:1031AC001B02FA681343FB603B6923F400533B6139
:1031BC003B689B681B033A6913433B617B680F4A6E
:1031CC00934209D17B6923F480437B613B685B6943
:1031DC009B017A6913437B617B687A695A607B68CF
:1031EC00FA68DA613B685A687B681A647B683A69EA
:1031FC001A6200BF1C37BD4680BC7047002C0140D2
:10320C0080B487B000AFF860B9607A60FB681B6A65
:10321C007B61FB681B6A23F00102FB681A62FB6886
:10322C009B693B613B6923F0F0033B617B681B01AD
:10323C003A6913433B617B6923F00A037B617A692A
:10324C00BB6813437B61FB683A699A61FB687A69D6
:10325C001A6200BF1C37BD4680BC704780B487B073
:10326C0000AFF860B9607A60FB681B6A7B61FB6831
:10327C001B6A23F01002FB681A62FB689B693B61B6
:10328C003B6923F470433B617B681B033A6913432E
:10329C003B617B6923F0A0037B61BB681B017A69EE
:1032AC0013437B61FB683A699A61FB687A691A621D
:1032BC0000BF1C37BD4680BC704780B485B000AFE2
:1032CC00786039607B689B68FB60FB6823F0700357
:1032DC00FB603A68FB68134343F00703FB607B68B1
:1032EC00FA689A6000BF1437BD4680BC704780B442
:1032FC0087B000AFF860B9607A603B60FB689B6890
:10330C007B617B6923F47F437B613B681A027B689A
:10331C001A43BB6813437A6913437B61FB687A6970
:10332C009A6000BF1C37BD4680BC704780B487B024
:10333C0000AFF860B9607A60BB6803F01F0301222C
:10334C0002FA03F37B61FB681A6A7B69DB431A4060
:10335C00FB681A62FB681A6ABB6803F01F03796882
:10336C0001FA03F31A43FB681A6200BF1C37BD460F
:10337C0080BC704780B485B000AF786039607B68E2
:10338C0093F83C30012B01D1022346E07B680122EB
:10339C0083F83C207B68022283F83D207B681B6805
:1033AC005B68FB607B681B689B68BB60FB6823F0F9
:1033BC007003FB603B681B68FA681343FB607B6817
:1033CC001B68FA685A607B681B68164A93420ED0D9
:1033DC007B681B68B3F1804F09D07B681B68124A6D
:1033EC00934204D07B681B68104A93420CD1BB6893
:1033FC0023F08003BB603B685B68BA681343BB6017
:10340C007B681B68BA689A607B68012283F83D2050
:10341C007B68002283F83C20002318461437BD46F5
:10342C0080BC7047002C01400004004000080040A4
:10343C0080B485B000AF786039600023FB607B6896
:10344C0093F83C30012B01D102233DE07B68012233
:10345C0083F83C20FB6823F0FF023B68DB681343D6
:10346C00FB60FB6823F440723B689B681343FB6072
:10347C00FB6823F480623B685B681343FB60FB686A
:10348C0023F400623B681B681343FB60FB6823F466
:10349C0080523B681B691343FB60FB6823F40052AA
:1034AC003B685B691343FB60FB6823F480423B6819
:1034BC00DB691343FB607B681B68FA685A647B68A2
:1034CC00002283F83C20002318461437BD4680BCEC
:1034DC00704703460244934200D1704703F8011B26
:1034EC00F9E7000070B500260C4D0D4C641BA410C0
:1034FC00A64209D100F01AF800260A4D0A4C641BAA
:10350C00A410A64205D170BD55F8043B984701366E
:10351C00EEE755F8043B98470136F2E7743500089E
:10352C00743500087435000878350008F8B500BF0C
:10353C00F8BC08BC9E467047F8B500BFF8BC08BC88
:04354C009E467047E0
:103550000000000000000000010203040607080943
:1035600002030405060708090A0B0C0D0E0F1010C4
:043570000102000054
:043574003101000819
:043578000D01000839
:10357C000000000064000000FF000000FF000000DD
:10358C000000000000000000FF000000140000001C
:10359C009300000000000000FF000000000000008D
:1035AC0000080140000801400008014000080140EB
:1035BC00100020004000800000080140000801407D
:1035CC00000801400008014001000200040008004E
:1035DC00333231303736353442413938464544433D
:1035EC000300000001000000050000003200000094
:0C35FC0000127A00100000000100000026
:0400000508000FC51B
:00000001FF
