:020000040800F2
:1000000000500020711C0008F91B0008011C0008AA
:10001000091C0008111C0008191C00080000000041
:10002000000000000000000000000000211C00088B
:100030002D1C000800000000391C0008451C0008A9
:10004000B91C0008B91C0008B91C0008B91C00083C
:10005000B91C0008B91C0008B91C0008B91C00082C
:10006000B91C0008B91C0008B91C0008B91C00081C
:10007000511C0008B91C0008B91C0008B91C000874
:10008000B91C0008B91C0008B91C0008B91C0008FC
:10009000B91C0008B91C0008B91C0008B91C0008EC
:1000A000B91C0008B91C0008B91C0008B91C0008DC
:1000B000B91C0008B91C0008B91C0008B91C0008CC
:1000C000B91C0008B91C0008B91C0008B91C0008BC
:1000D000B91C0008B91C0008B91C0008B91C0008AC
:1000E000B91C0008B91C0008B91C00080000000079
:1000F0000000000000000000000000000000000000
:0C01000000000000000000005FF808F1A3
:10010C0010B5054C237833B9044B13B10448AFF345
:10011C0000800123237010BD14000020000000009B
:10012C00944D000808B5034B1BB103490348AFF3CA
:10013C00008008BD0000000018000020944D00084D
:10014C0080F0004002E000BF81F0004142001FBF80
:10015C005FEA410392EA030F7FEA226C7FEA236C89
:10016C006AD04FEA1262D2EB1363C1BFD21841407E
:10017C0048404140B8BF5B42192B88BF704710F014
:10018C00004F40F4000020F07F4018BF404211F0B7
:10019C00004F41F4000121F07F4118BF494292EA1F
:1001AC00030F3FD0A2F1010241FA03FC10EB0C004B
:1001BC00C3F1200301FA03F100F0004302D54942D8
:1001CC0060EB4000B0F5000F13D3B0F1807F06D385
:1001DC0040084FEA310102F10102FE2A51D2B1F17D
:1001EC00004F40EBC25008BF20F0010040EA030072
:1001FC007047490040EB0000013A28BFB0F5000FF2
:10020C00EDD2B0FA80FCACF1080CB2EB0C0200FAA7
:10021C000CF0AABF00EBC25052421843BCBFD040F6
:10022C001843704792F0000F81F4000106BF80F470
:10023C0000000132013BB5E74FEA41037FEA226C33
:10024C0018BF7FEA236C21D092EA030F04D092F0FE
:10025C00000F08BF0846704790EA010F1CBF002032
:10026C00704712F07F4F04D1400028BF40F000408F
:10027C00704712F100723CBF00F50000704700F0AF
:10028C00004343F0FE4040F4000070477FEA2262D6
:10029C0016BF08467FEA23630146420206BF5FEAA7
:1002AC00412390EA010F40F4800070474FF00003A7
:1002BC0004E000BF10F0004348BF40425FEA000C6E
:1002CC0008BF704743F0964301464FF000001CE016
:1002DC0050EA010208BF70474FF000030AE000BF6C
:1002EC0050EA010208BF704711F0004302D54042AA
:1002FC0061EB41015FEA010C02BF8446014600201C
:10030C0043F0B64308BFA3F18053A3F50003BCFA36
:10031C008CF2083AA3EBC25310DB01FA02FC6344E3
:10032C0000FA02FCC2F12002BCF1004F20FA02F2EA
:10033C0043EB020008BF20F00100704702F12002DD
:10034C0001FA02FCC2F1200250EA4C0021FA02F23E
:10035C0043EB020008BF20EADC7070474FF0FF0C43
:10036C001CEAD0521EBF1CEAD15392EA0C0F93EA3E
:10037C000C0F6FD01A4480EA010C400218BF5FEAE0
:10038C0041211ED04FF0006343EA501043EA511153
:10039C00A0FB01310CF00040B1F5000F3EBF49004D
:1003AC0041EAD3715B0040EA010062F17F02FD2A51
:1003BC001DD8B3F1004F40EBC25008BF20F0010034
:1003CC00704790F0000F0CF0004C08BF49024CEA4B
:1003DC00502040EA51207F3AC2BFD2F1FF0340EADD
:1003EC00C250704740F400004FF00003013A5DDC4E
:1003FC0012F1190FDCBF00F000407047C2F100028F
:10040C00410021FA02F1C2F1200200FA02FC5FEA7B
:10041C00310040F1000053EA4C0308BF20EADC70C5
:10042C00704792F0000F00F0004C02BF400010F437
:10043C00000F013AF9D040EA0C0093F0000F01F0E4
:10044C00004C02BF490011F4000F013BF9D041EA06
:10045C000C018FE70CEAD15392EA0C0F18BF93EA08
:10046C000C0F0AD030F0004C18BF31F0004CD8D132
:10047C0080EA010000F00040704790F0000F17BFB9
:10048C0090F0004F084691F0000F91F0004F14D0FF
:10049C0092EA0C0F01D142020FD193EA0C0F03D157
:1004AC004B0218BF084608D180EA010000F000405A
:1004BC0040F0FE4040F40000704740F0FE4040F435
:1004CC00400070474FF0FF0C1CEAD0521EBF1CEAD4
:1004DC00D15392EA0C0F93EA0C0F69D0A2EB0302F2
:1004EC0080EA010C49024FEA402037D04FF080538C
:1004FC0043EA111143EA10130CF000408B4238BF51
:10050C005B0042F17D024FF4000C8B4224BF5B1A5E
:10051C0040EA0C00B3EB510F24BFA3EB510340EAAC
:10052C005C00B3EB910F24BFA3EB910340EA9C005A
:10053C00B3EBD10F24BFA3EBD10340EADC001B01CA
:10054C0018BF5FEA1C1CE0D1FD2A3FF650AF8B426E
:10055C0040EBC25008BF20F0010070470CF0004C7B
:10056C004CEA50207F32C2BFD2F1FF0340EAC250A6
:10057C00704740F400004FF00003013A37E792F067
:10058C00000F00F0004C02BF400010F4000F013AC5
:10059C00F9D040EA0C0093F0000F01F0004C02BFC0
:1005AC00490011F4000F013BF9D041EA0C0195E729
:1005BC000CEAD15392EA0C0F08D142027FF47DAFC2
:1005CC0093EA0C0F7FF470AF084676E793EA0C0FB2
:1005DC0004D14B023FF44CAF08466EE730F0004CB0
:1005EC0018BF31F0004CCAD130F000427FF45CAF40
:1005FC0031F000437FF43CAF5FE700BF42000ED206
:10060C00B2F1FE4F0BD34FF09E03B3EB126209D441
:10061C004FEA002343F0004323FA02F070474FF0F7
:10062C000000704712F1610F01D1420202D14FF06C
:10063C00FF3070474FF00000704700BF80B500AF2F
:10064C0000F040F8642001F095FB002201211C48C9
:10065C0002F004FD00220221194802F0FFFC0320E5
:10066C0000F0E0F80A2001F085FB032000F0DAF836
:10067C00052001F07FFB032000F0D4F8052001F0E9
:10068C0079FB022000F0CEF8052001F073FB282046
:10069C0000F085F8052001F06DFB0C2000F07FF8D0
:1006AC00052001F067FB00F05BF8052001F062FB10
:1006BC00062000F074F8052001F05CFB00BF80BD43
:1006CC00000C014080B586B000AF07F10803002292
:1006DC001A605A609A60DA601F4B9B691E4A43F09D
:1006EC00080393611C4B9B6903F008037B607B68D8
:1006FC000123BB600123FB6000233B6102237B6170
:10070C0007F108031946154802F024FB0223BB60CD
:10071C0007F108031946114802F01CFB4FF4704313
:10072C00BB6007F1080319460C4802F013FB0022CA
:10073C0001210A4802F092FC00220221074802F033
:10074C008DFC00224FF47041044802F087FC00BF7E
:10075C001837BD4680BD00BF00100240000C0140A0
:10076C0080B500AF012000F01AF8022001F002FB66
:10077C0000BF80BD80B582B000AF786006E07B68BA
:10078C005A1C7A601B78184600F017F87B681B78A7
:10079C00002BF4D100BF00BF0837BD4680BD80B52B
:1007AC0082B000AF0346FB71FB790021184600F0C4
:1007BC0013F800BF0837BD4680BD80B582B000AFCE
:1007CC000346FB71FB790121184600F005F800BFC8
:1007DC000837BD4680BD000080B582B000AF03462F
:1007EC000A46FB711346BB71BB79002B14BF012366
:1007FC000023DBB21A460121094802F02FFCFB79D9
:10080C001B09DBB2184600F00DF8FB7903F00F035F
:10081C00DBB2184600F006F800BF0837BD4680BDB5
:10082C00000C014080B582B000AF0346FB71FB7930
:10083C0003F00103DBB21A464FF48051164802F064
:10084C000DFCFB795B10DBB203F00103DBB21A4643
:10085C004FF40051104802F001FCFB799B10DBB205
:10086C0003F00103DBB21A464FF480410A4802F050
:10087C00F5FBFB79DB10DBB203F00103DBB21A46AC
:10088C004FF40041044802F0E9FB00F007F800BF08
:10089C000837BD4680BD00BF000C014080B582B05A
:1008AC0000AF01220221104802F0D8FB00237B602C
:1008BC0002E07B6801337B607B68312BF9DD002221
:1008CC000221094802F0CAFB00233B6002E03B68AE
:1008DC0001333B603B68B3F57A7FF8DB00BF00BFA8
:1008EC000837BD4680BD00BF000C014080B483B00A
:1008FC0000AF0023FB712EE0FB791C4AD35CBB716B
:10090C00FA79BB799A4223D2FB79194A32F813301F
:10091C00BB80BA79FB79164931F91210144A22F8C6
:10092C001310BB791249BA8821F81320FB79114AAC
:10093C0032F81330BB80BA79FB790E4931F91210B9
:10094C000C4A22F81310BB790A49BA8821F81320F3
:10095C00FB790133FB7197F90730002BCCDA00BF20
:10096C0000BF0C37BD4680BC704700BF544E00081A
:10097C00EC010020EC02002080B485B000AF0346EF
:10098C00B9607A60FB73FB7B03F01F03084A32F9F2
:10099C001320BB681A80FB7B03F01F03054A32F956
:1009AC0013207B681A8000BF1437BD4680BC70478B
:1009BC00144F0008D44E000880B588B000AF034631
:1009CC000A46FB711346BB71BB795B087B7700232E
:1009DC00FB777FE00023BB7774E0FA7FBB7F134487
:1009EC003B773A7F7B7F1344FB76BA7FFB79C3F16D
:1009FC00060302FA03F3DBB203F01F03BB7607F125
:100A0C00080207F10A01BB7E1846FFF7B5FFFB7E13
:100A1C00354A32F91330B7F90A2003FB02F2FB7E98
:100A2C00324931F91330B7F9081001FB03F31344C1
:100A3C00DB137B61FB7E2D4A32F91330B7F90A20A8
:100A4C0003FB02F2FB7E284931F91330B7F9081089
:100A5C0001FB03F3D31ADB133B613B7F224A32F8D1
:100A6C001330FB813B7F214A32F81330BB817B6909
:100A7C009AB2FB8913449AB23B7F11B21A4A22F8FC
:100A8C0013103B699AB2BB8913449AB23B7F11B2E3
:100A9C00164A22F81310FA897B699BB2D31A9AB2C0
:100AAC00FB7E11B2104A22F81310BA893B699BB233
:100ABC00D31A9AB2FB7E11B20C4A22F81310BB7FE8
:100ACC000133BB77BA7F7B7F9A4286D3FA7FBB799F
:100ADC001344FB7797F91F30002BBFF67BAF00BF99
:100AEC0000BF2037BD4680BDEC010020EC02002089
:100AFC0080B582B000AFFFF7F9FE0023FB710EE06A
:100B0C00FB790133012202FA03F3BB71BA79FB7949
:100B1C0011461846FFF750FFFB790133FB71FB7947
:100B2C00062BEDD900BF00BF0837BD4680BD0000C5
:100B3C0080B489B000AF254B00221A800123FB77CB
:100B4C003BE0FB7F224A32F91330BB61FB7F214A29
:100B5C0032F913307B61BB69002BB8BF5B423B6140
:100B6C007B69002BB8BF5B42FB60FA683B69934220
:100B7C00B8BF1346BB60FA683B699342A8BF1346E3
:100B8C007B60BB6899B27B685B109AB2FB7F0A44AE
:100B9C0091B2114A22F81310FB7F0F4A32F813203E
:100BAC000A4B1B889A4205D9FB7F0B4A32F813205B
:100BBC00064B1A80FB7F0133FB77FB7F3F2BC0D9A1
:100BCC0000BF00BF2437BD4680BC7047D204002054
:100BDC00EC010020EC020020EC03002090B583B067
:100BEC0000AF454B1B88002B00F082804FF48043F4
:100BFC00BB80414B1B88BA889A422ED23F4B1B8834
:100C0C001846FFF757FB03463D491846FFF7A6FB6E
:100C1C0003461C46BB881846FFF74CFB0346194697
:100C2C002046FFF79BFB03461C46334B1B8818469C
:100C3C00FFF740FB034619462046FFF743FC0346EB
:100C4C002F491846FFF73EFC03461846FFF7D6FC23
:100C5C0003469AB2294B1A8013E0BB885B089AB200
:100C6C00254B1B889A420CD9244B1B881A46BB88EF
:100C7C0002FB03F3204A128893FBF2F39AB21F4B48
:100C8C001A801E4B1B88B3F5006F03D91B4B4FF416
:100C9C0000621A80194B1B883F2B02D8174B40223D
:100CAC001A800123FB7120E0FB79164A32F81330CD
:100CBC001A46124B1B8802FB03F33B603B681A0A73
:100CCC00FB7991B20F4A22F81310FB790D4A32F8D6
:100CDC0013301BB2002B05DAFB790A4A47F6FF7179
:100CEC0022F81310FB790133FB71FB793F2BDBD915
:100CFC0000BF0C37BD4690BDD20400200000002080
:100D0C00CDCC4C3FEC030020B0B58CB000AF01F063
:100D1C0027F8B861814B3C1D1D460FCD0FC42B68C5
:100D2C002360002387F82F30EDE00023BB62002303
:100D3C0087F8273097F82F305B0030333B4413F89B
:100D4C002C3C87F826302BE097F826303F2B22D806
:100D5C0097F82630724A32F81330BB8497F8263055
:100D6C000C2B0FD997F82630262B0BD8BA8C1346A0
:100D7C001B019B1ADB006B4A82FB03125211DB171F
:100D8C00D31ABB84BB8CBA6A1344BB6297F8273066
:100D9C00013387F8273097F82630013387F826304F
:100DAC0097F82F305B0030333B4413F82B3C97F80B
:100DBC0026209A42C8D997F82730002B06D097F8EE
:100DCC002730BA6AB2FBF3F39BB200E000237B84BA
:100DDC007B8C182B01D800237B847B8C002B16D0AA
:100DEC0000233B847B8CFB8302E03B8C01333B84F4
:100DFC00FB8B5B08FB83FB8B002BF6D13B8C7A8C3B
:100E0C0002FB03F3002B00DA0F331B117B847B8C6A
:100E1C001846FFF74FFA034643491846FFF79EFA68
:100E2C0003461C4697F82F30404A32F813301846C8
:100E3C00FFF740FA03463E491846FFF78FFA034680
:100E4C0019462046FFF782F9034697F82F401846BB
:100E5C00FFF7D4FB03469AB2364B23F8142097F8CD
:100E6C002F30344A32F8132097F82F30324931F8AA
:100E7C0013309A4210D997F82F2097F82F302D491C
:100E8C0031F812102C4A22F8131097F82F302B49F6
:100E9C00BA6941F8232027E097F82F30274A52F8F7
:100EAC002330BA69D31AB3F5967F1DD997F82F3032
:100EBC00214A32F81330002B16D097F82F301E4AE7
:100ECC0032F813301A4613465B0013445B019B1A2D
:100EDC00144A82FB03125211DB17D21A97F82F30E7
:100EEC0091B2154A22F8131097F82F2097F82F304B
:100EFC00104931F812100D4A22F8131097F82F30C0
:100F0C00013387F82F3097F82F30092B7FF60DAF70
:100F1C0000BF00BF3037BD46B0BD00BFAC4D0008B0
:100F2C00EC0300201F85EB513333333F800400204A
:100F3C009A99993E6C04002094040020A804002087
:100F4C0080B485B000AFBA607B600346FB730B4680
:100F5C00BB73FB7B092B00F2A88001A252F823F093
:100F6C00950F0008AD0F0008C50F0008DD0F000835
:100F7C00011000081F1000083D1000085F10000849
:100F8C00811000089F100008BB7B5B08DAB2BB68BD
:100F9C001A707B6800221A70BB69BA7B1A7084E0E5
:100FAC00BB6800221A70BB7B9B08DAB27B681A7094
:100FBC00BB69BA7B1A7078E0BB6800221A70BB7BE5
:100FCC005B08DAB27B681A70BB69BA7B1A706CE08A
:100FDC00BB6800221A70BA7B13465B001344002BCB
:100FEC0000DA03339B10DAB27B681A70BB69BA7BE8
:100FFC001A705AE0BB6800221A707B68BA7B1A70B0
:10100C00BB7B2C4AA2FB03235B08DAB2BB691A70C8
:10101C004BE0BB7B274AA2FB03235B08DAB2BB681D
:10102C001A707B68BA7B1A70BB6900221A703CE09C
:10103C00BB7B5B00204A82FB0312DB17D31ADAB2AC
:10104C00BB681A707B68BA7B1A70BB6900221A7075
:10105C002BE0BB68BA7B1A70BB7B5B00164A82FB29
:10106C000312DB17D31ADAB27B681A70BB69002241
:10107C001A701AE0BB68BA7B1A70BB7B0D4AA2FBD4
:10108C0003235B08DAB27B681A70BB6900221A7002
:10109C000BE0BB68BA7B1A707B6800221A70BB7BB2
:1010AC009B08DAB2BB691A7000BF00BF1437BD468B
:1010BC0080BC7047ABAAAAAA5655555580B582B0CC
:1010CC0000AF00F04DFE7860274B1B687A689A429F
:1010DC0006D100F045FE0246234B1B689A423ED1D6
:1010EC00224800F043FF0121204801F019F8034683
:1010FC00002B31D11D4801F019F903467B801B48A8
:10110C0000F0E2FF7B88A3F500639BB23B803A883A
:10111C00174BB3F900301B111BB29BB2D31A9BB205
:10112C003B80134A3B881380124B1B781946124A9A
:10113C003B8822F811300F4B1B780133DAB20D4B80
:10114C001A700C4B1B785BB2002B05DA094B002292
:10115C001A700A4B01221A70034A7B68136000BF95
:10116C000837BD4680BD00BF5C1200203000002057
:10117C0060120020D0040020EC000020D1040020DC
:10118C00F0B587B002AF0023FB7308E0F87B0023B7
:10119C000022002100F0B0F8FB7B0133FB73FB7BDA
:1011AC003B2BF3D90023BB738DE0BB7B4D4A32F84C
:1011BC0013301B09BB81BB89FF2B01D9FF23BB81DA
:1011CC00BB89FB71FB790A2B7AD9FB79464A82FBE6
:1011DC0003125211DB17D31AFB72FB7A032B01D9C2
:1011EC000323FB72BC1CFA1CF979B87B7B1C0093A3
:1011FC002346FFF7A5FE0023BB7239E0BB7AC3F18F
:10120C0002037B71BB7A1A461B01D31A9B00DBB21B
:10121C00013B3B717879B97BFB781A463B7902FB31
:10122C0003F3324A82FB03421A44D211DB17D41A5D
:10123C00BB781A463B7902FB03F32C4A82FB035220
:10124C001A44D211DB17D51A7B781A463B7902FB6C
:10125C0003F3264A82FB03621A44D211DB17D31A1A
:10126C0000932B46224600F079F8BB7A0133BB720F
:10127C00BA7AFB7A9A42C1D3BB7B1D4A32F813303F
:10128C001B093B813B89FF2B01D9FF233B813B8908
:10129C00154A82FB03125211DB17D31ABB71BB79AF
:1012AC00022B0DD8BA79FB7A9A4209D9BB79C3F1D2
:1012BC000200B97BFF230093FF23FF2200F04EF8BE
:1012CC00BB7B0133BB73BB7B092B7FF66EAF094B2A
:1012DC001B68184600F076F800F0C2F800BF14370F
:1012EC00BD46F0BD6C040020616060608180808030
:1012FC00940400200400002080B485B000AFF86096
:10130C00B9607A603B60FB68002B20DBFB683B2BF1
:10131C001DDCFB68D9B2104AFB6802F823107B680D
:10132C00D9B20D4AFB689B0013440A465A70BB683D
:10133C00D9B2094AFB689B0013440A469A703B6871
:10134C00D9B2054AFB689B0013440A46DA7000BF09
:10135C001437BD4680BC7047D404002080B5A2B0C1
:10136C0000AFF860B9607A603B60FB68002B22DB51
:10137C00FB68022B1FDCBB68002B1CDBBB68092B3A
:10138C0019DC0F4A07F1100311467822184603F0B6
:10139C00EDFCFA6813469B0013445B00BA681344D7
:1013AC009B0088333B4453F8780CD7F890303A685C
:1013BC007968FFF7A1FF00BF8837BD4680BD00BF2D
:1013CC00C04D000880B485B000AF78607B68642B9A
:1013DC0001DD64237B607B68002B01DA00237B60DA
:1013EC000023FB602DE01B4AFB6812F823101A4AFD
:1013FC00FB6802F823100123BB601CE0154AFB6854
:10140C009B001A44BB6813441B781A467B6802FB8A
:10141C0003F3124A82FB03125211DB17D31AD9B20F
:10142C000D4AFB689B001A44BB6813440A461A70A9
:10143C00BB680133BB60BB68032BDFDDFB6801338A
:10144C00FB60FB683B2BCEDD00BF00BF1437BD46F5
:10145C0080BC7047D4040020C40500201F85EB51CC
:10146C0080B586B000AF00237B6100233B6131E087
:10147C00344A3B699B0013445B781A0431493B693D
:10148C009B000B449B781B021A432E493B699B0023
:10149C000B44DB7813433B601723FB6014E0012201
:1014AC00FB6802FA03F31A463B681340002B01D089
:1014BC003C2100E01E217B695A1C7A61224A22F8E9
:1014CC001310FB68013BFB60FB68002BE7DA3B6900
:1014DC0001333B613B693B2BCADD0023BB6009E058
:1014EC007B695A1C7A61184A002122F81310BB68D8
:1014FC000133BB60BB68312BF2DD144B00221A6048
:10150C007B699BB2104A0021114802F0CFFB114BB2
:10151C007B6000BF0D4B1B68002B04D17B685A1EEF
:10152C007A60002BF6D17B68002B06D1002108488D
:10153C0002F05EFD054B01221A6000BF1837BD4654
:10154C0080BD00BFC4050020B40600205812002046
:10155C0060000020A086010080B483B000AF7860EA
:10156C007B681B68054A934202D1054B01221A6025
:10157C0000BF0C37BD4680BC704700BF002C01403B
:10158C005812002080B582B000AF00F091FB00F043
:10159C0097F800F0EDF900F0CDF900F02BF900F020
:1015AC00EBF8FFF74BF8FFF7DBF83948FFF7E2F8F9
:1015BC004FF47A7000F0DEFB0023FB7116E0FB7930
:1015CC00344A002122F81310FB79334A002122F807
:1015DC001310FB79314A002122F81310FB79304AA1
:1015EC00002142F82310FB790133FB71FB79092BA5
:1015FC00E5D92C4B00221A702B4B00221A702B4B66
:10160C004FF480721A800023BB7108E0B879002374
:10161C0000220021FFF770FEBB790133BB71BB794F
:10162C003B2BF3D90020FFF7CDFEFFF719FFFFF797
:10163C0097F81F48FFF79EF8FFF740FD1A4B1B78F1
:10164C00DBB2002BF8D0184B00221A7000237B71F0
:10165C000FE07A797B79174931F91210164A22F882
:10166C0013107B79154A002122F813107B79013372
:10167C007B7197F90530002BEBDAFFF739FAFFF79E
:10168C0057FAFFF7ABFAFFF73FFBFFF779FDD3E70C
:10169C00384E00086C0400208004002094040020C4
:1016AC00A8040020D0040020D10400200000002059
:1016BC004C4E0008EC000020EC010020EC02002055
:1016CC0080B594B000AF07F12803282200211846FA
:1016DC0003F01FFB07F1140300221A605A609A6092
:1016EC00DA601A613B1D00221A605A609A60DA6057
:1016FC000123BB624FF48033FB6200233B63012365
:10170C00BB6302237B644FF48033BB644FF4E01360
:10171C00FB6407F12803184601F0B8FC0346002BC4
:10172C0001D000F071F90F237B610223BB61002310
:10173C00FB614FF480633B6200237B6207F114036F
:10174C000221184601F024FF0346002B01D000F0C3
:10175C005BF902237B604FF40043FB603B1D184692
:10176C0002F090F80346002B01D000F04DF900BFB9
:10177C005037BD4680BD000080B584B000AF3B1D26
:10178C0000221A605A609A60184B194A1A60174B5B
:10179C0000229A60154B00221A73144B00221A7502
:1017AC00124B4FF46022DA61104B00225A600F4B3F
:1017BC0001221A610D4800F001FB0346002B01D0F9
:1017CC0000F022F900237B600123BB600023FB6047
:1017DC003B1D1946054800F0B5FD0346002B01D012
:1017EC0000F012F900BF1037BD4680BD300000205C
:1017FC000024014080B596B000AF07F148030022E9
:10180C001A605A609A60DA6007F1400300221A608D
:10181C005A6007F1240300221A605A609A60DA6059
:10182C001A615A619A613B1D20220021184603F06F
:10183C0070FA3E4B3E4A1A603C4B00225A603B4BBE
:10184C0000229A60394B5922DA60384B00221A6117
:10185C00364B00225A61354B00229A61334802F014
:10186C007DF90346002B01D000F0CEF84FF48053E5
:10187C00BB6407F1480319462C4802F041FD0346AE
:10188C00002B01D000F0C0F8284802F0B6F903464E
:10189C00002B01D000F0B8F800233B6400237B64DC
:1018AC0007F140031946214803F084F90346002B45
:1018BC0001D000F0A9F860237B620023BB620023F7
:1018CC00FB6200233B6300237B630023BB63002389
:1018DC00FB6307F1240300221946144802F04EFC66
:1018EC000346002B01D000F08FF800237B6000230F
:1018FC00BB600023FB6000233B6100237B614FF442
:10190C000053BB6100233B623B1D1946074803F0A3
:10191C00AFF90346002B01D000F076F8034800F035
:10192C0031F900BF5837BD4680BD00BF60000020B4
:10193C00002C014080B582B000AF0C4B5B690B4AA8
:10194C0043F001035361094B5B6903F001037B60B6
:10195C007B68002200210C2000F05FFF0C2000F0BF
:10196C0078FF00BF0837BD4680BD00BF00100240A5
:10197C0080B588B000AF07F1100300221A605A60DE
:10198C009A60DA601E4B9B691D4A43F01003936109
:10199C001B4B9B6903F01003FB60FB68184B9B69A6
:1019AC00174A43F020039361154B9B6903F0200306
:1019BC00BB60BB68124B9B69114A43F004039361F3
:1019CC000F4B9B6903F004037B607B6800224FF490
:1019DC0000510C4801F042FB4FF400533B610123D2
:1019EC007B610023BB610223FB6107F110031946E5
:1019FC00044801F0AFF900BF2037BD4680BD00BFE1
:101A0C00001002400010014080B400AF72B600BF5D
:101A1C0000BFFDE780B485B000AF154B9B69144A3D
:101A2C0043F001039361124B9B6903F00103BB600C
:101A3C00BB680F4BDB690E4A43F08053D3610C4BF0
:101A4C00DB6903F080537B607B680A4B5B68FB604F
:101A5C00FB6823F0E063FB60FB6843F00073FB6002
:101A6C00044AFB68536000BF1437BD4680BC704706
:101A7C00001002400000014080B588B000AF7860D3
:101A8C0007F1100300221A605A609A60DA607B68D2
:101A9C001B68144A934221D1134B9B69124A43F49D
:101AAC0000739361104B9B6903F40073FB60FB683C
:101ABC000D4B9B690C4A43F0040393610A4B9B69E1
:101ACC0003F00403BB60BB6801233B6103237B6110
:101ADC0007F110031946054801F03CF900BF203707
:101AEC00BD4680BD002401400010024000080140AA
:101AFC0080B584B000AF78607B681B681D4A934248
:101B0C0033D11D4B9B691C4A43F4006393611A4B00
:101B1C009B6903F40063FB60FB68184B184A1A605E
:101B2C00164B10225A60154B00229A60134B8022E0
:101B3C00DA60124B4FF480721A61104B4FF48062D2
:101B4C005A610E4B00229A610C4B0022DA610B4851
:101B5C0000F09AFE0346002B01D0FFF755FF7B687F
:101B6C00064A5A62054A7B68536200BF1037BD466D
:101B7C0080BD00BF002C014000100240A8000020D6
:101B8C001C00024080B588B000AF786007F11003EC
:101B9C0000221A605A609A60DA607B681B68104AEF
:101BAC00934218D10F4B9B690E4A43F00403936187
:101BBC000C4B9B6903F00403FB60FB684FF48073D0
:101BCC003B6102237B610223FB6107F11003194681
:101BDC00054801F0BFF800BF2037BD4680BD00BFEF
:101BEC00002C0140001002400008014080B400AFFE
:101BFC0000BFFDE780B400AF00BFFDE780B400AFCD
:101C0C0000BFFDE780B400AF00BFFDE780B400AFBC
:101C1C0000BFFDE780B400AF00BFBD4680BC70477D
:101C2C0080B400AF00BFBD4680BC704780B400AF2D
:101C3C0000BFBD4680BC704780B500AF00F07EF899
:101C4C0000BF80BD80B500AF024800F04FFF00BF61
:101C5C0080BD00BFA800002080B400AF00BFBD460F
:101C6C0080BC7047FFF7F8FF0B480C490C4A002367
:101C7C0002E0D458C4500433C4188C42F9D3094A36
:101C8C00094C002301E013600432A242FBD303F0A1
:101C9C0049F8FFF777FC7047000000201400002083
:101CAC009C4F00081400002068120020FEE7000082
:101CBC0080B500AF084B1B68074A43F01003136054
:101CCC00032000F09FFD0F2000F008F8FFF7A2FEA4
:101CDC000023184680BD00BF0020024080B582B0B2
:101CEC0000AF7860124B1A68124B1B7819464FF4F0
:101CFC007A73B3FBF1F3B2FBF3F3184600F0B7FDC4
:101D0C000346002B01D001230EE07B680F2B0AD871
:101D1C00002279684FF0FF3000F07FFD064A7B68A7
:101D2C001360002300E0012318460837BD4680BD30
:101D3C0008000020100000200C00002080B400AF30
:101D4C00054B1B781A46054B1B681344034A13605A
:101D5C0000BFBD4680BC70471000002064120020FC
:101D6C0080B400AF024B1B681846BD4680BC704760
:101D7C006412002080B584B000AF7860FFF7F0FFEC
:101D8C00B8607B68FB60FB68B3F1FF3F05D00A4B82
:101D9C001B781A46FB681344FB6000BFFFF7E0FF9B
:101DAC000246BB68D31AFA689A42F7D800BF00BF44
:101DBC001037BD4680BD00BF1000002080B586B036
:101DCC0000AF78600023FB7500233B610023BB60F0
:101DDC000023FB607B68002B01D10123BEE07B68F4
:101DEC009B68002B7B689B6A002B09D17B680022C7
:101DFC00DA627B68002283F824207868FFF73CFEC7
:101E0C00786800F0F1FB0346FB757B689B6A03F076
:101E1C001003002B40F09980FB7D002B40F0958047
:101E2C007B689B6A23F4885323F0020343F002027D
:101E3C007B689A627B685A687B68DB691A437B68AB
:101E4C001B7B5B001343BA681343BB607B689B68C6
:101E5C00B3F5807F03D07B689B68012B02D14FF4D4
:101E6C00807300E000233A6913433B617B681B7D60
:101E7C00012B19D17B681B7B002B09D17B689B69DB
:101E8C00013B5A033B69134343F400633B610BE092
:101E9C007B689B6A43F020027B689A627B68DB6AF2
:101EAC0043F001027B68DA627B681B685B6823F491
:101EBC0069417B681B683A690A435A607B681B68F6
:101ECC009A68284B13407A681268B9680B43936080
:101EDC007B689B68B3F5807F03D07B689B68012B84
:101EEC0004D17B681B69013B1B05FB607B681B688D
:101EFC00DB6A23F470017B681B68FA680A43DA62B8
:101F0C007B681B689A68184B1340BA689A420BD1CD
:101F1C007B680022DA627B689B6A23F0030343F040
:101F2C0001027B689A6218E07B689B6A23F01203BB
:101F3C0043F010027B689A627B68DB6A43F0010213
:101F4C007B68DA620123FB7507E07B689B6A43F0D0
:101F5C0010027B689A620123FB75FB7D18461837CB
:101F6C00BD4680BDFDF7E1FFFE0E1FFF80B584B0BE
:101F7C0000AF78600023FB737B6893F82430012B4F
:101F8C0001D1022398E07B68012283F82420786831
:101F9C0000F0D0FA0346FB73FB7B002B40F08780EC
:101FAC007B689B6A23F4407323F0010343F4807233
:101FBC007B689A627B681B68414A934205D1414B0E
:101FCC005B6803F47023002B15D17B689B6A23F4A8
:101FDC0080127B689A627B681B685B6803F4806381
:101FEC00002B26D07B689B6A23F4405343F4805229
:101FFC007B689A621DE07B689B6A43F480127B6865
:10200C009A627B681B682F4A934204D07B681B68DA
:10201C002B4A93420DD12B4B5B6803F48063002B4E
:10202C0007D07B689B6A23F4405343F480527B684F
:10203C009A627B689B6A03F48053002B06D07B6802
:10204C00DB6A23F006027B68DA6202E07B6800221E
:10205C00DA627B68002283F824207B681B686FF0AF
:10206C0002021A607B681B689B6803F46023B3F55B
:10207C00602F13D17B681B68114A934205D1114B19
:10208C005B6803F47023002B08D17B681B689A688B
:10209C007B681B6842F4A0029A600CE07B681B68AA
:1020AC009A687B681B6842F480129A6003E07B6834
:1020BC00002283F82420FB7B18461037BD4680BDD8
:1020CC00002801400024014080B584B000AF786046
:1020DC000023FB737B6893F82430012B01D102237E
:1020EC001AE07B68012283F82420786800F07CFADF
:1020FC000346FB73FB7B002B09D17B689B6A23F4A3
:10210C00885323F0010343F001027B689A627B68D9
:10211C00002283F82420FB7B18461037BD4680BD77
:10212C0090B587B000AF7860396000237B610023E5
:10213C00FB6000233B61FFF713FE78617B681B6833
:10214C009B6803F48073002B0BD07B689B6A43F075
:10215C0020027B689A627B68002283F8242001238A
:10216C00D3E07B681B685B6803F48073002B31D170
:10217C007B681B68DB6A03F47003002B2AD121E017
:10218C003B68B3F1FF3F1DD03B68002B07D0FFF736
:10219C00E7FD02467B69D31A3A689A4212D27B68F1
:1021AC001B681B6803F00203002B0BD17B689B6A36
:1021BC0043F004027B689A627B68002283F8242037
:1021CC000323A2E07B681B681B6803F00203002B4F
:1021DC00D6D070E04F4B1C68022001F009FC03467E
:1021EC00B4FBF3F27B681B6819694B4B0B40002B5B
:1021FC0018D17B681B68D968484B0B40002B11D158
:10220C007B681B681969464B0B40002B08D17B6817
:10221C001B68D968434B0B40002B01D1142320E0E1
:10222C0029231EE07B681B6819693D4B0B40002B72
:10223C0006D17B681B68D9683A4B0B40002B0DD03C
:10224C007B681B681969384B0B40002B08D17B68E5
:10225C001B68D968344B0B40002B01D1542300E090
:10226C00FC2302FB03F33B6121E03B68B3F1FF3F2E
:10227C001AD03B68002B07D0FFF772FD02467B6932
:10228C00D31A3A689A420FD2FB683A699A420BD930
:10229C007B689B6A43F004027B689A627B6800222D
:1022AC0083F82420032330E0FB680133FB60FB68D8
:1022BC003A699A42D9D87B681B686FF012021A608F
:1022CC007B689B6A43F400727B689A627B681B682C
:1022DC009B6803F46023B3F5602F15D17B681B7BDF
:1022EC00002B11D17B689B6A23F480727B689A6205
:1022FC007B689B6A03F48053002B05D17B689B6A37
:10230C0043F001027B689A62002318461C37BD46D5
:10231C0090BD00BF0800002024499224244992005B
:10232C0092244912922449004992240080B483B02B
:10233C0000AF78607B681B68DB6C18460C37BD46B9
:10234C0080BC704780B485B000AF786039600023E2
:10235C00FB730023BB607B6893F82430012B01D105
:10236C000223DCE07B68012283F824203B685B6855
:10237C00062B1CD87B681B68596B3B685A68134644
:10238C009B001344053B1F2202FA03F3DB43194065
:10239C003B6818683B685A6813469B001344053B1E
:1023AC0000FA03F27B681B680A435A633CE03B6803
:1023BC005B680C2B1CD87B681B68196B3B685A68D4
:1023CC0013469B001344233B1F2202FA03F3DB4307
:1023DC0019403B6818683B685A6813469B001344C5
:1023EC00233B00FA03F27B681B680A431A631BE069
:1023FC007B681B68D96A3B685A6813469B00134478
:10240C00413B1F2202FA03F3DB4319403B68186877
:10241C003B685A6813469B001344413B00FA03F295
:10242C007B681B680A43DA623B681B68092B1CD962
:10243C007B681B68D9683B681A6813465B001344B9
:10244C001E3B072202FA03F3DB4319403B689868F2
:10245C003B681A6813465B0013441E3B00FA03F2F8
:10246C007B681B680A43DA6019E07B681B68196992
:10247C003B681A6813465B001344072202FA03F305
:10248C00DB4319403B6898683B681A6813465B004D
:10249C00134400FA03F27B681B680A431A613B6819
:1024AC001B68102B03D03B681B68112B32D17B6847
:1024BC001B681D4A934225D17B681B689B6803F4FB
:1024CC000003002B26D17B681B689A687B681B680D
:1024DC0042F400029A603B681B68102B1AD1134B14
:1024EC001B68134AA2FB03239A0C13469B0013444C
:1024FC005B00BB6002E0BB68013BBB60BB68002BB0
:10250C00F9D107E07B689B6A43F020027B689A62F2
:10251C000123FB737B68002283F82420FB7B184685
:10252C001437BD4680BC70470024014008000020D1
:10253C0083DE1B4380B584B000AF78600023FB6062
:10254C000023BB607B681B689B6803F00103012BB5
:10255C0040D07B681B689A687B681B6842F001025C
:10256C009A601F4B1B681F4AA2FB03239B0CBB608A
:10257C0002E0BB68013BBB60BB68002BF9D1FFF7E5
:10258C00EFFBF8601FE0FFF7EBFB0246FB68D31A8A
:10259C00022B18D97B681B689B6803F00103012B85
:1025AC0011D07B689B6A43F010027B689A627B684F
:1025BC00DB6A43F001027B68DA627B68002283F8F5
:1025CC002420012307E07B681B689B6803F0010350
:1025DC00012BD8D1002318461037BD4680BD00BF53
:1025EC000800002083DE1B4380B584B000AF786008
:1025FC000023FB607B681B689B6803F00103012BC5
:10260C002ED17B681B689A687B681B6822F00102DC
:10261C009A60FFF7A5FBF8601BE0FFF7A1FB0246F1
:10262C00FB68D31A022B14D97B681B689B6803F0D8
:10263C000103012B0DD17B689B6A43F010027B6870
:10264C009A627B68DB6A43F001027B68DA620123E1
:10265C0007E07B681B689B6803F00103012BDCD04F
:10266C00002318461037BD4680BD000080B485B0ED
:10267C0000AF78607B6803F00703FB600C4BDB68F2
:10268C00BB60BA684FF6FF031340BB60FB681A02CD
:10269C00BB68134343F0BF6343F40033BB60044A8D
:1026AC00BB68D36000BF1437BD4680BC704700BF09
:1026BC0000ED00E080B400AF044BDB681B0A03F0B4
:1026CC0007031846BD4680BC704700BF00ED00E014
:1026DC0080B483B000AF0346FB7197F90730002B31
:1026EC000BDBFB7903F01F02064997F907305B09F6
:1026FC00012000FA02F241F8232000BF0C37BD463E
:10270C0080BC704700E100E080B483B000AF0346AA
:10271C003960FB7197F90730002B0ADB3B68DAB2A2
:10272C000C4997F907301201D2B20B4483F80023FD
:10273C000AE03B68DAB20849FB7903F00F03043B6B
:10274C001201D2B20B441A7600BF0C37BD4680BCC6
:10275C00704700BF00E100E000ED00E080B489B0FC
:10276C0000AFF860B9607A60FB6803F00703FB61A7
:10277C00FB69C3F10703042B28BF0423BB61FB696E
:10278C000433062B02D9FB69033B00E000237B6179
:10279C004FF0FF32BB6902FA03F3DA43BB681A400D
:1027AC007B699A404FF0FF317B6901FA03F3D943FF
:1027BC007B680B40134318462437BD4680BC7047DA
:1027CC0080B582B000AF78607B68013BB3F1807F4D
:1027DC0001D301230FE00A4A7B68013B53600F21B0
:1027EC004FF0FF30FFF790FF054B00229A60044B2F
:1027FC0007221A60002318460837BD4680BD00BF6B
:10280C0010E000E080B582B000AF78607868FFF728
:10281C002DFF00BF0837BD4680BD80B586B000AF28
:10282C000346B9607A60FB7300237B61FFF742FFBC
:10283C0078617A68B9687869FFF790FF024697F972
:10284C000F3011461846FFF75FFF00BF1837BD4623
:10285C0080BD80B582B000AF0346FB7197F907309D
:10286C001846FFF735FF00BF0837BD4680BD80B561
:10287C0082B000AF78607868FFF7A2FF0346184675
:10288C000837BD4680BD000080B485B000AF7860CD
:10289C000023FB607B68002B01D1012343E07B68A4
:1028AC001B681A46224B1344224AA2FB03231B0922
:1028BC009A007B681A647B681F4ADA637B68022281
:1028CC0083F821207B681B681B68FB60FB6823F482
:1028DC007F5323F03003FB607B685A687B689B68EE
:1028EC001A437B68DB681A437B681B691A437B6855
:1028FC005B691A437B689B691A437B68DB691343EA
:10290C00FA681343FB607B681B68FA681A607B6883
:10291C0000229A637B68012283F821207B680022C5
:10292C0083F82020002318461437BD4680BC70471E
:10293C00F8FFFDBFCDCCCCCC0000024080B586B0FA
:10294C0000AFF860B9607A603B600023FB75FB68F0
:10295C0093F82030012B01D102234BE0FB680122BC
:10296C0083F82020FB6893F82130DBB2012B3AD19D
:10297C00FB68022283F82120FB6800229A63FB6823
:10298C001B681A68FB681B6822F001021A603B681E
:10299C007A68B968F86800F0AFF9FB68DB6A002B5D
:1029AC0008D0FB681B681A68FB681B6842F00E02B3
:1029BC001A600FE0FB681B681A68FB681B6822F042
:1029CC0004021A60FB681B681A68FB681B6842F0FB
:1029DC000A021A60FB681B681A68FB681B6842F0E5
:1029EC0001021A6005E0FB68002283F82020022314
:1029FC00FB75FB7D18461837BD4680BD80B584B08D
:102A0C0000AF78600023FB737B6893F82130DBB256
:102A1C00022B05D07B6804229A630123FB7351E0DF
:102A2C007B681B681A687B681B6822F00E021A60B0
:102A3C007B681B681A687B681B6822F001021A60AD
:102A4C007B681B68224A934229D07B681B68214A09
:102A5C00934222D07B681B681F4A93421AD07B6832
:102A6C001B681E4A934212D07B681B681C4A934217
:102A7C000AD07B681B681B4A934202D14FF4801327
:102A8C000EE04FF080730BE04FF4803308E04FF40E
:102A9C00805305E04FF4807302E0102300E0012323
:102AAC00114A53607B68012283F821207B68002245
:102ABC0083F820207B685B6B002B03D07B685B6BFF
:102ACC0078689847FB7B18461037BD4680BD00BF21
:102ADC00080002401C00024030000240440002404A
:102AEC00580002406C0002400000024080B584B0E7
:102AFC0000AF78607B68DB6B1B68FB607B681B68D6
:102B0C001B68BB607B681B6C04229A40FB681340FB
:102B1C00002B4FD0BB6803F00403002B4AD07B681A
:102B2C001B681B6803F02003002B07D17B681B6814
:102B3C001A687B681B6822F004021A607B681B68A9
:102B4C00664A934229D07B681B68654A934222D01F
:102B5C007B681B68634A93421AD07B681B68624A85
:102B6C00934212D07B681B68604A93420AD07B6800
:102B7C001B685F4A934202D14FF480030EE04FF082
:102B8C0080630BE04FF4802308E04FF4804305E0B2
:102B9C004FF4806302E0402300E00423554A536065
:102BAC007B68DB6A002B00F094807B68DB6A7868BA
:102BBC0098478EE07B681B6C02229A40FB6813409E
:102BCC00002B56D0BB6803F00203002B51D07B685E
:102BDC001B681B6803F02003002B0BD17B681B6860
:102BEC001A687B681B6822F00A021A607B68012253
:102BFC0083F821207B681B68384A934229D07B6874
:102C0C001B68374A934222D07B681B68354A934233
:102C1C001AD07B681B68344A934212D07B681B68BD
:102C2C00324A93420AD07B681B68314A934202D1E4
:102C3C004FF400130EE04FF000730BE04FF4003331
:102C4C0008E04FF4005305E04FF4007302E020233A
:102C5C0000E00223274A53607B68002283F820207F
:102C6C007B689B6A002B34D07B689B6A786898479A
:102C7C002FE07B681B6C08229A40FB681340002BEA
:102C8C0028D0BB6803F00803002B23D07B681B689B
:102C9C001A687B681B6822F00E021A607B681A6C3B
:102CAC007B68DB6B012101FA02F25A607B6801221E
:102CBC009A637B68012283F821207B68002283F8C9
:102CCC0020207B681B6B002B04D07B681B6B786807
:102CDC00984700BF00BF1037BD4680BD08000240BA
:102CEC001C000240300002404400024058000240E8
:102CFC006C0002400000024080B485B000AFF86068
:102D0C00B9607A603B60FB681A6CFB68DB6B012175
:102D1C0001FA02F25A60FB681B683A685A60FB6859
:102D2C005B68102B08D1FB681B687A689A60FB689B
:102D3C001B68BA68DA6007E0FB681B68BA689A60BF
:102D4C00FB681B687A68DA6000BF1437BD4680BC2C
:102D5C007047000080B48BB000AF786039600023FE
:102D6C007B6200233B6269E101227B6A02FA03F376
:102D7C00FB613B681B68FA691340BB61BA69FB696C
:102D8C009A4240F058813B685B689A4A93425ED005
:102D9C00984A934275D8984A934258D0964A93428F
:102DAC006FD8964A934252D0944A934269D8944A27
:102DBC0093424CD0924A934263D8924A934246D063
:102DCC00904A93425DD8122B2AD8122B59D801A2C3
:102DDC0052F823F05B2E0008352E0008472E000811
:102DEC00892E00088F2E00088F2E00088F2E0008C9
:102DFC008F2E00088F2E00088F2E00088F2E0008B3
:102E0C008F2E00088F2E00088F2E00088F2E0008A2
:102E1C008F2E00088F2E00083D2E0008512E000822
:102E2C00794A934213D02CE03B68DB683B6229E083
:102E3C003B68DB6804333B6224E03B68DB680833A7
:102E4C003B621FE03B68DB680C333B621AE03B687B
:102E5C009B68002B02D104233B6213E03B689B6808
:102E6C00012B05D108233B627B68FA691A6109E0E2
:102E7C0008233B627B68FA695A6103E000233B62DA
:102E8C0000E000BFBB69FF2B01D87B6801E07B68C9
:102E9C0004337B61BB69FF2B02D87B6A9B0002E089
:102EAC007B6A083B9B003B617B691A680F213B697D
:102EBC0001FA03F3DB431A40396A3B6901FA03F365
:102ECC001A437B691A603B685B6803F08053002BE4
:102EDC0000F0B1804D4B9B694C4A43F00103936168
:102EEC004A4B9B6903F00103BB60BB68484A7B6A91
:102EFC009B08023352F82330FB607B6A03F0030318
:102F0C009B000F2202FA03F3DB43FA681340FB60C9
:102F1C007B68404A934213D07B683F4A93420DD062
:102F2C007B683E4A934207D07B683D4A934201D16D
:102F3C00032306E0042304E0022302E0012300E063
:102F4C0000237A6A02F0030292009340FA6813435A
:102F5C00FB602F497B6A9B080233FA6841F82320F7
:102F6C003B685B6803F48013002B06D02D4B9A68EA
:102F7C002C49BB6913438B6006E02A4B9A68BB69EA
:102F8C00DB43284913408B603B685B6803F40013F8
:102F9C00002B06D0234BDA682249BB691343CB6064
:102FAC0006E0204BDA68BB69DB431E491340CB605B
:102FBC003B685B6803F40033002B06D0194B5A684E
:102FCC001849BB6913434B6006E0164B5A68BB6942
:102FDC00DB43144913404B603B685B6803F480335C
:102FEC00002B21D00F4B1A680E49BB6913430B60A1
:102FFC0021E000BF00003210000031100000221050
:10300C0000002110000012100000111000100240EE
:10301C000000014000080140000C0140001001407C
:10302C0000140140000401400B4B1A68BB69DB43E0
:10303C00094913400B607B6A01337B623B681A6859
:10304C007B6A22FA03F3002B7FF48EAE00BF00BF25
:10305C002C37BD4680BC70470004014080B483B05F
:10306C0000AF78600B467B8013467B707B78002B1F
:10307C0003D07A887B681A6103E07B881A047B682A
:10308C001A6100BF0C37BD4680BC704780B586B056
:10309C0000AF78607B68002B01D1012372E27B6862
:1030AC001B6803F00103002B00F08780924B5B68D8
:1030BC0003F00C03042B0CD08F4B5B6803F00C0358
:1030CC00082B12D18C4B5B6803F48033B3F5803F33
:1030DC000BD1894B1B6803F40033002B6CD07B683D
:1030EC005B68002B68D101234CE27B685B68B3F50D
:1030FC00803F06D1804B1B687F4A43F480331360BA
:10310C002EE07B685B68002B0CD17B4B1B687A4AEA
:10311C0023F480331360784B1B68774A23F48023A5
:10312C0013601DE07B685B68B3F5A02F0CD1724B6C
:10313C001B68714A43F4802313606F4B1B686E4A03
:10314C0043F4803313600BE06B4B1B686A4A23F427
:10315C0080331360684B1B68674A23F48023136029
:10316C007B685B68002B13D0FEF7FAFD386108E032
:10317C00FEF7F6FD02463B69D31A642B01D90323F3
:10318C0000E25D4B1B6803F40033002BF0D014E01D
:10319C00FEF7E6FD386108E0FEF7E2FD02463B690A
:1031AC00D31A642B01D90323ECE1534B1B6803F4B2
:1031BC000033002BF0D100E000BF7B681B6803F0EC
:1031CC000203002B63D04C4B5B6803F00C03002B09
:1031DC000BD0494B5B6803F00C03082B1CD1464BFE
:1031EC005B6803F48033002B16D1434B1B6803F050
:1031FC000203002B05D07B681B69012B01D0012336
:10320C00C0E13D4B1B6823F0F8027B685B69DB0077
:10321C00394913430B603AE07B681B69002B20D0C3
:10322C00364B01221A60FEF79BFD386108E0FEF771
:10323C0097FD02463B69D31A022B01D90323A1E166
:10324C002D4B1B6803F00203002BF0D02A4B1B689C
:10325C0023F0F8027B685B69DB00274913430B60A2
:10326C0015E0264B00221A60FEF77AFD386108E063
:10327C00FEF776FD02463B69D31A022B01D90323D4
:10328C0080E11D4B1B6803F00203002BF0D17B681F
:10329C001B6803F00803002B3AD07B689B69002B5A
:1032AC0019D0174B01221A60FEF75AFD386108E05D
:1032BC00FEF756FD02463B69D31A022B01D90323B4
:1032CC0060E10D4B5B6A03F00203002BF0D0012090
:1032DC0000F0BAFA1CE00A4B00221A60FEF740FD1F
:1032EC0038610FE0FEF73CFD02463B69D31A022B16
:1032FC0008D9032346E100BF0010024000004242FF
:10330C0080044242924B5B6A03F00203002BE9D12A
:10331C007B681B6803F00403002B00F0A6800023DD
:10332C00FB758B4BDB6903F08053002B0DD1884B65
:10333C00DB69874A43F08053D361854BDB6903F02B
:10334C008053BB60BB680123FB75824B1B6803F485
:10335C008073002B18D17F4B1B687E4A43F480731B
:10336C001360FEF7FDFC386108E0FEF7F9FC02463D
:10337C003B69D31A642B01D9032303E1754B1B68FA
:10338C0003F48073002BF0D07B68DB68012B06D133
:10339C006F4B1B6A6E4A43F0010313622DE07B688E
:1033AC00DB68002B0CD16A4B1B6A694A23F00103C2
:1033BC001362674B1B6A664A23F0040313621CE01A
:1033CC007B68DB68052B0CD1614B1B6A604A43F0B0
:1033DC00040313625E4B1B6A5D4A43F001031362E4
:1033EC000BE05B4B1B6A5A4A23F001031362584BE8
:1033FC001B6A574A23F0040313627B68DB68002BBB
:10340C0015D0FEF7ADFC38610AE0FEF7A9FC0246C8
:10341C003B69D31A41F28832934201D90323B1E0BC
:10342C004B4B1B6A03F00203002BEED014E0FEF7AB
:10343C0097FC38610AE0FEF793FC02463B69D31A0D
:10344C0041F28832934201D903239BE0404B1B6A23
:10345C0003F00203002BEED1FB7D012B05D13C4B7D
:10346C00DB693B4A23F08053D3617B68DB69002B1B
:10347C0000F08780364B5B6803F00C03082B61D09F
:10348C007B68DB69022B46D1334B00221A60FEF7B6
:10349C0067FC386108E0FEF763FC02463B69D31A0F
:1034AC00022B01D903236DE0294B1B6803F0007339
:1034BC00002BF0D17B681B6AB3F5803F08D1244BFD
:1034CC005B6823F400327B689B68214913434B6093
:1034DC001F4B5B6823F474127B68196A7B685B6A08
:1034EC000B431B4913434B601B4B01221A60FEF725
:1034FC0037FC386108E0FEF733FC02463B69D31A0F
:10350C00022B01D903233DE0114B1B6803F0007320
:10351C00002BF0D035E0104B00221A60FEF720FC97
:10352C00386108E0FEF71CFC02463B69D31A022BFB
:10353C0001D9032326E0064B1B6803F00073002B14
:10354C00F0D11EE07B68DB69012B07D1012319E068
:10355C000010024000700040600042420B4B5B6860
:10356C00FB60FB6803F480327B681B6A9A4206D1CD
:10357C00FB6803F470127B685B6A9A4201D00123EA
:10358C0000E0002318461837BD4680BD00100240ED
:10359C0080B584B000AF786039607B68002B01D1B6
:1035AC000123D0E06A4B1B6803F007033A689A4288
:1035BC0010D9674B1B6823F0070265493B6813431E
:1035CC000B60634B1B6803F007033A689A4201D007
:1035DC000123B8E07B681B6803F00203002B20D0AA
:1035EC007B681B6803F00403002B05D0594B5B6808
:1035FC00584A43F4E06353607B681B6803F008038C
:10360C00002B05D0534B5B68524A43F46053536014
:10361C00504B5B6823F0F0027B689B684D49134369
:10362C004B607B681B6803F00103002B40D07B6868
:10363C005B68012B07D1474B1B6803F40033002B4D
:10364C0015D101237FE07B685B68022B07D1414BCE
:10365C001B6803F00073002B09D1012373E03D4B71
:10366C001B6803F00203002B01D101236BE0394BE3
:10367C005B6823F003027B685B68364913434B603D
:10368C00FEF76EFBF8600AE0FEF76AFB0246FB6889
:10369C00D31A41F28832934201D9032353E02D4BC4
:1036AC005B6803F00C027B685B689B009A42EBD171
:1036BC00274B1B6803F007033A689A4210D2244B3D
:1036CC001B6823F0070222493B6813430B60204B15
:1036DC001B6803F007033A689A4201D0012332E0D9
:1036EC007B681B6803F00403002B08D0194B5B6844
:1036FC0023F4E0627B68DB68164913434B607B68FC
:10370C001B6803F00803002B09D0124B5B6823F4F1
:10371C0060527B681B69DB000E4913434B6000F061
:10372C0021F802460B4B5B681B0903F00F030A4997
:10373C00CB5C22FA03F3094A1360094B1B68184649
:10374C00FEF7CCFA002318461037BD4680BD00BFEB
:10375C000020024000100240544F000808000020D6
:10376C000C00002080B487B000AF0023FB60002366
:10377C00BB6000237B6100237B6000233B611E4BFD
:10378C005B68FB60FB6803F00C03042B02D0082B76
:10379C0003D027E0194B3B6127E0FB689B0C03F03F
:1037AC000F03174AD35C7B60FB6803F48033002B58
:1037BC0010D0114B5B685B0C03F00103114AD35C16
:1037CC00BB607B680D4A03FB02F2BB68B2FBF3F3F0
:1037DC007B6104E07B680C4A02FB03F37B617B6931
:1037EC003B6102E0054B3B6100BF3B6918461C374F
:1037FC00BD4680BC704700BF0010024000127A002A
:10380C006C4F00087C4F000800093D0080B400AFED
:10381C00024B1B681846BD4680BC70470800002050
:10382C0080B500AFFFF7F2FF0246054B5B68DB0A81
:10383C0003F007030349CB5C22FA03F3184680BD5F
:10384C0000100240644F000880B485B000AF78606F
:10385C000A4B1B680A4AA2FB03235B0A7A6802FB29
:10386C0003F3FB6000BFFB685A1EFA60002BF9D112
:10387C0000BF00BF1437BD4680BC70470800002055
:10388C00D34D621080B586B000AF786000233B61E9
:10389C000023FB607B681B6803F00103002B7DD0C9
:1038AC000023FB754F4BDB6903F08053002B0DD1CC
:1038BC004C4BDB694B4A43F08053D361494BDB697A
:1038CC0003F08053BB60BB680123FB75464B1B6840
:1038DC0003F48073002B18D1434B1B68424A43F40A
:1038EC0080731360FEF73CFA386108E0FEF738FA93
:1038FC0002463B69D31A642B01D903236DE03A4B82
:10390C001B6803F48073002BF0D0364B1B6A03F456
:10391C004073FB60FB68002B2ED07B685B6803F464
:10392C004073FA689A4227D02E4B1B6A23F44073DB
:10393C00FB602E4B01221A602C4B00221A60294A84
:10394C00FB681362FB6803F00103002B14D0FEF735
:10395C0007FA38610AE0FEF703FA02463B69D31A0C
:10396C0041F28832934201D9032336E01D4B1B6A86
:10397C0003F00203002BEED01A4B1B6A23F44072A7
:10398C007B685B68174913430B62FB7D012B05D1E8
:10399C00144BDB69134A23F08053D3617B681B689B
:1039AC0003F00203002B08D00E4B5B6823F440425B
:1039BC007B689B680B4913434B607B681B6803F067
:1039CC001003002B08D0074B5B6823F480027B6844
:1039DC00DB68044913434B60002318461837BD4677
:1039EC0080BD00BF00100240007000404004424205
:1039FC0080B588B000AF786000237B610023FB6149
:103A0C0000233B610023FB600023BB617B68102B10
:103A1C000AD07B68102B00F28A807B68012B45D082
:103A2C007B68022B75D082E0464B5B68FB60454B94
:103A3C001B6803F08073002B7BD0FB689B0C03F09E
:103A4C000F03414AD35C3B61FB6803F48033002BCA
:103A5C0015D03C4B5B685B0C03F001033B4AD35C19
:103A6C007B61FB6803F48033002B0DD0384A7B69F3
:103A7C00B2FBF3F23B6902FB03F3FB6104E03B692D
:103A8C00344A02FB03F3FB612E4B5B6803F48003A7
:103A9C00B3F5800F02D1FB69BB614AE0FB695B00A7
:103AAC002D4AA2FB03235B08BB6142E0254B1B6A3A
:103ABC00FB60FB6803F44073B3F5807F08D1FB68AF
:103ACC0003F00203002B03D04FF40043BB611FE053
:103ADC00FB6803F44073B3F5007F09D1194B5B6AA3
:103AEC0003F00203002B03D049F64043BB610FE007
:103AFC00FB6803F44073B3F5407F1CD1114B1B687A
:103B0C0003F40033002B16D04FF22443BB6112E0B8
:103B1C0011E0FFF785FE02460A4B5B689B0B03F036
:103B2C00030301335B00B2FBF3F3BB6104E000BFA2
:103B3C0002E000BF00E000BFBB6918462037BD465D
:103B4C0080BD00BF00100240804F0008904F00085D
:103B5C0000127A0000093D00ABAAAAAA80B582B077
:103B6C0000AF78607B68002B01D1012341E07B68BA
:103B7C0093F83D30DBB2002B06D17B68002283F832
:103B8C003C207868FDF7B4FF7B68022283F83D2067
:103B9C007B681A687B6804331946104600F05AFD9E
:103BAC007B68012283F846207B68012283F83E2043
:103BBC007B68012283F83F207B68012283F8402038
:103BCC007B68012283F841207B68012283F8422024
:103BDC007B68012283F843207B68012283F8442010
:103BEC007B68012283F845207B68012283F83D2005
:103BFC00002318460837BD4680BD80B582B000AFA3
:103C0C0078607B68002B01D1012341E07B6893F83D
:103C1C003D30DBB2002B06D17B68002283F83C20C0
:103C2C00786800F039F87B68022283F83D207B68C5
:103C3C001A687B6804331946104600F00BFD7B684C
:103C4C00012283F846207B68012283F83E207B68A2
:103C5C00012283F83F207B68012283F840207B6897
:103C6C00012283F841207B68012283F842207B6883
:103C7C00012283F843207B68012283F844207B686F
:103C8C00012283F845207B68012283F83D20002324
:103C9C0018460837BD4680BD80B483B000AF78604D
:103CAC0000BF0C37BD4680BC7047000080B586B0A5
:103CBC0000AFF860B9607A607B800023FB75BB684D
:103CCC00002B09D1FB6893F83E30DBB2022B0CBF02
:103CDC0001230023DBB222E0BB68042B09D1FB6873
:103CEC0093F83F30DBB2022B0CBF01230023DBB275
:103CFC0015E0BB68082B09D1FB6893F84030DBB2A8
:103D0C00022B0CBF01230023DBB208E0FB6893F805
:103D1C004130DBB2022B0CBF01230023DBB2002BA2
:103D2C0001D0022353E1BB68002B09D1FB6893F847
:103D3C003E30DBB2012B0CBF01230023DBB222E0AF
:103D4C00BB68042B09D1FB6893F83F30DBB2012B25
:103D5C000CBF01230023DBB215E0BB68082B09D193
:103D6C00FB6893F84030DBB2012B0CBF012300231E
:103D7C00DBB208E0FB6893F84130DBB2012B0CBFDF
:103D8C0001230023DBB2002B24D07B68002B02D054
:103D9C007B88002B01D1012319E1BB68002B04D1D6
:103DAC00FB68022283F83E2016E0BB68042B04D18A
:103DBC00FB68022283F83F200EE0BB68082B04D17D
:103DCC00FB68022283F8402006E0FB68022283F89D
:103DDC00412001E00123FAE0BB680C2B00F2AE801D
:103DEC0001A252F823F000BF293E0008493F000809
:103DFC00493F0008493F0008713E0008493F000850
:103E0C00493F0008493F0008B93E0008493F0008F7
:103E1C00493F0008493F0008013F0008FB685B6A06
:103E2C006D4A9A62FB685B6A6C4ADA62FB685B6A91
:103E3C006B4A1A63FB68586A7968FB681B683433F1
:103E4C001A467B88FEF77AFD0346002B01D001232E
:103E5C00BDE0FB681B68DA68FB681B6842F4007203
:103E6C00DA606EE0FB689B6A5B4A9A62FB689B6A4D
:103E7C005A4ADA62FB689B6A594A1A63FB68986A69
:103E8C007968FB681B6838331A467B88FEF756FD49
:103E9C000346002B01D0012399E0FB681B68DA680C
:103EAC00FB681B6842F48062DA604AE0FB68DB6AFC
:103EBC00494A9A62FB68DB6A484ADA62FB68DB6A49
:103ECC00474A1A63FB68D86A7968FB681B683C33FD
:103EDC001A467B88FEF732FD0346002B01D00123E6
:103EEC0075E0FB681B68DA68FB681B6842F40062CB
:103EFC00DA6026E0FB681B6B374A9A62FB681B6B27
:103F0C00364ADA62FB681B6B354A1A63FB68186B1E
:103F1C007968FB681B6840331A467B88FEF70EFDF8
:103F2C000346002B01D0012351E0FB681B68DA68C3
:103F3C00FB681B6842F48052DA6002E00123FB75D7
:103F4C0000BFFB7D002B41D1FB681B680122B968C7
:103F5C00184600F00BFEFB681B68224A934207D1FF
:103F6C00FB681B685A6CFB681B6842F400425A647D
:103F7C00FB681B681B4A93420ED0FB681B68B3F1AD
:103F8C00804F09D0FB681B68174A934204D0FB682A
:103F9C001B68164A934211D1FB681B689B6803F09F
:103FAC0007033B613B69062B10D0FB681B681A6842
:103FBC00FB681B6842F001021A6007E0FB681B6893
:103FCC001A68FB681B6842F001021A60FB7D1846F8
:103FDC001837BD4680BD00BF51450008F9450008A3
:103FEC00BF440008002C01400004004000080040C1
:103FFC0080B584B000AF786039600023FB733B68F8
:10400C000C2B55D801A252F823F000BF4D400008EC
:10401C00BD400008BD400008BD40000869400008D4
:10402C00BD400008BD400008BD40000885400008A8
:10403C00BD400008BD400008BD400008A14000087C
:10404C007B681B68DA687B681B6822F40072DA6094
:10405C007B685B6A1846FEF7D1FC2CE07B681B681A
:10406C00DA687B681B6822F48062DA607B689B6A82
:10407C001846FEF7C3FC1EE07B681B68DA687B6899
:10408C001B6822F40062DA607B68DB6A1846FEF774
:10409C00B5FC10E07B681B68DA687B681B6822F44F
:1040AC008052DA607B681B6B1846FEF7A7FC02E0B7
:1040BC000123FB7300BFFB7B002B57D17B681B6874
:1040CC0000223968184600F051FD7B681B682A4AAB
:1040DC00934217D17B681B681A6A41F21113134083
:1040EC00002B0FD17B681B681A6A40F244431340C3
:1040FC00002B07D17B681B685A6C7B681B6822F409
:10410C0000425A647B681B681A6A41F2111313400F
:10411C00002B0FD17B681B681A6A40F24443134092
:10412C00002B07D17B681B681A687B681B6822F020
:10413C0001021A603B68002B04D17B68012283F8D2
:10414C003E2013E03B68042B04D17B68012283F8EA
:10415C003F200BE03B68082B04D17B68012283F8DD
:10416C00402003E07B68012283F84120FB7B18464A
:10417C001037BD4680BD00BF002C014080B586B015
:10418C0000AFF860B9607A600023FB75FB6893F8A8
:10419C003C30012B01D10223AEE0FB68012283F8F5
:1041AC003C207B680C2B00F29F8001A252F823F07C
:1041BC00F1410008F5420008F5420008F5420008FC
:1041CC0031420008F5420008F5420008F5420008AB
:1041DC0073420008F5420008F5420008F542000859
:1041EC00B3420008FB681B68B968184600F0A0FAD7
:1041FC00FB681B689A69FB681B6842F008029A61AD
:10420C00FB681B689A69FB681B6822F004029A61C0
:10421C00FB681B689969BB681A69FB681B680A43D1
:10422C009A6164E0FB681B68B968184600F0E6FA0E
:10423C00FB681B689A69FB681B6842F400629A6110
:10424C00FB681B689A69FB681B6822F480629A61A0
:10425C00FB681B689969BB681B691A02FB681B68C1
:10426C000A439A6143E0FB681B68B968184600F082
:10427C002FFBFB681B68DA69FB681B6842F00802BD
:10428C00DA61FB681B68DA69FB681B6822F00402C0
:10429C00DA61FB681B68D969BB681A69FB681B6823
:1042AC000A43DA6123E0FB681B68B968184600F022
:1042BC0079FBFB681B68DA69FB681B6842F40062D7
:1042CC00DA61FB681B68DA69FB681B6822F48062A0
:1042DC00DA61FB681B68D969BB681B691A02FB6849
:1042EC001B680A43DA6102E00123FB7500BFFB681F
:1042FC00002283F83C20FB7D18461837BD4680BD54
:10430C0080B584B000AF786039600023FB737B68A4
:10431C0093F83C30012B01D10223B4E07B680122DD
:10432C0083F83C207B68022283F83D207B681B6865
:10433C009B68BB60BB6823F07703BB60BB6823F44E
:10434C007F43BB607B681B68BA689A603B681B68DC
:10435C00B3F5005F3ED0B3F5005F00F28780B3F594
:10436C00805F00F08680B3F5805F7FD8702B1AD009
:10437C00702B7BD8602B50D0602B77D8502B3CD037
:10438C00502B73D8402B58D0402B6FD8302B64D087
:10439C00302B6BD8202B60D0202B67D8002B5CD017
:1043AC00102B5AD062E07B6818683B6899683B68B0
:1043BC005A683B68DB6800F0BAFB7B681B689B683B
:1043CC00BB60BB6843F07703BB607B681B68BA6853
:1043DC009A604FE07B6818683B6899683B685A683C
:1043EC003B68DB6800F0A3FB7B681B689A687B6802
:1043FC001B6842F480429A603CE07B6818683B681A
:10440C0059683B68DB681A4600F01AFB7B681B682E
:10441C005021184600F071FB2CE07B6818683B6853
:10442C0059683B68DB681A4600F038FB7B681B68F0
:10443C006021184600F061FB1CE07B6818683B6843
:10444C0059683B68DB681A4600F0FAFA7B681B680F
:10445C004021184600F051FB0CE07B681A683B6861
:10446C001B681946104600F048FB03E00123FB7360
:10447C0000E000BF7B68012283F83D207B680022AE
:10448C0083F83C20FB7B18461037BD4680BD80B4BA
:10449C0083B000AF786000BF0C37BD4680BC70475E
:1044AC0080B483B000AF786000BF0C37BD4680BCD1
:1044BC00704780B584B000AF78607B685B6AFB6046
:1044CC00FB685B6A7A689A4207D1FB6801221A770B
:1044DC00FB68012283F83E202AE0FB689B6A7A681D
:1044EC009A4207D1FB6802221A77FB68012283F8F3
:1044FC003F201DE0FB68DB6A7A689A4207D1FB68B3
:10450C0004221A77FB68012283F8402010E0FB6834
:10451C001B6B7A689A4207D1FB6808221A77FB68F2
:10452C00012283F8412003E0FB68012283F83D203F
:10453C00F868FFF7B5FFFB6800221A7700BF103749
:10454C00BD4680BD80B584B000AF78607B685B6A87
:10455C00FB60FB685B6A7A689A420BD1FB680122AC
:10456C001A777B689B69002B36D1FB68012283F894
:10457C003E2031E0FB689B6A7A689A420BD1FB685B
:10458C0002221A777B689B69002B25D1FB680122DC
:10459C0083F83F2020E0FB68DB6A7A689A420BD1F3
:1045AC00FB6804221A777B689B69002B14D1FB688B
:1045BC00012283F840200FE0FB681B6B7A689A425B
:1045CC000AD1FB6808221A777B689B69002B03D100
:1045DC00FB68012283F84120F868FCF7BDFFFB68FB
:1045EC0000221A7700BF1037BD4680BD80B584B05D
:1045FC0000AF78607B685B6AFB60FB685B6A7A681B
:10460C009A4203D1FB6801221A7719E0FB689B6A76
:10461C007A689A4203D1FB6802221A7710E0FB6891
:10462C00DB6A7A689A4203D1FB6804221A7707E0A6
:10463C00FB681B6B7A689A4202D1FB6808221A77D6
:10464C00F868FFF724FFFB6800221A7700BF1037C9
:10465C00BD4680BD80B485B000AF786039607B68A2
:10466C001B68FB607B682F4A93420BD07B68B3F1CD
:10467C00804F07D07B682C4A934203D07B682B4A2F
:10468C00934208D1FB6823F07003FB603B685B68C6
:10469C00FA681343FB607B68224A93420BD07B6819
:1046AC00B3F1804F07D07B681F4A934203D07B68DD
:1046BC001E4A934208D1FB6823F44073FB603B68AD
:1046CC00DB68FA681343FB60FB6823F080023B68ED
:1046DC005B691343FB607B68FA681A603B689A68F5
:1046EC007B68DA623B681A687B689A627B680D4A61
:1046FC00934203D13B681A697B681A637B68012279
:10470C005A617B681B6903F00103002B05D07B68A1
:10471C001B6923F001027B681A6100BF1437BD4688
:10472C0080BC7047002C0140000400400008004091
:10473C0080B487B000AF786039607B681B6A7B619E
:10474C007B681B6A23F001027B681A627B685B68DA
:10475C003B617B689B69FB60FB6823F07003FB602B
:10476C00FB6823F00303FB603B681B68FA68134388
:10477C00FB607B6923F002037B613B689B687A6971
:10478C0013437B617B681C4A93420CD17B6923F0F9
:10479C0008037B613B68DB687A6913437B617B6947
:1047AC0023F004037B617B68134A934211D13B696C
:1047BC0023F480733B613B6923F400733B613B68DA
:1047CC005B693A6913433B613B689B693A691343E4
:1047DC003B617B683A695A607B68FA689A613B680E
:1047EC005A687B685A637B687A691A6200BF1C3707
:1047FC00BD4680BC704700BF002C014080B487B020
:10480C0000AF786039607B681B6A7B617B681B6AD0
:10481C0023F010027B681A627B685B683B617B68E3
:10482C009B69FB60FB6823F4E043FB60FB6823F4AB
:10483C004073FB603B681B681B02FA681343FB6008
:10484C007B6923F020037B613B689B681B017A69C1
:10485C0013437B617B681D4A93420DD17B6923F026
:10486C0080037B613B68DB681B017A6913437B61C6
:10487C007B6923F040037B617B68144A934213D11C
:10488C003B6923F480633B613B6923F400633B6128
:10489C003B685B699B003A6913433B613B689B69CE
:1048AC009B003A6913433B617B683A695A607B68A9
:1048BC00FA689A613B685A687B689A637B687A6984
:1048CC001A6200BF1C37BD4680BC7047002C0140EB
:1048DC0080B487B000AF786039607B681B6A7B61FD
:1048EC007B681B6A23F480727B681A627B685B6846
:1048FC003B617B68DB69FB60FB6823F07003FB604A
:10490C00FB6823F00303FB603B681B68FA681343E6
:10491C00FB607B6923F400737B613B689B681B0223
:10492C007A6913437B617B681D4A93420DD17B6985
:10493C0023F400637B613B68DB681B027A691343D9
:10494C007B617B6923F480637B617B68144A9342AF
:10495C0013D13B6923F480533B613B6923F400532F
:10496C003B613B685B691B013A6913433B613B68E4
:10497C009B691B013A6913433B617B683A695A6036
:10498C007B68FA68DA613B685A687B68DA637B6833
:10499C007A691A6200BF1C37BD4680BC704700BFE5
:1049AC00002C014080B487B000AF786039607B6820
:1049BC001B6A3B617B681B6A23F480527B681A621A
:1049CC007B685B687B617B68DB69FB60FB6823F45D
:1049DC00E043FB60FB6823F44073FB603B681B689F
:1049EC001B02FA681343FB603B6923F400533B61E1
:1049FC003B689B681B033A6913433B617B680F4A16
:104A0C00934209D17B6923F480437B613B685B69EA
:104A1C009B017A6913437B617B687A695A607B6876
:104A2C00FA68DA613B685A687B681A647B683A6991
:104A3C001A6200BF1C37BD4680BC7047002C014079
:104A4C0080B487B000AFF860B9607A60FB681B6A0D
:104A5C007B61FB681B6A23F00102FB681A62FB682E
:104A6C009B693B613B6923F0F0033B617B681B0155
:104A7C003A6913433B617B6923F00A037B617A69D2
:104A8C00BB6813437B61FB683A699A61FB687A697E
:104A9C001A6200BF1C37BD4680BC704780B487B01B
:104AAC0000AFF860B9607A60FB681B6A7B61FB68D9
:104ABC001B6A23F01002FB681A62FB689B693B615E
:104ACC003B6923F470433B617B681B033A691343D6
:104ADC003B617B6923F0A0037B61BB681B017A6996
:104AEC0013437B61FB683A699A61FB687A691A62C5
:104AFC0000BF1C37BD4680BC704780B485B000AF8A
:104B0C00786039607B689B68FB60FB6823F07003FE
:104B1C00FB603A68FB68134343F00703FB607B6858
:104B2C00FA689A6000BF1437BD4680BC704780B4E9
:104B3C0087B000AFF860B9607A603B60FB689B6837
:104B4C007B617B6923F47F437B613B681A027B6842
:104B5C001A43BB6813437A6913437B61FB687A6918
:104B6C009A6000BF1C37BD4680BC704780B487B0CC
:104B7C0000AFF860B9607A60BB6803F01F030122D4
:104B8C0002FA03F37B61FB681A6A7B69DB431A4008
:104B9C00FB681A62FB681A6ABB6803F01F0379682A
:104BAC0001FA03F31A43FB681A6200BF1C37BD46B7
:104BBC0080BC704780B485B000AF786039607B688A
:104BCC0093F83C30012B01D1022346E07B68012293
:104BDC0083F83C207B68022283F83D207B681B68AD
:104BEC005B68FB607B681B689B68BB60FB6823F0A1
:104BFC007003FB603B681B68FA681343FB607B68BF
:104C0C001B68FA685A607B681B68164A93420ED080
:104C1C007B681B68B3F1804F09D07B681B68124A14
:104C2C00934204D07B681B68104A93420CD1BB683A
:104C3C0023F08003BB603B685B68BA681343BB60BE
:104C4C007B681B68BA689A607B68012283F83D20F8
:104C5C007B68002283F83C20002318461437BD469D
:104C6C0080BC7047002C014000040040000800404C
:104C7C0080B485B000AF786039600023FB607B683E
:104C8C0093F83C30012B01D102233DE07B680122DB
:104C9C0083F83C20FB6823F0FF023B68DB6813437E
:104CAC00FB60FB6823F440723B689B681343FB601A
:104CBC00FB6823F480623B685B681343FB60FB6812
:104CCC0023F400623B681B681343FB60FB6823F40E
:104CDC0080523B681B691343FB60FB6823F4005252
:104CEC003B685B691343FB60FB6823F480423B68C1
:104CFC00DB691343FB607B681B68FA685A647B684A
:104D0C00002283F83C20002318461437BD4680BC93
:104D1C00704703460244934200D1704703F8011BCD
:104D2C00F9E7000070B500260C4D0D4C641BA41067
:104D3C00A64209D100F028F800260A4D0A4C641B43
:104D4C00A410A64205D170BD55F8043B9847013616
:104D5C00EEE755F8043B98470136F2E7944F00080C
:104D6C00944F0008944F0008984F00080A44914251
:104D7C0000F1FF3300D1704710B511F8014B91428F
:104D8C0003F8014FF9D110BDF8B500BFF8BC08BC51
:104D9C009E467047F8B500BFF8BC08BC9E467047ED
:104DAC0003050507070A0A0E0E13131919202028EC
:104DBC0028303033280000002700000026000000B7
:104DCC002500000024000000230000002200000049
:104DDC0021000000200000001F0000001000000057
:104DEC00110000001200000013000000140000006D
:104DFC00150000001600000017000000180000004D
:104E0C00190000000B0000000A000000090000005F
:104E1C00080000000700000006000000050000006C
:104E2C0004000000030000000200000041756469EA
:104E3C006F203230302D34303030487A0000000092
:104E4C005265616479210000004020601050307080
:104E5C000848286818583878044424641454347466
:104E6C000C4C2C6C1C5C3C7C024222621252327246
:104E7C000A4A2A6A1A5A3A7A064626661656367626
:104E8C000E4E2E6E1E5E3E7E01412161115131711E
:104E9C000949296919593979054525651555357516
:104EAC000D4D2D6D1D5D3D7D0343236313533373F6
:104EBC000B4B2B6B1B5B3B7B0747276717573777D6
:104ECC000F4F2F6F1F5F3F7F0000F918FB301C47FF
:104EDC00825A6D6A4176897DFF7F897D41766D6A44
:104EEC00825A1C47FB30F918000007E705CFE4B8DD
:104EFC007EA59395BF89778201807782BF89939530
:104F0C007EA5E4B805CF07E7FF7F897D41766D6A02
:104F1C00825A1C47FB30F918000007E705CFE4B8AC
:104F2C007EA59395BF89778201807782BF899395FF
:104F3C007EA5E4B805CF07E70000F918FB301C4745
:104F4C00825A6D6A4176897D0000000000000000E5
:104F5C000102030406070809000000000102030413
:104F6C0002030405060708090A0B0C0D0E0F10109E
:104F7C000102000002030405060708090A0B0C0DC8
:084F8C000E0F101001020000DD
:044F940031010008DF
:044F98000D010008FF
:104F9C00000100003200000000127A001000000036
:044FAC000100000000
:0400000508001C7162
:00000001FF
