:020000040800F2
:1000000000500020591900085D1700086517000806
:100010006D170008751700087D1700080000000024
:10002000000000000000000000000000851700082C
:1000300091170008000000009D170008A91700088C
:10004000A1190008A1190008A1190008A1190008A8
:10005000A1190008A1190008A1190008A119000898
:10006000A1190008A1190008A1190008A119000888
:10007000B5170008A1190008A1190008A119000866
:10008000A1190008A1190008A1190008A119000868
:10009000A1190008A1190008A1190008A119000858
:1000A000A1190008A1190008A1190008A119000848
:1000B000A1190008A1190008A1190008A119000838
:1000C000A1190008A1190008A1190008A119000828
:1000D000A1190008A1190008A1190008A119000818
:1000E000A1190008A1190008A119000800000000CA
:1000F0000000000000000000000000000000000000
:0C01000000000000000000005FF808F1A3
:10010C0010B5054C237833B9044B13B10448AFF345
:10011C0000800123237010BD9C0000200000000013
:10012C003C56000808B5034B1BB103490348AFF319
:10013C00008008BD00000000A00000203C56000814
:10014C004FF0FF0C1CEAD0521EBF1CEAD15392EAAE
:10015C000C0F93EA0C0F6FD01A4480EA010C40028A
:10016C0018BF5FEA41211ED04FF0006343EA5010E4
:10017C0043EA5111A0FB01310CF00040B1F5000F26
:10018C003EBF490041EAD3715B0040EA010062F1D5
:10019C007F02FD2A1DD8B3F1004F40EBC25008BFBF
:1001AC0020F00100704790F0000F0CF0004C08BFDD
:1001BC0049024CEA502040EA51207F3AC2BFD2F1AA
:1001CC00FF0340EAC250704740F400004FF00003B8
:1001DC00013A5DDC12F1190FDCBF00F000407047F2
:1001EC00C2F10002410021FA02F1C2F1200200FA30
:1001FC0002FC5FEA310040F1000053EA4C0308BFF7
:10020C0020EADC70704792F0000F00F0004C02BF47
:10021C00400010F4000F013AF9D040EA0C0093F0C2
:10022C00000F01F0004C02BF490011F4000F013B1C
:10023C00F9D041EA0C018FE70CEAD15392EA0C0F8A
:10024C0018BF93EA0C0F0AD030F0004C18BF31F0F5
:10025C00004CD8D180EA010000F00040704790F0CB
:10026C00000F17BF90F0004F084691F0000F91F06F
:10027C00004F14D092EA0C0F01D142020FD193EA35
:10028C000C0F03D14B0218BF084608D180EA0100BD
:10029C0000F0004040F0FE4040F40000704740F099
:1002AC00FE4040F44000704780F0004002E000BF88
:1002BC0081F0004142001FBF5FEA410392EA030F45
:1002CC007FEA226C7FEA236C6AD04FEA1262D2EB8F
:1002DC001363C1BFD218414048404140B8BF5B4294
:1002EC00192B88BF704710F0004F40F4000020F02D
:1002FC007F4018BF404211F0004F41F4000121F043
:10030C007F4118BF494292EA030F3FD0A2F101028C
:10031C0041FA03FC10EB0C00C3F1200301FA03F1CA
:10032C0000F0004302D5494260EB4000B0F5000FED
:10033C0013D3B0F1807F06D340084FEA310102F1AC
:10034C000102FE2A51D2B1F1004F40EBC25008BF5E
:10035C0020F0010040EA03007047490040EB000028
:10036C00013A28BFB0F5000FEDD2B0FA80FCACF129
:10037C00080CB2EB0C0200FA0CF0AABF00EBC25056
:10038C0052421843BCBFD0401843704792F0000F44
:10039C0081F4000106BF80F400000132013BB5E797
:1003AC004FEA41037FEA226C18BF7FEA236C21D00D
:1003BC0092EA030F04D092F0000F08BF0846704772
:1003CC0090EA010F1CBF0020704712F07F4F04D140
:1003DC00400028BF40F00040704712F100723CBF53
:1003EC0000F50000704700F0004343F0FE4040F47D
:1003FC00000070477FEA226216BF08467FEA23633B
:10040C000146420206BF5FEA412390EA010F40F425
:10041C00800070474FF0000304E000BF10F0004371
:10042C0048BF40425FEA000C08BF704743F0964358
:10043C0001464FF000001CE050EA010208BF704773
:10044C004FF000030AE000BF50EA010208BF7047FA
:10045C0011F0004302D5404261EB41015FEA010C0F
:10046C0002BF84460146002043F0B64308BFA3F107
:10047C008053A3F50003BCFA8CF2083AA3EBC253E9
:10048C0010DB01FA02FC634400FA02FCC2F1200208
:10049C00BCF1004F20FA02F243EB020008BF20F03F
:1004AC000100704702F1200201FA02FCC2F12002A5
:1004BC0050EA4C0021FA02F243EB020008BF20EA9A
:1004CC00DC7070474FF0FF3C06E000BF4FF0010CB2
:1004DC0002E000BF4FF0010C4DF804CD4FEA400292
:1004EC004FEA41037FEA226C18BF7FEA236C11D0DC
:1004FC0001B052EA530C18BF90EA010F58BFB2EB8F
:10050C00030088BFC81738BF6FEAE17018BF40F00E
:10051C00010070477FEA226C02D15FEA402C05D1C2
:10052C007FEA236CE4D15FEA412CE1D05DF8040B47
:10053C00704700BF844608466146FFE70FB5FFF7DA
:10054C00C9FF002848BF10F1000F0FBD4DF808ED92
:10055C00FFF7F4FF0CBF012000205DF808FB00BF83
:10056C004DF808EDFFF7EAFF34BF012000205DF8DD
:10057C0008FB00BF4DF808EDFFF7E0FF94BF01202A
:10058C0000205DF808FB00BF4DF808EDFFF7D2FF27
:10059C0094BF012000205DF808FB00BF4DF808ED6A
:1005AC00FFF7C8FF34BF012000205DF808FB00BF37
:1005BC0042000ED2B2F1FE4F0BD34FF09E03B3EBC1
:1005CC00126209D44FEA002343F0004323FA02F0ED
:1005DC0070474FF00000704712F1610F01D14202D9
:1005EC0002D14FF0FF3070474FF00000704700BF52
:1005FC0080B500AF00F040F8642001F02FFA002223
:10060C0001211C4802F098FA00220221194802F03C
:10061C0093FA032000F00AF90A2001F01FFA0320D4
:10062C0000F004F9052001F019FA032000F0FEF89F
:10063C00052001F013FA022000F0F8F8052001F073
:10064C000DFA282000F0AFF8052001F007FA0C2075
:10065C0000F0A9F8052001F001FA00F05BF8052084
:10066C0001F0FCF9062000F09EF8052001F0F6F9E7
:10067C0000BF80BD000C014080B586B000AF07F113
:10068C00080300221A605A609A60DA601F4B9B695B
:10069C001E4A43F0080393611C4B9B6903F008034B
:1006AC007B607B680123BB600123FB6000233B6103
:1006BC0002237B6107F108031946154802F0B8F8CC
:1006CC000223BB6007F108031946114802F0B0F889
:1006DC004FF47043BB6007F1080319460C4802F055
:1006EC00A7F8002201210A4802F026FA0022022172
:1006FC00074802F021FA00224FF47041044802F03E
:10070C001BFA00BF1837BD4680BD00BF0010024069
:10071C00000C014080B500AF012000F044F802202D
:10072C0001F09CF900BF80BD80B584B000AF0346DA
:10073C000A46FB711346BB710F4BFB60FB79012B17
:10074C0001D90123FB71BB790F2B01D90F23BB718D
:10075C00FB7910333B4413F8042CBB791344DBB204
:10076C005BB263F07F035BB2DBB2184600F01BF8A0
:10077C0000BF1037BD4680BD0040145480B582B018
:10078C0000AF786006E07B685A1C7A601B781846CC
:10079C0000F017F87B681B78002BF4D100BF00BF6A
:1007AC000837BD4680BD80B582B000AF0346FB71F3
:1007BC00FB790021184600F013F800BF0837BD463E
:1007CC0080BD80B582B000AF0346FB71FB7901217F
:1007DC00184600F005F800BF0837BD4680BD000084
:1007EC0080B582B000AF03460A46FB711346BB715D
:1007FC00BB79002B14BF01230023DBB21A46012165
:10080C00094802F099F9FB791B09DBB2184600F094
:10081C000DF8FB7903F00F03DBB2184600F006F875
:10082C0000BF0837BD4680BD000C014080B582B0CA
:10083C0000AF0346FB71FB7903F00103DBB21A46F0
:10084C004FF48051164802F077F9FB795B10DBB25C
:10085C0003F00103DBB21A464FF40051104802F0CA
:10086C006BF9FB799B10DBB203F00103DBB21A4688
:10087C004FF480410A4802F05FF9FB79DB10DBB2E0
:10088C0003F00103DBB21A464FF40041044802F0B6
:10089C0053F900F007F800BF0837BD4680BD00BF14
:1008AC00000C014080B582B000AF0122022110483B
:1008BC0002F042F900237B6002E07B6801337B602D
:1008CC007B68312BF9DD00220221094802F034F952
:1008DC0000233B6002E03B6801333B603B68B3F5AF
:1008EC007A7FF8DB00BF00BF0837BD4680BD00BF74
:1008FC00000C014080B489B000AF786039600023EF
:10090C00FB610023BB617B68002B04DA0123BB6114
:10091C007B685B427B607B68002B2CD1FB695A1C8B
:10092C00FA611A463B68134430221A70FB693A6824
:10093C00134400221A703B6853E07A682B4B83FBFC
:10094C0002139910D317C91A0B469B000B445B007A
:10095C00D11ACAB2FB69591CF96119463B680B44A0
:10096C003032D2B21A707B68204A82FB031292108A
:10097C00DB17D31A7B607B68002BDEDCBB69002B9A
:10098C0007D0FB695A1CFA611A463B6813442D22A6
:10099C001A7000237B61FB69013B3B6117E07B69AB
:1009AC003A6813441B78FB733B693A681A447B69B9
:1009BC0039680B4412781A703B693A681344FA7B15
:1009CC001A707B6901337B613B69013B3B617A693E
:1009DC003B699A42E3DBFB693A68134400221A70C4
:1009EC003B6818462437BD4680BC70476766666610
:1009FC0080B582B000AF78600021054802F092FF0C
:100A0C00044B01221A6000BF0837BD4680BD00BFF1
:100A1C00E80000205803002080B588B000AF07F133
:100A2C00080300221A605A609A60DA602B4B9B69AB
:100A3C002A4A43F004039361284B9B6903F0040397
:100A4C007B607B680023FB6123E0254AFB6932F85D
:100A5C001330BB600123FB6000233B6102237B61ED
:100A6C00204AFB6952F8233007F108021146184658
:100A7C0001F0DEFE1B4AFB6952F82300184AFB69A1
:100A8C0032F813300122194602F056F8FB69013393
:100A9C00FB61FB69032BD8DD0023BB6115E0124A17
:100AAC00BB6932F81330BB600023FB6001233B6150
:100ABC000E4ABB6952F8233007F10802114618465A
:100ACC0001F0B6FEBB690133BB61BB69032BE6DDEC
:100ADC0000BF00BF2037BD4680BD00BF00100240E4
:100AEC00100000200000002028000020180000202A
:100AFC0080B485B000AFF860B9607A603B60FB6889
:100B0C00D9B2104AFB6802F823107B68D9B20D4A9F
:100B1C00FB689B0013440A465A70BB68D9B2094A59
:100B2C00FB689B0013440A469A703B68D9B2054A8D
:100B3C00FB689B0013440A46DA7000BF1437BD46AD
:100B4C0080BC70477801002080B586B000AFF8609B
:100B5C00B9607A6000237B6108E07B68BA68F96849
:100B6C007869FFF7C5FF7B6901337B617B693B2BA0
:100B7C00F3DD00BF00BF1837BD4680BD80B5A2B005
:100B8C0000AFF860B9607A603B600F4A07F1100360
:100B9C0011467822184603F016FFFA6813469B009C
:100BAC0013445B00BA6813449B0088333B4453F8EE
:100BBC00780CD7F890303A687968FFF799FF00BF46
:100BCC008837BD4680BD00BF0057000880B485B093
:100BDC0000AF78607B68642B01DD64237B607B68ED
:100BEC00002B01DA00237B600023FB602DE01B4A05
:100BFC00FB6812F823101A4AFB6802F82310012331
:100C0C00BB601CE0154AFB689B001A44BB6813448C
:100C1C001B781A467B6802FB03F3124A82FB031211
:100C2C005211DB17D31AD9B20D4AFB689B001A4438
:100C3C00BB6813440A461A70BB680133BB60BB68BF
:100C4C00032BDFDDFB680133FB60FB683B2BCEDD48
:100C5C0000BF00BF1437BD4680BC70477801002030
:100C6C00680200201F85EB5180B586B000AF0023D1
:100C7C007B6100233B6136E0394A3B699B0013449E
:100C8C005B781A0436493B699B000B449B781B022A
:100C9C001A4333493B699B000B44DB7813433B609D
:100CAC001723FB6019E00122FB6802FA03F31A46D2
:100CBC003B681340002B05D02A4A7B693C2122F863
:100CCC00131004E0274A7B691E2122F813107B695C
:100CDC0001337B61FB68013BFB60FB68002BE2DAB4
:100CEC003B6901333B613B693B2BC5DD0023BB609A
:100CFC000AE01C4A7B69002122F813107B6901333E
:100D0C007B61BB680133BB60BB68312BF1DD164BDB
:100D1C0000221A607B699BB2124A0021134802F030
:100D2C005FFC134B7B6002E07B68013B7B600E4BEE
:100D3C001B68002B02D17B68002BF5D17B68002B44
:100D4C0006D10021094802F0EDFD074B01221A6083
:100D5C00054B00221A6000BF1837BD4680BD00BF8E
:100D6C00680200205C03002058030020E8000020EB
:100D7C0040420F0080B584B000AFF860B9607A6073
:100D8C003B604749F868FFF7EBFB0346002B12D09A
:100D9C00BB6800221A704349F868FFF7D1F9034683
:100DAC001846FFF705FC0346DAB27B681A703B68FD
:100DBC00FF221A706FE03C49F868FFF7D1FB03463D
:100DCC00002B1CD0BB6800221A707B68FF221A70A3
:100DDC003349F868FFF76CFA034632491846FFF7B7
:100DEC00AFF9034619463148FFF762FA0346184635
:100DFC00FFF7DEFB0346DAB23B681A704BE02C4976
:100E0C00F868FFF7ADFB0346002B17D02649F868AE
:100E1C00FFF74EFA034623491846FFF791F90346AC
:100E2C001846FFF7C5FB0346DAB2BB681A707B683D
:100E3C00FF221A703B6800221A702CE01D49F868DA
:100E4C00FFF78EFB0346002B1CD0BB68FF221A70E9
:100E5C001749F868FFF72CFA034612491846FFF7B2
:100E6C006FF9034619461148FFF722FA0346184654
:100E7C00FFF79EFB0346DAB27B681A703B680022D0
:100E8C001A7008E0BB68FF221A707B6800221A7087
:100E9C003B6800221A7000BF1037BD4680BD00BFF2
:100EAC0000004C420000A0400000CC4200007F43F8
:100EBC000000194300004C4380B489B000AFF860C7
:100ECC00B9607A603B60FB68002B08DBFB68022B87
:100EDC0005DCBB68002B02DBBB68092B01DD0023A2
:100EEC003FE00023FB6137E0FB699B007A68134409
:100EFC001B681E4A82FB03129210DB17D31ABB61CC
:100F0C00FB699B007A6813441A68184B83FB021325
:100F1C009910D317C91A0B469B000B445B00D31ACC
:100F2C007B61FA68BB69D31AB3F1FF3F11DBFA6836
:100F3C00BB69D31A012B0CDCBA687B69D31AB3F1E9
:100F4C00FF3F06DBBA687B69D31A012B01DC002357
:100F5C0007E0FB690133FB61FA693B689A42C3DB2A
:100F6C00012318462437BD4680BC70476766666609
:100F7C0080B58AB002AF78607B6840F289229342D8
:100F8C000CD8002200210020FFF7DEFD514B1B681E
:100F9C001846FFF71BFEFFF767FE97E07A681346CB
:100FAC001B029B1AA3F52133A3F276334A4AA2FB08
:100FBC0003231B0AFB7500F047FD0246474B1B68D9
:100FCC00D31A0A2B7BD900F03FFD0346434A13602A
:100FDC00FB7D434A82FB0312D210DB17D31AFB6151
:100FEC00FB69002B01DC0123FB61FB690F2B01DD8D
:100FFC000F23FB61002200210020FFF7A5FD394BD8
:10100C0000221A600023BB6151E0BB690133BB6154
:10101C0003F01AFB0246344B83FB0231D317C91A77
:10102C000B465B000B44D31A3B6103F00DFB0246ED
:10103C002E4B83FB02139910D317C91A0B469B0036
:10104C000B445B00D31AFB60264B1B68284AF968DB
:10105C003869FFF731FF0346002B28D03A69134655
:10106C009B0013445B0019461E4B1B68FA680A442C
:10107C001F4941F823201B4B1B680133194A13608D
:10108C00FB7D1846FFF7C6F907F1090307F10A02C1
:10109C0007F10B01FFF76EFEFB7A1A46BB7A194675
:1010AC007B7A00930B46F9683869FFF767FD0D4BA7
:1010BC001B68FA699A4202DDBB69632BA5DD054BFF
:1010CC001B681846FFF782FDFFF7CEFD2037BD46A3
:1010DC0080BD00BF30000020BF84BC11000F002079
:1010EC0079787878040F00205655555567666666F2
:1010FC00080F002080B592B000AF00F04DFC00F05E
:10110C0091F800F0E7F900F0C7F900F025F900F0CC
:10111C00E5F8FFF781FCFFF76BFA002200210020B5
:10112C00FFF712FD0020FFF751FDFFF79DFD41F287
:10113C0088337B6400233B640023FB630023BB6385
:10114C00364800F087FD0A2000F088FC334800F098
:10115C005BFE0346324A1360314B1A683B6C9A4271
:10116C0002D92F4B1B683B642D4B1A687B6C9A423F
:10117C0002D22B4B1B687B64FA6B294B1B68134404
:10118C00FB63BB6B0133BB63254B1B681846FFF736
:10119C00EFFE00210020FFF7C7FA214B1B681A460F
:1011AC0007F1240319461046FFF7A4FB0346184623
:1011BC00FFF7E4FA00210120FFF7B6FA07F1180354
:1011CC001946786CFFF796FB03461846FFF7D6FADC
:1011DC0005210120FFF7A8FA07F10C031946386C1A
:1011EC00FFF788FB03461846FFF7C8FA05210020D5
:1011FC00FFF79AFAFA6BBB6B92FBF3F33A46114684
:10120C001846FFF777FB03461846FFF7B7FAFFF7C8
:10121C0081FA024800F0CCFD92E700BFB800002034
:10122C007401002080B594B000AF07F12803282288
:10123C000021184603F04BFB07F1140300221A603F
:10124C005A609A60DA601A613B1D00221A605A607B
:10125C009A60DA600123BB624FF48033FB62002397
:10126C003B630123BB6302237B644FF48033BB6479
:10127C004FF4E013FB6407F12803184601F074FCEB
:10128C000346002B01D000F071F90F237B61022380
:10129C00BB610023FB614FF480633B6200237B62E4
:1012AC0007F114030221184601F0E0FE0346002B5F
:1012BC0001D000F05BF902237B604FF40043FB602C
:1012CC003B1D184602F02EF80346002B01D000F00F
:1012DC004DF900BF5037BD4680BD000080B584B0CD
:1012EC0000AF3B1D00221A605A609A60184B194AD5
:1012FC001A60174B00229A60154B00221A73144B7C
:10130C0000221A75124B4FF46022DA61104B002246
:10131C005A600F4B01221A610D4800F0C3FB0346C3
:10132C00002B01D000F022F900237B600123BB606D
:10133C000023FB603B1D1946054800F071FD034678
:10134C00002B01D000F012F900BF1037BD4680BD54
:10135C00B80000200024014080B596B000AF07F122
:10136C00480300221A605A609A60DA6007F1400361
:10137C0000221A605A6007F1240300221A605A6096
:10138C009A60DA601A615A619A613B1D2022002131
:10139C00184603F09CFA3E4B3E4A1A603C4B002226
:1013AC005A603B4B00229A60394B5922DA60384B19
:1013BC0000221A61364B00225A61354B00229A6189
:1013CC00334802F065F80346002B01D000F0CEF84C
:1013DC004FF48053BB6407F1480319462C4802F0C4
:1013EC0029FC0346002B01D000F0C0F8284802F07D
:1013FC009EF80346002B01D000F0B8F800233B64A4
:10140C0000237B6407F140031946214803F06CF874
:10141C000346002B01D000F0A9F860237B62002367
:10142C00BB620023FB6200233B6300237B6300232E
:10143C00BB630023FB6307F1240300221946144805
:10144C0002F036FB0346002B01D000F08FF800238E
:10145C007B600023BB600023FB6000233B61002307
:10146C007B614FF40053BB6100233B623B1D19466B
:10147C00074803F097F80346002B01D000F076F8EC
:10148C00034800F031F900BF5837BD4680BD00BF9E
:10149C00E8000020002C014080B582B000AF0C4B5E
:1014AC005B690B4A43F001035361094B5B6903F021
:1014BC0001037B607B68002200210C2000F01BFFE5
:1014CC000C2000F034FF00BF0837BD4680BD00BFC4
:1014DC000010024080B588B000AF07F11003002265
:1014EC001A605A609A60DA601E4B9B691D4A43F081
:1014FC00100393611B4B9B6903F01003FB60FB68AB
:10150C00184B9B69174A43F020039361154B9B6959
:10151C0003F02003BB60BB68124B9B69114A43F07C
:10152C00040393610F4B9B6903F004037B607B689E
:10153C0000224FF400510C4801F0FEFA4FF4005316
:10154C003B6101237B610023BB610223FB6107F13B
:10155C0010031946044801F06BF900BF2037BD4653
:10156C0080BD00BF001002400010014080B400AFED
:10157C0072B600BF00BFFDE780B485B000AF154B5D
:10158C009B69144A43F001039361124B9B6903F06E
:10159C000103BB60BB680F4BDB690E4A43F0805301
:1015AC00D3610C4BDB6903F080537B607B680A4B87
:1015BC005B68FB60FB6823F0E063FB60FB6843F057
:1015CC000073FB60044AFB68536000BF1437BD46D0
:1015DC0080BC7047001002400000014080B588B00C
:1015EC0000AF786007F1100300221A605A609A600D
:1015FC00DA607B681B68144A934221D1134B9B69B8
:10160C00124A43F400739361104B9B6903F400730B
:10161C00FB60FB680D4B9B690C4A43F00403936120
:10162C000A4B9B6903F00403BB60BB6801233B615D
:10163C0003237B6107F110031946054801F0F8F804
:10164C0000BF2037BD4680BD002401400010024081
:10165C000008014080B584B000AF78607B681B68DF
:10166C001D4A934233D11D4B9B691C4A43F40063C2
:10167C0093611A4B9B6903F40063FB60FB68184B86
:10168C00184A1A60164B10225A60154B00229A60A9
:10169C00134B8022DA60124B4FF480721A61104B9C
:1016AC004FF480625A610E4B00229A610C4B00225F
:1016BC00DA610B4800F056FE0346002B01D0FFF711
:1016CC0055FF7B68064A5A62054A7B68536200BF25
:1016DC001037BD4680BD00BF002C014000100240F9
:1016EC00300100201C00024080B588B000AF78604B
:1016FC0007F1100300221A605A609A60DA607B6866
:10170C001B68104A934218D10F4B9B690E4A43F049
:10171C00040393610C4B9B6903F00403FB60FB68AF
:10172C004FF480733B6102237B610223FB6107F161
:10173C0010031946054801F07BF800BF2037BD4661
:10174C0080BD00BF002C0140001002400008014089
:10175C0080B400AF00BFFDE780B400AF00BFFDE771
:10176C0080B400AF00BFFDE780B400AF00BFFDE761
:10177C0080B400AF00BFFDE780B400AF00BFBD4632
:10178C0080BC704780B400AF00BFBD4680BC7047C2
:10179C0080B400AF00BFBD4680BC704780B500AFC1
:1017AC0000F040F900BF80BD80B500AF024800F0EA
:1017BC000BFF00BF80BD00BF3001002080B400AF24
:1017CC0001231846BD4680BC704780B582B000AF7F
:1017DC007860396003F0CAF8034616221A604FF09D
:1017EC00FF3318460837BD4680BD80B582B000AFC8
:1017FC0078604FF0FF317868FFF7E7FF00BFFDE737
:10180C0080B586B000AFF860B9607A6000237B6168
:10181C000AE0AFF300800146BB685A1CBA60CAB23A
:10182C001A707B6901337B617A697B689A42F0DBC1
:10183C007B6818461837BD4680BD80B586B000AFB2
:10184C00F860B9607A6000237B6109E0BB685A1CC0
:10185C00BA601B781846AFF300807B6901337B615B
:10186C007A697B689A42F1DB7B6818461837BD466B
:10187C0080BD80B483B000AF78604FF0FF33184662
:10188C000C37BD4680BC704780B483B000AF786025
:10189C0039603B684FF400525A60002318460C37ED
:1018AC00BD4680BC704780B483B000AF7860012324
:1018BC0018460C37BD4680BC704780B485B000AF6D
:1018CC00F860B9607A60002318461437BD4680BCB6
:1018DC007047000080B586B000AF7860144A154B95
:1018EC00D31A7B617B693B61134B1B68002B02D1C4
:1018FC00114B124A1A60104B1A687B6813443A69F0
:10190C009A4207D203F032F803460C221A604FF0C9
:10191C00FF3309E0084B1B68FB60074B1A687B68B8
:10192C001344054A1360FB6818461837BD4680BD42
:10193C000050002000040000800F0020D810002070
:10194C0080B400AF00BFBD4680BC7047FFF7F8FF06
:10195C000B480C490C4A002302E0D458C450043301
:10196C00C4188C42F9D3094A094C002301E01360D6
:10197C000432A242FBD302F0FFFFFFF7BBFB704720
:10198C00000000209C000020A05800089C000020B3
:10199C00D4100020FEE7000080B500AF084B1B6898
:1019AC00074A43F010031360032000F099FC0F204A
:1019BC0000F008F8FFF7E0FD0023184680BD00BFDB
:1019CC000020024080B582B000AF7860124B1A68DC
:1019DC00124B1B7819464FF47A73B3FBF1F3B2FB3D
:1019EC00F3F3184600F0B1FC0346002B01D00123A1
:1019FC000EE07B680F2B0AD8002279684FF0FF307D
:101A0C0000F079FC064A7B681360002300E0012398
:101A1C0018460837BD4680BD340000203C0000202D
:101A2C003800002080B400AF054B1B781A46054BDC
:101A3C001B681344034A136000BFBD4680BC70474B
:101A4C003C000020840F002080B400AF024B1B68C8
:101A5C001846BD4680BC7047840F002080B584B00A
:101A6C0000AF7860FFF7F0FFB8607B68FB60FB6845
:101A7C00B3F1FF3F05D00A4B1B781A46FB681344A1
:101A8C00FB6000BFFFF7E0FF0246BB68D31AFA68A1
:101A9C009A42F7D800BF00BF1037BD4680BD00BFCB
:101AAC003C00002080B586B000AF78600023FB7549
:101ABC0000233B610023BB600023FB607B68002B91
:101ACC0001D10123BEE07B689B68002B7B689B6A7D
:101ADC00002B09D17B680022DA627B68002283F834
:101AEC0024207868FFF77AFD786800F0EBFA03465B
:101AFC00FB757B689B6A03F01003002B40F0998008
:101B0C00FB7D002B40F095807B689B6A23F4885307
:101B1C0023F0020343F002027B689A627B685A68E6
:101B2C007B68DB691A437B681B7B5B001343BA68D9
:101B3C001343BB607B689B68B3F5807F03D07B68E5
:101B4C009B68012B02D14FF4807300E000233A69AB
:101B5C0013433B617B681B7D012B19D17B681B7B7D
:101B6C00002B09D17B689B69013B5A033B691343EA
:101B7C0043F400633B610BE07B689B6A43F02002FB
:101B8C007B689A627B68DB6A43F001027B68DA62ED
:101B9C007B681B685B6823F469417B681B683A6946
:101BAC000A435A607B681B689A68284B13407A6812
:101BBC001268B9680B4393607B689B68B3F5807FB0
:101BCC0003D07B689B68012B04D17B681B69013BAC
:101BDC001B05FB607B681B68DB6A23F470017B6868
:101BEC001B68FA680A43DA627B681B689A68184BB0
:101BFC001340BA689A420BD17B680022DA627B6888
:101C0C009B6A23F0030343F001027B689A6218E09D
:101C1C007B689B6A23F0120343F010027B689A6284
:101C2C007B68DB6A43F001027B68DA620123FB7597
:101C3C0007E07B689B6A43F010027B689A62012381
:101C4C00FB75FB7D18461837BD4680BDFDF7E1FFDF
:101C5C00FE0E1FFF80B584B000AF78600023FB73CD
:101C6C007B6893F82430012B01D1022398E07B6828
:101C7C00012283F82420786800F0CAF90346FB732C
:101C8C00FB7B002B40F087807B689B6A23F44073BE
:101C9C0023F0010343F480727B689A627B681B68B3
:101CAC00414A934205D1414B5B6803F47023002BEE
:101CBC0015D17B689B6A23F480127B689A627B68DF
:101CCC001B685B6803F48063002B26D07B689B6ADF
:101CDC0023F4405343F480527B689A621DE07B6886
:101CEC009B6A43F480127B689A627B681B682F4A5C
:101CFC00934204D07B681B682B4A93420DD12B4B2B
:101D0C005B6803F48063002B07D07B689B6A23F429
:101D1C00405343F480527B689A627B689B6A03F45D
:101D2C008053002B06D07B68DB6A23F006027B68AD
:101D3C00DA6202E07B680022DA627B68002283F8B8
:101D4C0024207B681B686FF002021A607B681B689A
:101D5C009B6803F46023B3F5602F13D17B681B6879
:101D6C00114A934205D1114B5B6803F47023002B8D
:101D7C0008D17B681B689A687B681B6842F4A002D8
:101D8C009A600CE07B681B689A687B681B6842F45D
:101D9C0080129A6003E07B68002283F82420FB7B8E
:101DAC0018461037BD4680BD002801400024014074
:101DBC0080B584B000AF78600023FB737B6893F828
:101DCC002430012B01D102231AE07B68012283F815
:101DDC002420786800F076F90346FB73FB7B002B1C
:101DEC0009D17B689B6A23F4885323F0010343F0E9
:101DFC0001027B689A627B68002283F82420FB7BBB
:101E0C0018461037BD4680BD80B483B000AF7860F3
:101E1C007B681B68DB6C18460C37BD4680BC704772
:101E2C0080B485B000AF786039600023FB73002369
:101E3C00BB607B6893F82430012B01D10223DCE0DA
:101E4C007B68012283F824203B685B68062B1CD836
:101E5C007B681B68596B3B685A6813469B0013449C
:101E6C00053B1F2202FA03F3DB4319403B68186859
:101E7C003B685A6813469B001344053B00FA03F277
:101E8C007B681B680A435A633CE03B685B680C2B1D
:101E9C001CD87B681B68196B3B685A6813469B00FF
:101EAC001344233B1F2202FA03F3DB4319403B6824
:101EBC0018683B685A6813469B001344233B00FA8E
:101ECC0003F27B681B680A431A631BE07B681B6880
:101EDC00D96A3B685A6813469B001344413B1F2246
:101EEC0002FA03F3DB4319403B6818683B685A68F5
:101EFC0013469B001344413B00FA03F27B681B68BA
:101F0C000A43DA623B681B68092B1CD97B681B6887
:101F1C00D9683B681A6813465B0013441E3B0722C2
:101F2C0002FA03F3DB4319403B6898683B681A6874
:101F3C0013465B0013441E3B00FA03F27B681B68DC
:101F4C000A43DA6019E07B681B6819693B681A68F8
:101F5C0013465B001344072202FA03F3DB431940D8
:101F6C003B6898683B681A6813465B00134400FA98
:101F7C0003F27B681B680A431A613B681B68102BD1
:101F8C0003D03B681B68112B32D17B681B681D4A40
:101F9C00934225D17B681B689B6803F40003002BDC
:101FAC0026D17B681B689A687B681B6842F4000228
:101FBC009A603B681B68102B1AD1134B1B68134A91
:101FCC00A2FB03239A0C13469B0013445B00BB60DB
:101FDC0002E0BB68013BBB60BB68002BF9D107E09A
:101FEC007B689B6A43F020027B689A620123FB7337
:101FFC007B68002283F82420FB7B18461437BD46EF
:10200C0080BC7047002401403400002083DE1B4359
:10201C0080B584B000AF78600023FB600023BB6008
:10202C007B681B689B6803F00103012B40D07B6825
:10203C001B689A687B681B6842F001029A601F4B10
:10204C001B681F4AA2FB03239B0CBB6002E0BB680E
:10205C00013BBB60BB68002BF9D1FFF7F5FCF860C6
:10206C001FE0FFF7F1FC0246FB68D31A022B18D9CC
:10207C007B681B689B6803F00103012B11D07B6804
:10208C009B6A43F010027B689A627B68DB6A43F0C0
:10209C0001027B68DA627B68002283F8242001232A
:1020AC0007E07B681B689B6803F00103012BD8D108
:1020BC00002318461037BD4680BD00BF34000020F9
:1020CC0083DE1B4380B584B000AF78600023FB60D7
:1020DC007B681B689B6803F00103012B2ED17B6886
:1020EC001B689A687B681B6822F001029A60FFF7F4
:1020FC00ABFCF8601BE0FFF7A7FC0246FB68D31AA9
:10210C00022B14D97B681B689B6803F00103012B1D
:10211C000DD17B689B6A43F010027B689A627B68E6
:10212C00DB6A43F001027B68DA62012307E07B681B
:10213C001B689B6803F00103012BDCD000231846BD
:10214C001037BD4680BD000080B485B000AF78600C
:10215C007B6803F00703FB600C4BDB68BB60BA6861
:10216C004FF6FF031340BB60FB681A02BB681343B6
:10217C0043F0BF6343F40033BB60044ABB68D360D5
:10218C0000BF1437BD4680BC704700BF00ED00E0B7
:10219C0080B400AF044BDB681B0A03F0070318463E
:1021AC00BD4680BC704700BF00ED00E080B483B03A
:1021BC0000AF0346FB7197F90730002B0BDBFB7963
:1021CC0003F01F02064997F907305B09012000FA5A
:1021DC0002F241F8232000BF0C37BD4680BC70478B
:1021EC0000E100E080B483B000AF03463960FB71BE
:1021FC0097F90730002B0ADB3B68DAB20C4997F9E8
:10220C0007301201D2B20B4483F800230AE03B687A
:10221C00DAB20849FB7903F00F03043B1201D2B286
:10222C000B441A7600BF0C37BD4680BC704700BF0C
:10223C0000E100E000ED00E080B489B000AFF86090
:10224C00B9607A60FB6803F00703FB61FB69C3F1BB
:10225C000703042B28BF0423BB61FB690433062B43
:10226C0002D9FB69033B00E000237B614FF0FF3296
:10227C00BB6902FA03F3DA43BB681A407B699A40E4
:10228C004FF0FF317B6901FA03F3D9437B680B40B4
:10229C00134318462437BD4680BC704780B582B0C6
:1022AC0000AF78607B68013BB3F1807F01D30123E1
:1022BC000FE00A4A7B68013B53600F214FF0FF305F
:1022CC00FFF790FF054B00229A60044B07221A601F
:1022DC00002318460837BD4680BD00BF10E000E063
:1022EC0080B582B000AF78607868FFF72DFF00BF33
:1022FC000837BD4680BD80B586B000AF0346B960D7
:10230C007A60FB7300237B61FFF742FF78617A6888
:10231C00B9687869FFF790FF024697F90F301146BC
:10232C001846FFF75FFF00BF1837BD4680BD80B56C
:10233C0082B000AF0346FB7197F907301846FFF7E0
:10234C0035FF00BF0837BD4680BD80B582B000AFF9
:10235C0078607868FFF7A2FF034618460837BD4639
:10236C0080BD000080B485B000AF78600023FB60B6
:10237C007B68002B01D1012343E07B681B681A4664
:10238C00224B1344224AA2FB03231B099A007B68AD
:10239C001A647B681F4ADA637B68022283F8212067
:1023AC007B681B681B68FB60FB6823F47F5323F07E
:1023BC003003FB607B685A687B689B681A437B68B8
:1023CC00DB681A437B681B691A437B685B691A4399
:1023DC007B689B691A437B68DB691343FA68134378
:1023EC00FB607B681B68FA681A607B6800229A6342
:1023FC007B68012283F821207B68002283F820204F
:10240C00002318461437BD4680BC7047F8FFFDBF4B
:10241C00CDCCCCCC0000024080B586B000AFF860CB
:10242C00B9607A603B600023FB75FB6893F8203041
:10243C00012B01D102234BE0FB68012283F8202001
:10244C00FB6893F82130DBB2012B3AD1FB680222F6
:10245C0083F82120FB6800229A63FB681B681A68CA
:10246C00FB681B6822F001021A603B687A68B96845
:10247C00F86800F0AFF9FB68DB6A002B08D0FB684A
:10248C001B681A68FB681B6842F00E021A600FE0AA
:10249C00FB681B681A68FB681B6822F004021A6050
:1024AC00FB681B681A68FB681B6842F00A021A601A
:1024BC00FB681B681A68FB681B6842F001021A6013
:1024CC0005E0FB68002283F820200223FB75FB7DCE
:1024DC0018461837BD4680BD80B584B000AF786013
:1024EC000023FB737B6893F82130DBB2022B05D001
:1024FC007B6804229A630123FB7351E07B681B68A1
:10250C001A687B681B6822F00E021A607B681B68D5
:10251C001A687B681B6822F001021A607B681B68D2
:10252C00224A934229D07B681B68214A934222D0CD
:10253C007B681B681F4A93421AD07B681B681E4A33
:10254C00934212D07B681B681C4A93420AD07B686A
:10255C001B681B4A934202D14FF480130EE04FF0DC
:10256C0080730BE04FF4803308E04FF4805305E0A8
:10257C004FF4807302E0102300E00123114A5360F2
:10258C007B68012283F821207B68002283F82020BD
:10259C007B685B6B002B03D07B685B6B7868984720
:1025AC00FB7B18461037BD4680BD00BF08000240BB
:1025BC001C0002403000024044000240580002401F
:1025CC006C0002400000024080B584B000AF78601F
:1025DC007B68DB6B1B68FB607B681B681B68BB60E4
:1025EC007B681B6C04229A40FB681340002B4FD075
:1025FC00BB6803F00403002B4AD07B681B681B6884
:10260C0003F02003002B07D17B681B681A687B68DA
:10261C001B6822F004021A607B681B68664A9342AE
:10262C0029D07B681B68654A934222D07B681B6863
:10263C00634A93421AD07B681B68624A934212D059
:10264C007B681B68604A93420AD07B681B685F4AB0
:10265C00934202D14FF480030EE04FF080630BE005
:10266C004FF4802308E04FF4804305E04FF480637F
:10267C0002E0402300E00423554A53607B68DB6A88
:10268C00002B00F094807B68DB6A786898478EE0BA
:10269C007B681B6C02229A40FB681340002B56D0BF
:1026AC00BB6803F00203002B51D07B681B681B68CE
:1026BC0003F02003002B0BD17B681B681A687B6826
:1026CC001B6822F00A021A607B68012283F8212021
:1026DC007B681B68384A934229D07B681B68374A51
:1026EC00934222D07B681B68354A93421AD07B6890
:1026FC001B68344A934212D07B681B68324A93425F
:10270C000AD07B681B68314A934202D14FF4001304
:10271C000EE04FF000730BE04FF4003308E04FF481
:10272C00005305E04FF4007302E0202300E0022385
:10273C00274A53607B68002283F820207B689B6AC1
:10274C00002B34D07B689B6A786898472FE07B68B5
:10275C001B6C08229A40FB681340002B28D0BB68E6
:10276C0003F00803002B23D07B681B681A687B6876
:10277C001B6822F00E021A607B681A6C7B68DB6B9C
:10278C00012101FA02F25A607B6801229A637B688C
:10279C00012283F821207B68002283F820207B68AB
:1027AC001B6B002B04D07B681B6B7868984700BFB1
:1027BC0000BF1037BD4680BD080002401C0002401F
:1027CC003000024044000240580002406C000240BD
:1027DC000000024080B485B000AFF860B9607A6048
:1027EC003B60FB681A6CFB68DB6B012101FA02F29F
:1027FC005A60FB681B683A685A60FB685B68102B70
:10280C0008D1FB681B687A689A60FB681B68BA6819
:10281C00DA6007E0FB681B68BA689A60FB681B68A3
:10282C007A68DA6000BF1437BD4680BC7047000080
:10283C0080B48BB000AF7860396000237B620023DA
:10284C003B6269E101227B6A02FA03F3FB613B689C
:10285C001B68FA691340BB61BA69FB699A4240F084
:10286C0058813B685B689A4A93425ED0984A93427F
:10287C0075D8984A934258D0964A93426FD8964A44
:10288C00934252D0944A934269D8944A93424CD082
:10289C00924A934263D8924A934246D0904A9342CA
:1028AC005DD8122B2AD8122B59D801A252F823F03A
:1028BC003729000811290008232900086529000878
:1028CC006B2900086B2900086B2900086B2900088C
:1028DC006B2900086B2900086B2900086B2900087C
:1028EC006B2900086B2900086B2900086B2900086C
:1028FC006B290008192900082D290008794A9342F0
:10290C0013D02CE03B68DB683B6229E03B68DB685A
:10291C0004333B6224E03B68DB6808333B621FE016
:10292C003B68DB680C333B621AE03B689B68002B0E
:10293C0002D104233B6213E03B689B68012B05D159
:10294C0008233B627B68FA691A6109E008233B6241
:10295C007B68FA695A6103E000233B6200E000BF28
:10296C00BB69FF2B01D87B6801E07B6804337B617A
:10297C00BB69FF2B02D87B6A9B0002E07B6A083B99
:10298C009B003B617B691A680F213B6901FA03F3D9
:10299C00DB431A40396A3B6901FA03F31A437B693A
:1029AC001A603B685B6803F08053002B00F0B18029
:1029BC004D4B9B694C4A43F0010393614A4B9B6915
:1029CC0003F00103BB60BB68484A7B6A9B08023377
:1029DC0052F82330FB607B6A03F003039B000F2249
:1029EC0002FA03F3DB43FA681340FB607B68404A4E
:1029FC00934213D07B683F4A93420DD07B683E4A8A
:102A0C00934207D07B683D4A934201D1032306E0F1
:102A1C00042304E0022302E0012300E000237A6A8D
:102A2C0002F0030292009340FA681343FB602F49B3
:102A3C007B6A9B080233FA6841F823203B685B6889
:102A4C0003F48013002B06D02D4B9A682C49BB69DC
:102A5C0013438B6006E02A4B9A68BB69DB43284919
:102A6C0013408B603B685B6803F40013002B06D0AB
:102A7C00234BDA682249BB691343CB6006E0204B39
:102A8C00DA68BB69DB431E491340CB603B685B686B
:102A9C0003F40033002B06D0194B5A681849BB6954
:102AAC0013434B6006E0164B5A68BB69DB43144971
:102ABC0013404B603B685B6803F48033002B21D0E0
:102ACC000F4B1A680E49BB6913430B6021E000BF22
:102ADC000000321000003110000022100000211004
:102AEC000000121000001110001002400000014004
:102AFC0000080140000C014000100140001401408E
:102B0C00000401400B4B1A68BB69DB4309491340B5
:102B1C000B607B6A01337B623B681A687B6A22FA22
:102B2C0003F3002B7FF48EAE00BF00BF2C37BD46E5
:102B3C0080BC70470004014080B483B000AF786063
:102B4C000B467B8013467B707B78002B03D07A88F6
:102B5C007B681A6103E07B881A047B681A6100BFEA
:102B6C000C37BD4680BC704780B586B000AF78602E
:102B7C007B68002B01D1012372E27B681B6803F098
:102B8C000103002B00F08780924B5B6803F00C0371
:102B9C00042B0CD08F4B5B6803F00C03082B12D169
:102BAC008C4B5B6803F48033B3F5803F0BD1894BBE
:102BBC001B6803F40033002B6CD07B685B68002B24
:102BCC0068D101234CE27B685B68B3F5803F06D18A
:102BDC00804B1B687F4A43F4803313602EE07B6884
:102BEC005B68002B0CD17B4B1B687A4A23F4803337
:102BFC001360784B1B68774A23F4802313601DE025
:102C0C007B685B68B3F5A02F0CD1724B1B68714AC3
:102C1C0043F4802313606F4B1B686E4A43F480337C
:102C2C0013600BE06B4B1B686A4A23F48033136010
:102C3C00684B1B68674A23F4802313607B685B68CE
:102C4C00002B13D0FEF700FF386108E0FEF7FCFE06
:102C5C0002463B69D31A642B01D9032300E25D4B76
:102C6C001B6803F40033002BF0D014E0FEF7ECFEED
:102C7C00386108E0FEF7E8FE02463B69D31A642B84
:102C8C0001D90323ECE1534B1B6803F40033002BF5
:102C9C00F0D100E000BF7B681B6803F00203002B3F
:102CAC0063D04C4B5B6803F00C03002B0BD0494BEF
:102CBC005B6803F00C03082B1CD1464B5B6803F4D8
:102CCC008033002B16D1434B1B6803F00203002BFF
:102CDC0005D07B681B69012B01D00123C0E13D4B62
:102CEC001B6823F0F8027B685B69DB0039491343EE
:102CFC000B603AE07B681B69002B20D0364B01221D
:102D0C001A60FEF7A1FE386108E0FEF79DFE024650
:102D1C003B69D31A022B01D90323A1E12D4B1B686C
:102D2C0003F00203002BF0D02A4B1B6823F0F802AF
:102D3C007B685B69DB00274913430B6015E0264B6E
:102D4C0000221A60FEF780FE386108E0FEF77CFE78
:102D5C0002463B69D31A022B01D9032380E11D4B98
:102D6C001B6803F00203002BF0D17B681B6803F097
:102D7C000803002B3AD07B689B69002B19D0174BAA
:102D8C0001221A60FEF760FE386108E0FEF75CFE77
:102D9C0002463B69D31A022B01D9032360E10D4B88
:102DAC005B6A03F00203002BF0D0012000F09CFAC8
:102DBC001CE00A4B00221A60FEF746FE38610FE059
:102DCC00FEF742FE02463B69D31A022B08D90323B5
:102DDC0046E100BF00100240000042428004424223
:102DEC00924B5B6A03F00203002BE9D17B681B68F2
:102DFC0003F00403002B00F0A6800023FB758B4B23
:102E0C00DB6903F08053002B0DD1884BDB69874ABB
:102E1C0043F08053D361854BDB6903F08053BB6077
:102E2C00BB680123FB75824B1B6803F48073002B7A
:102E3C0018D17F4B1B687E4A43F480731360FEF7F6
:102E4C0003FE386108E0FEF7FFFD02463B69D31A2A
:102E5C00642B01D9032303E1754B1B6803F48073C6
:102E6C00002BF0D07B68DB68012B06D16F4B1B6A03
:102E7C006E4A43F0010313622DE07B68DB68002B84
:102E8C000CD16A4B1B6A694A23F001031362674B2E
:102E9C001B6A664A23F0040313621CE07B68DB6840
:102EAC00052B0CD1614B1B6A604A43F0040313627F
:102EBC005E4B1B6A5D4A43F0010313620BE05B4BF4
:102ECC001B6A5A4A23F001031362584B1B6A574A78
:102EDC0023F0040313627B68DB68002B15D0FEF72C
:102EEC00B3FD38610AE0FEF7AFFD02463B69D31A29
:102EFC0041F28832934201D90323B1E04B4B1B6A58
:102F0C0003F00203002BEED014E0FEF79DFD3861B8
:102F1C000AE0FEF799FD02463B69D31A41F288326A
:102F2C00934201D903239BE0404B1B6A03F002033D
:102F3C00002BEED1FB7D012B05D13C4BDB693B4AD1
:102F4C0023F08053D3617B68DB69002B00F0878012
:102F5C00364B5B6803F00C03082B61D07B68DB6994
:102F6C00022B46D1334B00221A60FEF76DFD3861FF
:102F7C0008E0FEF769FD02463B69D31A022B01D922
:102F8C0003236DE0294B1B6803F00073002BF0D179
:102F9C007B681B6AB3F5803F08D1244B5B6823F434
:102FAC0000327B689B68214913434B601F4B5B6865
:102FBC0023F474127B68196A7B685B6A0B431B49A8
:102FCC0013434B601B4B01221A60FEF73DFD386129
:102FDC0008E0FEF739FD02463B69D31A022B01D9F2
:102FEC0003233DE0114B1B6803F00073002BF0D062
:102FFC0035E0104B00221A60FEF726FD386108E020
:10300C00FEF722FD02463B69D31A022B01D903239A
:10301C0026E0064B1B6803F00073002BF0D11EE07A
:10302C007B68DB69012B07D1012319E000100240FA
:10303C0000700040600042420B4B5B68FB60FB6819
:10304C0003F480327B681B6A9A4206D1FB6803F456
:10305C0070127B685B6A9A4201D0012300E0002366
:10306C0018461837BD4680BD0010024080B584B0AC
:10307C0000AF786039607B68002B01D10123D0E070
:10308C006A4B1B6803F007033A689A4210D9674BE6
:10309C001B6823F0070265493B6813430B60634BC5
:1030AC001B6803F007033A689A4201D00123B8E089
:1030BC007B681B6803F00203002B20D07B681B6825
:1030CC0003F00403002B05D0594B5B68584A43F4BA
:1030DC00E06353607B681B6803F00803002B05D08A
:1030EC00534B5B68524A43F460535360504B5B68DC
:1030FC0023F0F0027B689B684D4913434B607B685F
:10310C001B6803F00103002B40D07B685B68012B2C
:10311C0007D1474B1B6803F40033002B15D1012357
:10312C007FE07B685B68022B07D1414B1B6803F087
:10313C000073002B09D1012373E03D4B1B6803F096
:10314C000203002B01D101236BE0394B5B6823F0A8
:10315C0003027B685B68364913434B60FEF774FCD3
:10316C00F8600AE0FEF770FC0246FB68D31A41F2E5
:10317C008832934201D9032353E02D4B5B6803F053
:10318C000C027B685B689B009A42EBD1274B1B6857
:10319C0003F007033A689A4210D2244B1B6823F0C1
:1031AC00070222493B6813430B60204B1B6803F05A
:1031BC0007033A689A4201D0012332E07B681B680E
:1031CC0003F00403002B08D0194B5B6823F4E06276
:1031DC007B68DB68164913434B607B681B6803F004
:1031EC000803002B09D0124B5B6823F460527B68F8
:1031FC001B69DB000E4913434B6000F021F80246BB
:10320C000B4B5B681B0903F00F030A49CB5C22FADA
:10321C0003F3094A1360094B1B681846FEF7D2FBEF
:10322C00002318461037BD4680BD00BF0020024069
:10323C00001002409857000834000020380000208D
:10324C0080B487B000AF0023FB600023BB60002379
:10325C007B6100237B6000233B611E4B5B68FB6042
:10326C00FB6803F00C03042B02D0082B03D027E0DF
:10327C00194B3B6127E0FB689B0C03F00F03174ACB
:10328C00D35C7B60FB6803F48033002B10D0114BB4
:10329C005B685B0C03F00103114AD35CBB607B6879
:1032AC000D4A03FB02F2BB68B2FBF3F37B6104E053
:1032BC007B680C4A02FB03F37B617B693B6102E098
:1032CC00054B3B6100BF3B6918461C37BD4680BCB3
:1032DC00704700BF0010024000127A00A857000887
:1032EC00B857000800093D0080B485B000AF786085
:1032FC000A4B1B680A4AA2FB03235B0A7A6802FB8F
:10330C0003F3FB6000BFFB685A1EFA60002BF9D177
:10331C0000BF00BF1437BD4680BC7047340000208E
:10332C00D34D621080B586B000AF786000233B614E
:10333C000023FB607B681B6803F00103002B7DD02E
:10334C000023FB754F4BDB6903F08053002B0DD131
:10335C004C4BDB694B4A43F08053D361494BDB69DF
:10336C0003F08053BB60BB680123FB75464B1B68A5
:10337C0003F48073002B18D1434B1B68424A43F46F
:10338C0080731360FEF760FB386108E0FEF75CFBAE
:10339C0002463B69D31A642B01D903236DE03A4BE7
:1033AC001B6803F48073002BF0D0364B1B6A03F4BC
:1033BC004073FB60FB68002B2ED07B685B6803F4CA
:1033CC004073FA689A4227D02E4B1B6A23F4407341
:1033DC00FB602E4B01221A602C4B00221A60294AEA
:1033EC00FB681362FB6803F00103002B14D0FEF79B
:1033FC002BFB38610AE0FEF727FB02463B69D31A28
:10340C0041F28832934201D9032336E01D4B1B6AEB
:10341C0003F00203002BEED01A4B1B6A23F440720C
:10342C007B685B68174913430B62FB7D012B05D14D
:10343C00144BDB69134A23F08053D3617B681B6800
:10344C0003F00203002B08D00E4B5B6823F44042C0
:10345C007B689B680B4913434B607B681B6803F0CC
:10346C001003002B08D0074B5B6823F480027B68A9
:10347C00DB68044913434B60002318461837BD46DC
:10348C0080BD00BF0010024000700040400442426A
:10349C0080B582B000AF78607B68002B01D101232E
:1034AC0041E07B6893F83D30DBB2002B06D17B68A2
:1034BC00002283F83C207868FEF7CCF87B68022267
:1034CC0083F83D207B681A687B68043319461046E4
:1034DC0000F05AFD7B68012283F846207B680122AC
:1034EC0083F83E207B68012283F83F207B68012211
:1034FC0083F840207B68012283F841207B680122FD
:10350C0083F842207B68012283F843207B680122E8
:10351C0083F844207B68012283F845207B680122D4
:10352C0083F83D20002318460837BD4680BD80B582
:10353C0082B000AF78607B68002B01D1012341E0A1
:10354C007B6893F83D30DBB2002B06D17B68002200
:10355C0083F83C20786800F039F87B68022283F805
:10356C003D207B681A687B6804331946104600F0CE
:10357C000BFD7B68012283F846207B68012283F8CF
:10358C003E207B68012283F83F207B68012283F870
:10359C0040207B68012283F841207B68012283F85C
:1035AC0042207B68012283F843207B68012283F848
:1035BC0044207B68012283F845207B68012283F834
:1035CC003D20002318460837BD4680BD80B483B02B
:1035DC0000AF786000BF0C37BD4680BC7047000060
:1035EC0080B586B000AFF860B9607A607B8000234C
:1035FC00FB75BB68002B09D1FB6893F83E30DBB23E
:10360C00022B0CBF01230023DBB222E0BB68042B8E
:10361C0009D1FB6893F83F30DBB2022B0CBF0123BE
:10362C000023DBB215E0BB68082B09D1FB6893F8CB
:10363C004030DBB2022B0CBF01230023DBB208E0CD
:10364C00FB6893F84130DBB2022B0CBF0123002343
:10365C00DBB2002B01D0022353E1BB68002B09D154
:10366C00FB6893F83E30DBB2012B0CBF0123002327
:10367C00DBB222E0BB68042B09D1FB6893F83F3026
:10368C00DBB2012B0CBF01230023DBB215E0BB68BE
:10369C00082B09D1FB6893F84030DBB2012B0CBF2F
:1036AC0001230023DBB208E0FB6893F84130DBB266
:1036BC00012B0CBF01230023DBB2002B24D07B6831
:1036CC00002B02D07B88002B01D1012319E1BB68B0
:1036DC00002B04D1FB68022283F83E2016E0BB6865
:1036EC00042B04D1FB68022283F83F200EE0BB6858
:1036FC00082B04D1FB68022283F8402006E0FB680B
:10370C00022283F8412001E00123FAE0BB680C2B74
:10371C0000F2AE8001A252F823F000BF5D37000822
:10372C007D3800087D3800087D380008A537000872
:10373C007D3800087D3800087D380008ED3700081A
:10374C007D3800087D3800087D38000835380008C1
:10375C00FB685B6A6D4A9A62FB685B6A6C4ADA6268
:10376C00FB685B6A6B4A1A63FB68586A7968FB688A
:10377C001B6834331A467B88FEF74EFE0346002B3B
:10378C0001D00123BDE0FB681B68DA68FB681B688D
:10379C0042F40072DA606EE0FB689B6A5B4A9A62E4
:1037AC00FB689B6A5A4ADA62FB689B6A594A1A633D
:1037BC00FB68986A7968FB681B6838331A467B8803
:1037CC00FEF72AFE0346002B01D0012399E0FB688B
:1037DC001B68DA68FB681B6842F48062DA604AE0B6
:1037EC00FB68DB6A494A9A62FB68DB6A484ADA6220
:1037FC00FB68DB6A474A1A63FB68D86A7968FB681E
:10380C001B683C331A467B88FEF706FE0346002BEA
:10381C0001D0012375E0FB681B68DA68FB681B6844
:10382C0042F40062DA6026E0FB681B6B374A9A624E
:10383C00FB681B6B364ADA62FB681B6B354A1A63F2
:10384C00FB68186B7968FB681B6840331A467B88E9
:10385C00FEF7E2FD0346002B01D0012351E0FB688B
:10386C001B68DA68FB681B6842F48052DA6002E07D
:10387C000123FB7500BFFB7D002B41D1FB681B684E
:10388C000122B968184600F00BFEFB681B68224A3F
:10389C00934207D1FB681B685A6CFB681B6842F4A7
:1038AC0000425A64FB681B681B4A93420ED0FB68AB
:1038BC001B68B3F1804F09D0FB681B68174A934211
:1038CC0004D0FB681B68164A934211D1FB681B6835
:1038DC009B6803F007033B613B69062B10D0FB6828
:1038EC001B681A68FB681B6842F001021A6007E04B
:1038FC00FB681B681A68FB681B6842F001021A60BF
:10390C00FB7D18461837BD4680BD00BF853E0008BC
:10391C002D3F0008F33D0008002C0140000400403E
:10392C000008004080B584B000AF78603960002397
:10393C00FB733B680C2B55D801A252F823F000BF47
:10394C0081390008F1390008F1390008F139000813
:10395C009D390008F1390008F1390008F1390008E7
:10396C00B9390008F1390008F1390008F1390008BB
:10397C00D53900087B681B68DA687B681B6822F401
:10398C000072DA607B685B6A1846FEF7A5FD2CE0D6
:10399C007B681B68DA687B681B6822F48062DA60DB
:1039AC007B689B6A1846FEF797FD1EE07B681B68D8
:1039BC00DA687B681B6822F40062DA607B68DB6A79
:1039CC001846FEF789FD10E07B681B68DA687B6897
:1039DC001B6822F48052DA607B681B6B1846FEF77A
:1039EC007BFD02E00123FB7300BFFB7B002B57D157
:1039FC007B681B6800223968184600F051FD7B6813
:103A0C001B682A4A934217D17B681B681A6A41F2D9
:103A1C0011131340002B0FD17B681B681A6A40F2FC
:103A2C0044431340002B07D17B681B685A6C7B689E
:103A3C001B6822F400425A647B681B681A6A41F2C4
:103A4C0011131340002B0FD17B681B681A6A40F2CC
:103A5C0044431340002B07D17B681B681A687B68B2
:103A6C001B6822F001021A603B68002B04D17B68B2
:103A7C00012283F83E2013E03B68042B04D17B68C1
:103A8C00012283F83F200BE03B68082B04D17B68B4
:103A9C00012283F8402003E07B68012283F8412057
:103AAC00FB7B18461037BD4680BD00BF002C014083
:103ABC0080B586B000AFF860B9607A600023FB7502
:103ACC00FB6893F83C30012B01D10223AEE0FB687C
:103ADC00012283F83C207B680C2B00F29F8001A212
:103AEC0052F823F0253B0008293C0008293C00082B
:103AFC00293C0008653B0008293C0008293C0008CB
:103B0C00293C0008A73B0008293C0008293C000878
:103B1C00293C0008E73B0008FB681B68B96818469D
:103B2C0000F0A0FAFB681B689A69FB681B6842F0FE
:103B3C0008029A61FB681B689A69FB681B6822F093
:103B4C0004029A61FB681B689969BB681A69FB6877
:103B5C001B680A439A6164E0FB681B68B9681846E5
:103B6C0000F0E6FAFB681B689A69FB681B6842F474
:103B7C0000629A61FB681B689A69FB681B6822F4F7
:103B8C0080629A61FB681B689969BB681B691A02A1
:103B9C00FB681B680A439A6143E0FB681B68B968C1
:103BAC00184600F02FFBFB681B68DA69FB681B6882
:103BBC0042F00802DA61FB681B68DA69FB681B6873
:103BCC0022F00402DA61FB681B68D969BB681A69C8
:103BDC00FB681B680A43DA6123E0FB681B68B96861
:103BEC00184600F079FBFB681B68DA69FB681B68F8
:103BFC0042F40062DA61FB681B68DA69FB681B68D7
:103C0C0022F48062DA61FB681B68D969BB681B69A6
:103C1C001A02FB681B680A43DA6102E00123FB7598
:103C2C0000BFFB68002283F83C20FB7D1846183748
:103C3C00BD4680BD80B584B000AF7860396000238C
:103C4C00FB737B6893F83C30012B01D10223B4E069
:103C5C007B68012283F83C207B68022283F83D209C
:103C6C007B681B689B68BB60BB6823F07703BB60F9
:103C7C00BB6823F47F43BB607B681B68BA689A609F
:103C8C003B681B68B3F5005F3ED0B3F5005F00F2F4
:103C9C008780B3F5805F00F08680B3F5805F7FD8B6
:103CAC00702B1AD0702B7BD8602B50D0602B77D810
:103CBC00502B3CD0502B73D8402B58D0402B6FD866
:103CCC00302B64D0302B6BD8202B60D0202B67D8B6
:103CDC00002B5CD0102B5AD062E07B6818683B68D4
:103CEC0099683B685A683B68DB6800F0BAFB7B68F4
:103CFC001B689B68BB60BB6843F07703BB607B6849
:103D0C001B68BA689A604FE07B6818683B689968D2
:103D1C003B685A683B68DB6800F0A3FB7B681B6858
:103D2C009A687B681B6842F480429A603CE07B682E
:103D3C0018683B6859683B68DB681A4600F01AFB48
:103D4C007B681B685021184600F071FB2CE07B68E7
:103D5C0018683B6859683B68DB681A4600F038FB0A
:103D6C007B681B686021184600F061FB1CE07B68D7
:103D7C0018683B6859683B68DB681A4600F0FAFA29
:103D8C007B681B684021184600F051FB0CE07B68F7
:103D9C001A683B681B681946104600F048FB03E0A4
:103DAC000123FB7300E000BF7B68012283F83D20F8
:103DBC007B68002283F83C20FB7B18461037BD46FD
:103DCC0080BD80B483B000AF786000BF0C37BD46B7
:103DDC0080BC704780B483B000AF786000BF0C37F4
:103DEC00BD4680BC704780B584B000AF78607B68FE
:103DFC005B6AFB60FB685B6A7A689A4207D1FB6876
:103E0C0001221A77FB68012283F83E202AE0FB6826
:103E1C009B6A7A689A4207D1FB6802221A77FB6880
:103E2C00012283F83F201DE0FB68DB6A7A689A4226
:103E3C0007D1FB6804221A77FB68012283F8402023
:103E4C0010E0FB681B6B7A689A4207D1FB6808226A
:103E5C001A77FB68012283F8412003E0FB680122FA
:103E6C0083F83D20F868FFF7B5FFFB6800221A774E
:103E7C0000BF1037BD4680BD80B584B000AF786000
:103E8C007B685B6AFB60FB685B6A7A689A420BD161
:103E9C00FB6801221A777B689B69002B36D1FB6883
:103EAC00012283F83E2031E0FB689B6A7A689A42D3
:103EBC000BD1FB6802221A777B689B69002B25D1FA
:103ECC00FB68012283F83F2020E0FB68DB6A7A68FC
:103EDC009A420BD1FB6804221A777B689B69002BF2
:103EEC0014D1FB68012283F840200FE0FB681B6BA8
:103EFC007A689A420AD1FB6808221A777B689B6918
:103F0C00002B03D1FB68012283F84120F868FCF7F1
:103F1C006FFDFB6800221A7700BF1037BD4680BDCD
:103F2C0080B584B000AF78607B685B6AFB60FB682F
:103F3C005B6A7A689A4203D1FB6801221A7719E00E
:103F4C00FB689B6A7A689A4203D1FB6802221A7753
:103F5C0010E0FB68DB6A7A689A4203D1FB680422A2
:103F6C001A7707E0FB681B6B7A689A4202D1FB68F0
:103F7C0008221A77F868FFF724FFFB6800221A77EB
:103F8C0000BF1037BD4680BD80B485B000AF7860EF
:103F9C0039607B681B68FB607B682F4A93420BD0AF
:103FAC007B68B3F1804F07D07B682C4A934203D0D7
:103FBC007B682B4A934208D1FB6823F07003FB60AB
:103FCC003B685B68FA681343FB607B68224A934248
:103FDC000BD07B68B3F1804F07D07B681F4A9342AC
:103FEC0003D07B681E4A934208D1FB6823F44073CC
:103FFC00FB603B68DB68FA681343FB60FB6823F0EB
:10400C0080023B685B691343FB607B68FA681A604B
:10401C003B689A687B68DA623B681A687B689A62CC
:10402C007B680D4A934203D13B681A697B681A631B
:10403C007B6801225A617B681B6903F00103002B2A
:10404C0005D07B681B6923F001027B681A6100BFF5
:10405C001437BD4680BC7047002C01400004004062
:10406C000008004080B487B000AF786039607B688E
:10407C001B6A7B617B681B6A23F001027B681A62F6
:10408C007B685B683B617B689B69FB60FB6823F02A
:10409C007003FB60FB6823F00303FB603B681B6849
:1040AC00FA681343FB607B6923F002037B613B6876
:1040BC009B687A6913437B617B681C4A93420CD1E1
:1040CC007B6923F008037B613B68DB687A691343E7
:1040DC007B617B6923F004037B617B68134A934209
:1040EC0011D13B6923F480733B613B6923F400736A
:1040FC003B613B685B693A6913433B613B689B6975
:10410C003A6913433B617B683A695A607B68FA6889
:10411C009A613B685A687B685A637B687A691A6251
:10412C0000BF1C37BD4680BC704700BF002C01404F
:10413C0080B487B000AF786039607B681B6A7B61A4
:10414C007B681B6A23F010027B681A627B685B68D1
:10415C003B617B689B69FB60FB6823F4E043FB607D
:10416C00FB6823F44073FB603B681B681B02FA6816
:10417C001343FB607B6923F020037B613B689B68E6
:10418C001B017A6913437B617B681D4A93420DD1F5
:10419C007B6923F080037B613B68DB681B017A69D8
:1041AC0013437B617B6923F040037B617B68144A7A
:1041BC00934213D13B6923F480633B613B6923F445
:1041CC0000633B613B685B699B003A6913433B614D
:1041DC003B689B699B003A6913433B617B683A6976
:1041EC005A607B68FA689A613B685A687B689A6384
:1041FC007B687A691A6200BF1C37BD4680BC704769
:10420C00002C014080B487B000AF786039607B68C7
:10421C001B6A7B617B681B6A23F480727B681A6261
:10422C007B685B683B617B68DB69FB60FB6823F048
:10423C007003FB60FB6823F00303FB603B681B68A7
:10424C00FA681343FB607B6923F400737B613B6862
:10425C009B681B027A6913437B617B681D4A9342FE
:10426C000DD17B6923F400637B613B68DB681B0227
:10427C007A6913437B617B6923F480637B617B6880
:10428C00144A934213D13B6923F480533B613B693D
:10429C0023F400533B613B685B691B013A69134390
:1042AC003B613B689B691B013A6913433B617B682B
:1042BC003A695A607B68FA68DA613B685A687B68CD
:1042CC00DA637B687A691A6200BF1C37BD4680BC12
:1042DC00704700BF002C014080B487B000AF7860FD
:1042EC0039607B681B6A3B617B681B6A23F48052D4
:1042FC007B681A627B685B687B617B68DB69FB604F
:10430C00FB6823F4E043FB60FB6823F44073FB6021
:10431C003B681B681B02FA681343FB603B6923F480
:10432C0000533B613B689B681B033A6913433B6139
:10433C007B680F4A934209D17B6923F480437B61EC
:10434C003B685B699B017A6913437B617B687A6983
:10435C005A607B68FA68DA613B685A687B681A6451
:10436C007B683A691A6200BF1C37BD4680BC704737
:10437C00002C014080B487B000AFF860B9607A605F
:10438C00FB681B6A7B61FB681B6A23F00102FB68FC
:10439C001A62FB689B693B613B6923F0F0033B614C
:1043AC007B681B013A6913433B617B6923F00A0369
:1043BC007B617A69BB6813437B61FB683A699A61DC
:1043CC00FB687A691A6200BF1C37BD4680BC704717
:1043DC0080B487B000AFF860B9607A60FB681B6A84
:1043EC007B61FB681B6A23F01002FB681A62FB6896
:1043FC009B693B613B6923F470433B617B681B0306
:10440C003A6913433B617B6923F0A0037B61BB6872
:10441C001B017A6913437B61FB683A699A61FB68FB
:10442C007A691A6200BF1C37BD4680BC704780B4E5
:10443C0085B000AF786039607B689B68FB60FB6877
:10444C0023F07003FB603A68FB68134343F00703E7
:10445C00FB607B68FA689A6000BF1437BD4680BC6D
:10446C00704780B487B000AFF860B9607A603B6089
:10447C00FB689B687B617B6923F47F437B613B68B2
:10448C001A027B681A43BB6813437A6913437B6136
:10449C00FB687A699A6000BF1C37BD4680BC7047C8
:1044AC0080B487B000AFF860B9607A60BB6803F085
:1044BC001F03012202FA03F37B61FB681A6A7B6912
:1044CC00DB431A40FB681A62FB681A6ABB6803F08C
:1044DC001F03796801FA03F31A43FB681A6200BFE1
:1044EC001C37BD4680BC704780B485B000AF786087
:1044FC0039607B6893F83C30012B01D1022346E0F4
:10450C007B68012283F83C207B68022283F83D20E3
:10451C007B681B685B68FB607B681B689B68BB6087
:10452C00FB6823F07003FB603B681B68FA6813435D
:10453C00FB607B681B68FA685A607B681B68164ACC
:10454C0093420ED07B681B68B3F1804F09D07B6817
:10455C001B68124A934204D07B681B68104A934232
:10456C000CD1BB6823F08003BB603B685B68BA6806
:10457C001343BB607B681B68BA689A607B68012236
:10458C0083F83D207B68002283F83C2000231846EA
:10459C001437BD4680BC7047002C0140000400401D
:1045AC000008004080B485B000AF7860396000230B
:1045BC00FB607B6893F83C30012B01D102233DE07A
:1045CC007B68012283F83C20FB6823F0FF023B68E8
:1045DC00DB681343FB60FB6823F440723B689B6809
:1045EC001343FB60FB6823F480623B685B681343F6
:1045FC00FB60FB6823F400623B681B681343FB60A1
:10460C00FB6823F480523B681B691343FB60FB6817
:10461C0023F400523B685B691343FB60FB6823F493
:10462C0080423B68DB691343FB607B681B68FA685C
:10463C005A647B68002283F83C2000231846143708
:10464C00BD4680BC70470000164B10B51C68236B30
:10465C00B3B9182000F02CFA0246206320B952217D
:10466C00114B124800F0BEF91149124BC0E900136E
:10467C00114B002183600B2383810120C2E90401CB
:10468C00216B0E480B694C6958430D4A02FB040020
:10469C00A3FB0232013340EB0200C1E9043020F0ED
:1046AC00004010BD4C000020BA570008D15700083C
:1046BC000E33CDAB34126DE6ECDE05002DF4515803
:1046CC002D7F954C002310B50446C0E90033C0E99A
:1046DC000433836081814366C28183611946082259
:1046EC005C3000F0F4F80D4B246263620C4BA36257
:1046FC000C4BE3620C4B23630C4B9C4206D003F136
:10470C006802944202D0D0339C4205D104F1580087
:10471C00BDE8104000F054B910BD00BF554800086A
:10472C0077480008AF480008D3480008880F0020DD
:10473C00024A0349034800F069B800BF400000205A
:10474C00495000085000002041680C4B10B59942AC
:10475C00044601D000F072FCA168094B994202D0CA
:10476C00204600F06BFCE168064B994204D02046D1
:10477C00BDE8104000F062BC10BD00BF880F0020E7
:10478C00F00F00205810002010B50B4B0B4C0C4AAE
:10479C0020461A6004210022FFF794FF04F1680000
:1047AC0001220921FFF78EFF04F1D0000222BDE89F
:1047BC0010401221FFF786BFC0100020880F002088
:1047CC003D470008014800F0FCB800BFC9100020AC
:1047DC00014800F0F7B800BFC910002010B504461E
:1047EC00FFF7F0FF236A1BB1BDE81040FFF7F0BFE5
:1047FC00044B2362044B1B68002BF5D1FFF7C4FF5D
:10480C00F2E700BF55470008C01000202DE9F8431F
:10481C000746884614460026D4E90195B9F10109EA
:10482C0005D52468002CF7D13046BDE8F883AB8958
:10483C00012B07D9B5F90E30013303D02946384680
:10484C00C04706436835E9E710B50C46B1F90E10C0
:10485C0000F068F80028ABBF636DA3891B1823F424
:10486C008053ACBF6365A38110BD2DE9F0411F4699
:10487C008B890546DB050C46164605D5022300221E
:10488C00B1F90E1000F03CF8A389324623F48053A2
:10489C00A38128463B46B4F90E10BDE8F04100F068
:1048AC0053B810B50C46B1F90E1000F029F8431CA2
:1048BC00A38915BF606523F4805343F48053A3810F
:1048CC0018BFA38110BDB1F90E1000F009B8034652
:1048DC000244934200D1704703F8011BF9E7000032
:1048EC0038B50023054D044608462B60FCF7C1FF84
:1048FC00431C02D12B6803B1236038BDC4100020C7
:10490C0038B50446084611460022054D2A601A4661
:10491C00FCF7D3FF431C02D12B6803B1236038BDD5
:10492C00C410002038B50446084611460022054D37
:10493C002A601A46FCF764FF431C02D12B6803B1B2
:10494C00236038BDC410002038B504460846114613
:10495C000022054D2A601A46FCF76FFF431C02D15A
:10496C002B6803B1236038BDC4100020014B1868BC
:10497C00704700BF4C00002070B500260C4D0D4C4C
:10498C00641BA410A64209D100F052FE00260A4D69
:10499C000A4C641BA410A64205D170BD55F8043B0B
:1049AC0098470136EEE755F8043B98470136F2E795
:1049BC009858000898580008985800089C58000807
:1049CC007047704770470A44914200F1FF3300D1A1
:1049DC00704710B511F8014B914203F8014FF9D112
:1049EC0010BD00001FB514461A46094B05461B683E
:1049FC00D8684CB1074BCDE9013400912B460649E0
:104A0C0000F044FB00F072FB044B1C46F3E700BFC4
:104A1C004C0000202958000836580008645800083B
:104A2C0038B50546002940D051F8043C0C1F002B2A
:104A3C00B8BFE41800F0E6F81C4A136833B9636099
:104A4C0014602846BDE8384000F0E2B8A34208D90B
:104A5C00206821188B4201BF19685B680918216016
:104A6C00EDE71A465B680BB1A342FAD911685018EE
:104A7C00A0420BD120680144501883421160E0D150
:104A8C0018685B68084410605360DAE702D90C239D
:104A9C002B60D6E7206821188B4201BF19685B6830
:104AAC000918216063605460CBE738BDD01000203A
:104ABC00024B0146186800F025B800BF4C000020DE
:104ACC0070B50F4E0C463168054611B900F0F0FA7E
:104ADC0030602146284600F0EBFA431C03D14FF01E
:104AEC00FF34204670BDC41C24F00304A042F8D04F
:104AFC00211A284600F0DCFA0130F2D1EFE700BFB2
:104B0C00CC1000202DE9F843CD1C25F00305083509
:104B1C000C2D38BF0C25002D064601DBA94204D90B
:104B2C000C2333600020BDE8F883DFF8D48000F05C
:104B3C0069F8D8F800301C4644BB29463046FFF7CC
:104B4C00BFFF431C044658D1D8F800402746002F1D
:104B5C0043D1002C4BD023683946304604EB030973
:104B6C0000F0A6FA814542D1216830466D1A2946DB
:104B7C00FFF7A6FF01303AD023682B442360D8F806
:104B8C0000305A6862BBC8F800700FE02268521BF4
:104B9C0020D40B2A17D96119A342256018BF59607C
:104BAC00636808BFC8F8001062514B60304600F0D3
:104BBC002FF804F10B00231D20F00700C21A1CBFB4
:104BCC001B1AA350AFE76268A3420CBFC8F80020C1
:104BDC005A60EBE723466468AEE73C467F68B6E76D
:104BEC001A465B68A342FBD100235360DEE70C231B
:104BFC003046336000F00CF894E70560D6E700BF50
:104C0C00D01000200148FFF7DCBE00BFC810002008
:104C1C000148FFF7D7BE00BFC81000202DE9F047B0
:104C2C00164698468A680B6907469342B8BF1346E6
:104C3C00336091F843200C46DDF820900AB1013323
:104C4C0033602368990642BF3368023333602568AA
:104C5C0015F0060506D104F1190AE36832689B1AAF
:104C6C00AB422BDC94F843302268003B18BF012385
:104C7C00920630D44146384604F14302C84701300D
:104C8C0023D02368226903F00603042B14BF0025EC
:104C9C0033684FF0000608BFE56804F11A0408BF3A
:104CAC00ED1A54F8123C08BF25EAE5759342C4BFCF
:104CBC009B1AED18B5421AD1002008E00123524688
:104CCC0041463846C847013003D14FF0FF30BDE8AC
:104CDC00F0870135C1E73020E11881F843005A1CF8
:104CEC0094F845102244023382F84310C2E70123A2
:104CFC00224641463846C8470130E6D00136D9E74E
:104D0C002DE9FF470F7E9146782F80460C469A4638
:104D1C000C9E01F1430207D8622F0AD8002F00F035
:104D2C00D180582F00F0B88004F1420684F842700C
:104D3C003AE0A7F16303152BF6D801A151F823F043
:104D4C00A54D0008B94D0008354D0008354D00083B
:104D5C00354D0008354D0008B94D0008354D00089B
:104D6C00354D0008354D0008354D0008B74E00088C
:104D7C00E34D0008714E0008354D0008354D000814
:104D8C00D94E0008354D0008E34D0008354D00089C
:104D9C00354D0008794E000833681A1D1B683260C7
:104DAC0004F1420684F8423001239CE03368206809
:104DBC00191D3160060601D51D6803E04506FBD5BB
:104DCC00B3F90050002D03DA2D236D4284F84330E3
:104DDC000A23584811E021683368080653F8045B2D
:104DEC0002D4490648BFADB26F2F336014BF0A23FB
:104DFC0008235048002184F843106668002EA660F2
:104E0C0005DB21682E4321F0040121604BD01646AE
:104E1C00B5FBF3F103FB1157C75D06F8017D2F4677
:104E2C00BB420D46F4D9082B0BD12368DF0708D5FC
:104E3C00236961689942DEBF302306F8013C06F114
:104E4C00FF36921B22614B4621464046CDF800A00E
:104E5C0003AAFFF7E3FE01304AD14FF0FF3004B054
:104E6C00BDE8F087236843F020032360782732489D
:104E7C0084F84570236831681F0651F8045B02D42E
:104E8C005F0648BFADB23160D90744BF43F0200381
:104E9C0023601DB11023ADE72648E9E7236823F012
:104EAC0020032360F6E71646BDE733682568181D16
:104EBC00616930602E061B6801D5196002E0680636
:104ECC00FBD51980002316462361BCE7336800210B
:104EDC001A1D32601E686268304600F0F9F808B19D
:104EEC00801B606063682361002384F84330AAE769
:104EFC003246494640462369D0470130ADD023683D
:104F0C009B0713D4E068039B9842B8BF1846A6E7EA
:104F1C000123324649464046D04701309DD00135E9
:104F2C00E36803995B1AAB42F2DCEBE7002504F172
:104F3C001906F5E76558000876580008B1F90C20F9
:104F4C00F8B5160705460C4654D44B68002B02DC0A
:104F5C000B6C002B48DDE66A002E45D0002312F4C2
:104F6C0080522F68216A2B6030D0626DA38959075B
:104F7C0005D56368D21A636B0BB1236CD21A00236C
:104F8C002846E66A216AB047431CA38906D12968E2
:104F9C001D292BD8284ACA40D60727D50022626083
:104FAC002269D904226004D5421C01D12B6803B9B3
:104FBC006065616B2F60B9B104F14403994202D072
:104FCC002846FFF72DFD002363630DE001232846DF
:104FDC00B0470246501CC9D12B68002BC6D01D2BE4
:104FEC0001D0162B1DD12F60002021E043F040038F
:104FFC001BB21AE00F69002FF6D0930718BF0023DD
:10500C000E6808BF4B69F61B0F608B60002EEBDD42
:10501C0033463A462846216AD4F828C0E04700288F
:10502C0007DCB4F90C3043F040034FF0FF30A381A0
:10503C00F8BD0744361AE9E70100402038B50B6982
:10504C0005460C4613B90025284638BD18B1036A2D
:10505C000BB9FFF7C3FBB4F90C30002BF3D0626E25
:10506C00D00704D4990502D4A06DFFF7AAFC2846FA
:10507C002146FFF763FF636E0546DA07E4D4A38984
:10508C009B05E1D4A06DFFF79DFCDDE70EB403B5E5
:10509C00014603AB054853F8042B0068019300F05C
:1050AC0053F802B05DF804EB03B070474C000020DD
:1050BC0038B50023054D044608462B60FCF70AFC66
:1050CC00431C02D12B6803B1236038BDC4100020EF
:1050DC00034610B5C9B202449342184601D10020D0
:1050EC0003E0047801338C42F6D110BD062008B5DC
:1050FC0000F0FEF90120FCF778FB936810B4013B3B
:10510C00002B936007DA9469A34201DB0A2902D1D0
:10511C0010BC00F031B91368581C106019700846A7
:10512C0010BC7047F8B506460F461446D518AC426D
:10513C0001D1002007E03A46304614F8011BFFF776
:10514C00DCFF431CF3D1F8BD2DE9F04F0D4614469E
:10515C00984606469DB018B1036A0BB9FFF73EFBA3
:10516C006B6ED90705D4AB899A0502D4A86DFFF7ED
:10517C0028FCAB891B0701D52B699BB92946304606
:10518C0000F038F970B16B6EDC0704D54FF0FF30CE
:10519C001DB0BDE8F08FAB899805F7D4A86DFFF76B
:1051AC0011FCF3E70023099320238DF829303023D9
:1051BC004FF00109CDF80C80DFF8A8818DF82A306A
:1051CC0023469A4613F8012B0AB1252AF9D1BAEBDA
:1051DC00040B0BD05B46224629463046FFF7A2FF54
:1051EC00013000F0A780099A5A4409929AF80030CD
:1051FC00002B00F09F8000234FF0FF32CDE90523F8
:10520C000AF1010A049307938DF853301A9354460C
:10521C00052214F8011B5348FFF75AFF049AD8B91A
:10522C00D10644BF20238DF85330130744BF2B23E2
:10523C008DF853309AF800302A2B15D054460020A4
:10524C004FF00A0C079A214611F8013B303B092B11
:10525C004BD9B0B1079214E0A0EB080309FA03F3A1
:10526C001343A2460493D2E7039B191D1B680391B9
:10527C00002BBBBF5B4242F0020207930793B8BFFF
:10528C00049223782E2B0AD163782A2B32D1039BDC
:10529C0002341A1D1B68039243EAE3730593DFF88B
:1052AC00C8A0032250462178FFF712FF38B14022E4
:1052BC00049BA0EB0A00824013430134049314F8BE
:1052CC00011B062229488DF82810FFF701FF002842
:1052DC003FD0274B1BBB039B073323F0070308333B
:1052EC000393099B3B4409936AE70C4601200CFB92
:1052FC000232A8E700234FF00A0C1946013405933B
:10530C00204610F8012B303A092A03D9002BC6D0BD
:10531C000591C4E7044601230CFB0121F0E703AB24
:10532C0000932A463046134B04A9AFF3008007467E
:10533C00781CD6D16B6ED90705D4AB899A0502D4EB
:10534C00A86DFFF73FFBAB895B063FF51FAF0998D4
:10535C001EE703AB00932A463046064B04A9FFF721
:10536C00CFFCE4E7875800088D58000891580008D6
:10537C000000000031510008F8B50E4614460546F1
:10538C0018B1036A0BB9FFF729FAA369A360A389C3
:10539C001A0701D5236943B92146284600F02AF89B
:1053AC0018B14FF0FF373846F8BD23682269F6B2C2
:1053BC00981A63693746834205DC21462846FFF775
:1053CC003DFE0028EDD1A368013BA36023685A1C65
:1053DC0022601E706269431C9A4204D0A389DB07C9
:1053EC00E1D50A2EDFD121462846FFF727FE0028FB
:1053FC00D9D0D6E738B5294B054618680C4618B1F4
:10540C00036A0BB9FFF7EAF9B4F90C30190722D487
:10541C00DA0607D409222A6043F040034FF0FF302C
:10542C00A38133E0580712D5616B41B104F14403F9
:10543C00994202D02846FFF7F3FA00236363A3894D
:10544C0023F02403A3810023636023692360A389D1
:10545C0043F00803A38123694BB9A38903F4207398
:10546C00B3F5007F03D02146284600F082F8B4F94A
:10547C000C3013F001020AD00022A2606269524281
:10548C00A261226942B913F08000C5D138BD9907D9
:10549C0058BF6269A260F4E70020F7E74C000020D7
:1054AC001F2938B505460C4604D9162303604FF066
:1054BC00FF3038BDC26B12B152F821304BB92846BF
:1054CC0000F030F8224601462846BDE8384000F08E
:1054DC0017B8012B0AD0591C03D1162303600120E5
:1054EC00E7E70021204642F8241098470020E0E727
:1054FC00024B01461868FFF7D3BF00BF4C000020D9
:10550C0038B50023064D0446084611462B60FCF7BF
:10551C005CF9431C02D12B6803B1236038BD00BF7A
:10552C00C4100020FCF74AB970B50C46B1F90E1046
:10553C00154600291E4696B00CDAA389002113F0FB
:10554C00800F14BF40234FF48063002031602B6028
:10555C0016B070BD6A4600F049F80028EDDB0199E1
:10556C0001F47041A1F50053594259414FF4806345
:10557C00EBE78B89F7B59D0706460C4607D504F17A
:10558C004703236023610123636103B0F0BD6A46C6
:10559C0001ABFFF7C9FF009F054639463046FFF7C0
:1055AC00B1FA48B9B4F90C309A05EED423F00303E0
:1055BC0043F00203A381E2E7A389C4E9040743F0A3
:1055CC008003A381019B20605BB13046B4F90E10BF
:1055DC0000F01EF828B1A38923F0030343F0010364
:1055EC00A381A3891D43A581CFE7000038B5002313
:1055FC00064D0446084611462B60FCF745F9431C42
:10560C0002D12B6803B1236038BD00BFC410002049
:10561C0038B50023054D044608462B60FCF743F9CA
:10562C00431C02D12B6803B1236038BDC410002089
:10563C00F8B500BFF8BC08BC9E467047F8B500BF73
:08564C00F8BC08BC9E46704743
:105654005261696E626F77004F4646004661646529
:105664000000000052756E00466C61736800000013
:105674004F6666004D75736963000000605600084C
:1056840054560008685600086C5600087456000802
:1056940078560008426C756500000000526564008D
:1056A40050696E6B00000000477265656E00000073
:1056B400507572706C65000059656C6C6F770000F2
:1056C4004379616E0000000057686974650000004A
:1056D4004F72616E6765000098560008A056000876
:1056E400A4560008AC560008B4560008BC5600087E
:1056F400C4560008CC560008D45600082800000000
:1057040027000000260000002500000024000000FF
:1057140023000000220000002100000020000000FF
:105724001F00000010000000110000001200000023
:105734001300000014000000150000001600000013
:105744001700000018000000190000000B00000002
:105754000A00000009000000080000000700000023
:105764000600000005000000040000000300000023
:105774000200000048656C6C6F2053544D33322195
:10578400000000004C434420576F726B696E672120
:1057940000000000000000000000000001020304FB
:1057A4000607080902030405060708090A0B0C0D7D
:1057B4000E0F101001025245454E54206D616C6C61
:1057C4006F6320737563636565646564002F627538
:1057D400696C642F676E752D746F6F6C732D666FB3
:1057E400722D73746D33325F31332E332E72656CC8
:1057F400312E32303234303932362D313731352F83
:105804007372632F6E65776C69622F6E65776C694E
:10581400622F6C6962632F7374646C69622F7261A6
:105824006E642E63002C2066756E6374696F6E3A25
:105834002000617373657274696F6E202225732270
:10584400206661696C65643A2066696C652022256E
:1058540073222C206C696E65202564257325730AD8
:1058640000303132333435363738394142434445D8
:105874004600303132333435363738396162636447
:10588400656600232D302B2000686C4C006566672C
:04589400454647003E
:0458980031010008D2
:04589C000D010008F2
:1058A00000080140000801400008014000080140D4
:1058B0001000200040008000000801400008014066
:1058C0000008014000080140010002000400080037
:1058D0003200000000127A001000000001000000F9
:1058E0000000000003000000880F0020500000208E
:1058F00000000000880F0020F00F0020581000204A
:105900000000000000000000000000000000000097
:105910000000000000000000000000000000000087
:105920000000000000000000000000000000000077
:0C5930000000000000000000000000006B
:04000005080019597D
:00000001FF
